{
  "_format": "hh-sol-artifact-1",
  "contractName": "SkillChain",
  "sourceName": "contracts/SkillChain.sol",
  "abi": [
    {
      "inputs": [
        {
          "internalType": "address",
          "name": "_skillToken",
          "type": "address"
        },
        {
          "internalType": "address",
          "name": "_credentialNFT",
          "type": "address"
        },
        {
          "internalType": "address",
          "name": "_revenueWallet",
          "type": "address"
        }
      ],
      "stateMutability": "nonpayable",
      "type": "constructor"
    },
    {
      "inputs": [],
      "name": "AccessControlBadConfirmation",
      "type": "error"
    },
    {
      "inputs": [
        {
          "internalType": "address",
          "name": "account",
          "type": "address"
        },
        {
          "internalType": "bytes32",
          "name": "neededRole",
          "type": "bytes32"
        }
      ],
      "name": "AccessControlUnauthorizedAccount",
      "type": "error"
    },
    {
      "anonymous": false,
      "inputs": [
        {
          "indexed": true,
          "internalType": "address",
          "name": "learner",
          "type": "address"
        },
        {
          "indexed": true,
          "internalType": "uint256",
          "name": "moduleId",
          "type": "uint256"
        }
      ],
      "name": "CredentialAwarded",
      "type": "event"
    },
    {
      "anonymous": false,
      "inputs": [
        {
          "indexed": true,
          "internalType": "address",
          "name": "learner",
          "type": "address"
        },
        {
          "indexed": true,
          "internalType": "uint256",
          "name": "moduleId",
          "type": "uint256"
        }
      ],
      "name": "CredentialWithdrawn",
      "type": "event"
    },
    {
      "anonymous": false,
      "inputs": [
        {
          "indexed": true,
          "internalType": "address",
          "name": "learner",
          "type": "address"
        },
        {
          "indexed": true,
          "internalType": "uint256",
          "name": "moduleId",
          "type": "uint256"
        }
      ],
      "name": "LearnerRegistered",
      "type": "event"
    },
    {
      "anonymous": false,
      "inputs": [
        {
          "indexed": true,
          "internalType": "address",
          "name": "learner",
          "type": "address"
        },
        {
          "indexed": true,
          "internalType": "uint256",
          "name": "moduleId",
          "type": "uint256"
        }
      ],
      "name": "ModuleFinished",
      "type": "event"
    },
    {
      "anonymous": false,
      "inputs": [
        {
          "indexed": true,
          "internalType": "uint256",
          "name": "moduleId",
          "type": "uint256"
        },
        {
          "indexed": false,
          "internalType": "string",
          "name": "moduleName",
          "type": "string"
        }
      ],
      "name": "ModuleLaunched",
      "type": "event"
    },
    {
      "anonymous": false,
      "inputs": [
        {
          "indexed": true,
          "internalType": "uint256",
          "name": "moduleId",
          "type": "uint256"
        },
        {
          "indexed": false,
          "internalType": "string",
          "name": "moduleName",
          "type": "string"
        },
        {
          "indexed": false,
          "internalType": "bool",
          "name": "isAvailable",
          "type": "bool"
        },
        {
          "indexed": false,
          "internalType": "uint256",
          "name": "hbarCost",
          "type": "uint256"
        },
        {
          "indexed": false,
          "internalType": "uint256",
          "name": "tokenCost",
          "type": "uint256"
        }
      ],
      "name": "ModuleModified",
      "type": "event"
    },
    {
      "anonymous": false,
      "inputs": [
        {
          "indexed": true,
          "internalType": "address",
          "name": "learner",
          "type": "address"
        },
        {
          "indexed": true,
          "internalType": "uint256",
          "name": "moduleId",
          "type": "uint256"
        },
        {
          "indexed": false,
          "internalType": "uint256",
          "name": "paymentAmount",
          "type": "uint256"
        },
        {
          "indexed": false,
          "internalType": "string",
          "name": "currencyType",
          "type": "string"
        }
      ],
      "name": "PaymentProcessed",
      "type": "event"
    },
    {
      "anonymous": false,
      "inputs": [
        {
          "indexed": true,
          "internalType": "uint256",
          "name": "moduleId",
          "type": "uint256"
        },
        {
          "indexed": false,
          "internalType": "uint256",
          "name": "newHbarCost",
          "type": "uint256"
        },
        {
          "indexed": false,
          "internalType": "uint256",
          "name": "newTokenCost",
          "type": "uint256"
        }
      ],
      "name": "PricingAdjusted",
      "type": "event"
    },
    {
      "anonymous": false,
      "inputs": [
        {
          "indexed": true,
          "internalType": "bytes32",
          "name": "role",
          "type": "bytes32"
        },
        {
          "indexed": true,
          "internalType": "bytes32",
          "name": "previousAdminRole",
          "type": "bytes32"
        },
        {
          "indexed": true,
          "internalType": "bytes32",
          "name": "newAdminRole",
          "type": "bytes32"
        }
      ],
      "name": "RoleAdminChanged",
      "type": "event"
    },
    {
      "anonymous": false,
      "inputs": [
        {
          "indexed": true,
          "internalType": "bytes32",
          "name": "role",
          "type": "bytes32"
        },
        {
          "indexed": true,
          "internalType": "address",
          "name": "account",
          "type": "address"
        },
        {
          "indexed": true,
          "internalType": "address",
          "name": "sender",
          "type": "address"
        }
      ],
      "name": "RoleGranted",
      "type": "event"
    },
    {
      "anonymous": false,
      "inputs": [
        {
          "indexed": true,
          "internalType": "bytes32",
          "name": "role",
          "type": "bytes32"
        },
        {
          "indexed": true,
          "internalType": "address",
          "name": "account",
          "type": "address"
        },
        {
          "indexed": true,
          "internalType": "address",
          "name": "sender",
          "type": "address"
        }
      ],
      "name": "RoleRevoked",
      "type": "event"
    },
    {
      "inputs": [],
      "name": "CURRICULUM_MANAGER_ROLE",
      "outputs": [
        {
          "internalType": "bytes32",
          "name": "",
          "type": "bytes32"
        }
      ],
      "stateMutability": "view",
      "type": "function"
    },
    {
      "inputs": [],
      "name": "DEFAULT_ADMIN_ROLE",
      "outputs": [
        {
          "internalType": "bytes32",
          "name": "",
          "type": "bytes32"
        }
      ],
      "stateMutability": "view",
      "type": "function"
    },
    {
      "inputs": [],
      "name": "INSTRUCTOR_ROLE",
      "outputs": [
        {
          "internalType": "bytes32",
          "name": "",
          "type": "bytes32"
        }
      ],
      "stateMutability": "view",
      "type": "function"
    },
    {
      "inputs": [],
      "name": "LEARNER_ROLE",
      "outputs": [
        {
          "internalType": "bytes32",
          "name": "",
          "type": "bytes32"
        }
      ],
      "stateMutability": "view",
      "type": "function"
    },
    {
      "inputs": [],
      "name": "PLATFORM_ADMIN_ROLE",
      "outputs": [
        {
          "internalType": "bytes32",
          "name": "",
          "type": "bytes32"
        }
      ],
      "stateMutability": "view",
      "type": "function"
    },
    {
      "inputs": [
        {
          "internalType": "uint256",
          "name": "moduleId",
          "type": "uint256"
        },
        {
          "internalType": "uint256",
          "name": "newHbarCost",
          "type": "uint256"
        },
        {
          "internalType": "uint256",
          "name": "newTokenCost",
          "type": "uint256"
        }
      ],
      "name": "adjustModulePricing",
      "outputs": [],
      "stateMutability": "nonpayable",
      "type": "function"
    },
    {
      "inputs": [
        {
          "internalType": "address",
          "name": "managerAddress",
          "type": "address"
        }
      ],
      "name": "assignCurriculumManagerRole",
      "outputs": [],
      "stateMutability": "nonpayable",
      "type": "function"
    },
    {
      "inputs": [
        {
          "internalType": "address",
          "name": "instructorAddress",
          "type": "address"
        }
      ],
      "name": "assignInstructorRole",
      "outputs": [],
      "stateMutability": "nonpayable",
      "type": "function"
    },
    {
      "inputs": [
        {
          "internalType": "address",
          "name": "learnerAddress",
          "type": "address"
        }
      ],
      "name": "assignLearnerRole",
      "outputs": [],
      "stateMutability": "nonpayable",
      "type": "function"
    },
    {
      "inputs": [
        {
          "internalType": "uint256",
          "name": "moduleId",
          "type": "uint256"
        },
        {
          "internalType": "address",
          "name": "learnerAddress",
          "type": "address"
        },
        {
          "internalType": "string",
          "name": "credentialURI",
          "type": "string"
        }
      ],
      "name": "completeLearnerModule",
      "outputs": [],
      "stateMutability": "nonpayable",
      "type": "function"
    },
    {
      "inputs": [],
      "name": "credentialNFT",
      "outputs": [
        {
          "internalType": "contract ISkillCredentialNFT",
          "name": "",
          "type": "address"
        }
      ],
      "stateMutability": "view",
      "type": "function"
    },
    {
      "inputs": [
        {
          "internalType": "uint256",
          "name": "moduleId",
          "type": "uint256"
        }
      ],
      "name": "getModuleParticipants",
      "outputs": [
        {
          "internalType": "address[]",
          "name": "",
          "type": "address[]"
        }
      ],
      "stateMutability": "view",
      "type": "function"
    },
    {
      "inputs": [
        {
          "internalType": "bytes32",
          "name": "role",
          "type": "bytes32"
        }
      ],
      "name": "getRoleAdmin",
      "outputs": [
        {
          "internalType": "bytes32",
          "name": "",
          "type": "bytes32"
        }
      ],
      "stateMutability": "view",
      "type": "function"
    },
    {
      "inputs": [
        {
          "internalType": "bytes32",
          "name": "role",
          "type": "bytes32"
        },
        {
          "internalType": "address",
          "name": "account",
          "type": "address"
        }
      ],
      "name": "grantRole",
      "outputs": [],
      "stateMutability": "nonpayable",
      "type": "function"
    },
    {
      "inputs": [
        {
          "internalType": "uint256",
          "name": "",
          "type": "uint256"
        },
        {
          "internalType": "address",
          "name": "",
          "type": "address"
        }
      ],
      "name": "hasLearnerJoined",
      "outputs": [
        {
          "internalType": "bool",
          "name": "",
          "type": "bool"
        }
      ],
      "stateMutability": "view",
      "type": "function"
    },
    {
      "inputs": [
        {
          "internalType": "bytes32",
          "name": "role",
          "type": "bytes32"
        },
        {
          "internalType": "address",
          "name": "account",
          "type": "address"
        }
      ],
      "name": "hasRole",
      "outputs": [
        {
          "internalType": "bool",
          "name": "",
          "type": "bool"
        }
      ],
      "stateMutability": "view",
      "type": "function"
    },
    {
      "inputs": [
        {
          "internalType": "string",
          "name": "_moduleName",
          "type": "string"
        },
        {
          "internalType": "string",
          "name": "_moduleDetails",
          "type": "string"
        },
        {
          "internalType": "uint256",
          "name": "_hbarCost",
          "type": "uint256"
        },
        {
          "internalType": "uint256",
          "name": "_tokenCost",
          "type": "uint256"
        }
      ],
      "name": "launchLearningModule",
      "outputs": [],
      "stateMutability": "nonpayable",
      "type": "function"
    },
    {
      "inputs": [
        {
          "internalType": "address",
          "name": "",
          "type": "address"
        },
        {
          "internalType": "uint256",
          "name": "",
          "type": "uint256"
        }
      ],
      "name": "learnerProgressData",
      "outputs": [
        {
          "internalType": "string",
          "name": "finalScore",
          "type": "string"
        },
        {
          "internalType": "string",
          "name": "instructorFeedback",
          "type": "string"
        },
        {
          "internalType": "bool",
          "name": "isFinished",
          "type": "bool"
        },
        {
          "internalType": "bool",
          "name": "hasCredential",
          "type": "bool"
        }
      ],
      "stateMutability": "view",
      "type": "function"
    },
    {
      "inputs": [
        {
          "internalType": "uint256",
          "name": "",
          "type": "uint256"
        }
      ],
      "name": "learningModules",
      "outputs": [
        {
          "internalType": "string",
          "name": "moduleName",
          "type": "string"
        },
        {
          "internalType": "string",
          "name": "moduleDetails",
          "type": "string"
        },
        {
          "internalType": "address",
          "name": "moduleInstructor",
          "type": "address"
        },
        {
          "internalType": "uint256",
          "name": "hbarCost",
          "type": "uint256"
        },
        {
          "internalType": "uint256",
          "name": "tokenCost",
          "type": "uint256"
        },
        {
          "internalType": "bool",
          "name": "isActive",
          "type": "bool"
        },
        {
          "internalType": "bool",
          "name": "isAvailable",
          "type": "bool"
        },
        {
          "internalType": "uint256",
          "name": "launchTimestamp",
          "type": "uint256"
        },
        {
          "internalType": "uint256",
          "name": "modificationTimestamp",
          "type": "uint256"
        }
      ],
      "stateMutability": "view",
      "type": "function"
    },
    {
      "inputs": [],
      "name": "moduleIdCounter",
      "outputs": [
        {
          "internalType": "uint256",
          "name": "",
          "type": "uint256"
        }
      ],
      "stateMutability": "view",
      "type": "function"
    },
    {
      "inputs": [
        {
          "internalType": "uint256",
          "name": "",
          "type": "uint256"
        }
      ],
      "name": "pricingUpdateTimestamps",
      "outputs": [
        {
          "internalType": "uint256",
          "name": "",
          "type": "uint256"
        }
      ],
      "stateMutability": "view",
      "type": "function"
    },
    {
      "inputs": [
        {
          "internalType": "uint256",
          "name": "moduleId",
          "type": "uint256"
        }
      ],
      "name": "registerWithHBAR",
      "outputs": [],
      "stateMutability": "payable",
      "type": "function"
    },
    {
      "inputs": [
        {
          "internalType": "uint256",
          "name": "moduleId",
          "type": "uint256"
        }
      ],
      "name": "registerWithTokens",
      "outputs": [],
      "stateMutability": "nonpayable",
      "type": "function"
    },
    {
      "inputs": [
        {
          "internalType": "bytes32",
          "name": "role",
          "type": "bytes32"
        },
        {
          "internalType": "address",
          "name": "callerConfirmation",
          "type": "address"
        }
      ],
      "name": "renounceRole",
      "outputs": [],
      "stateMutability": "nonpayable",
      "type": "function"
    },
    {
      "inputs": [],
      "name": "revenueWallet",
      "outputs": [
        {
          "internalType": "address",
          "name": "",
          "type": "address"
        }
      ],
      "stateMutability": "view",
      "type": "function"
    },
    {
      "inputs": [
        {
          "internalType": "bytes32",
          "name": "role",
          "type": "bytes32"
        },
        {
          "internalType": "address",
          "name": "account",
          "type": "address"
        }
      ],
      "name": "revokeRole",
      "outputs": [],
      "stateMutability": "nonpayable",
      "type": "function"
    },
    {
      "inputs": [],
      "name": "skillToken",
      "outputs": [
        {
          "internalType": "contract IERC20",
          "name": "",
          "type": "address"
        }
      ],
      "stateMutability": "view",
      "type": "function"
    },
    {
      "inputs": [
        {
          "internalType": "bytes4",
          "name": "interfaceId",
          "type": "bytes4"
        }
      ],
      "name": "supportsInterface",
      "outputs": [
        {
          "internalType": "bool",
          "name": "",
          "type": "bool"
        }
      ],
      "stateMutability": "view",
      "type": "function"
    },
    {
      "inputs": [
        {
          "internalType": "uint256",
          "name": "moduleId",
          "type": "uint256"
        },
        {
          "internalType": "address",
          "name": "learnerAddress",
          "type": "address"
        },
        {
          "internalType": "string",
          "name": "score",
          "type": "string"
        },
        {
          "internalType": "string",
          "name": "feedback",
          "type": "string"
        }
      ],
      "name": "updateLearnerProgress",
      "outputs": [],
      "stateMutability": "nonpayable",
      "type": "function"
    },
    {
      "inputs": [
        {
          "internalType": "uint256",
          "name": "moduleId",
          "type": "uint256"
        },
        {
          "internalType": "bool",
          "name": "availability",
          "type": "bool"
        }
      ],
      "name": "updateModuleAvailability",
      "outputs": [],
      "stateMutability": "nonpayable",
      "type": "function"
    },
    {
      "inputs": [
        {
          "internalType": "address",
          "name": "newWallet",
          "type": "address"
        }
      ],
      "name": "updateRevenueWallet",
      "outputs": [],
      "stateMutability": "nonpayable",
      "type": "function"
    },
    {
      "inputs": [],
      "name": "withdrawContractHBAR",
      "outputs": [],
      "stateMutability": "nonpayable",
      "type": "function"
    },
    {
      "inputs": [],
      "name": "withdrawContractTokens",
      "outputs": [],
      "stateMutability": "nonpayable",
      "type": "function"
    },
    {
      "inputs": [
        {
          "internalType": "uint256",
          "name": "moduleId",
          "type": "uint256"
        },
        {
          "internalType": "address",
          "name": "learnerAddress",
          "type": "address"
        }
      ],
      "name": "withdrawCredential",
      "outputs": [],
      "stateMutability": "nonpayable",
      "type": "function"
    }
  ],
  "bytecode": "0x608060405234801561001057600080fd5b5060405161441938038061441983398181016040528101906100329190610314565b6100456000801b3361014260201b60201c565b506100767f5246556c0ab216b5b325ad7c539bfbd1a07c768773cdf810fecd3c3375c274073361014260201b60201c565b5082600160006101000a81548173ffffffffffffffffffffffffffffffffffffffff021916908373ffffffffffffffffffffffffffffffffffffffff16021790555081600260006101000a81548173ffffffffffffffffffffffffffffffffffffffff021916908373ffffffffffffffffffffffffffffffffffffffff16021790555080600360006101000a81548173ffffffffffffffffffffffffffffffffffffffff021916908373ffffffffffffffffffffffffffffffffffffffff160217905550505050610367565b6000610154838361023f60201b60201c565b61023457600160008085815260200190815260200160002060000160008473ffffffffffffffffffffffffffffffffffffffff1673ffffffffffffffffffffffffffffffffffffffff16815260200190815260200160002060006101000a81548160ff0219169083151502179055506101d16102a960201b60201c565b73ffffffffffffffffffffffffffffffffffffffff168273ffffffffffffffffffffffffffffffffffffffff16847f2f8788117e7eff1d82e926ec794901d17c78024a50270940304540a733656f0d60405160405180910390a460019050610239565b600090505b92915050565b600080600084815260200190815260200160002060000160008373ffffffffffffffffffffffffffffffffffffffff1673ffffffffffffffffffffffffffffffffffffffff16815260200190815260200160002060009054906101000a900460ff16905092915050565b600033905090565b600080fd5b600073ffffffffffffffffffffffffffffffffffffffff82169050919050565b60006102e1826102b6565b9050919050565b6102f1816102d6565b81146102fc57600080fd5b50565b60008151905061030e816102e8565b92915050565b60008060006060848603121561032d5761032c6102b1565b5b600061033b868287016102ff565b935050602061034c868287016102ff565b925050604061035d868287016102ff565b9150509250925092565b6140a3806103766000396000f3fe6080604052600436106101f95760003560e01c80637df82a371161010d578063aba5045b116100a0578063d1ebdfd31161006f578063d1ebdfd314610716578063d547741f14610741578063e5b99ddc1461076a578063e61edca814610793578063f4b48d21146107bc576101f9565b8063aba5045b14610640578063bb6c1cc31461066b578063c9794b0c146106a8578063ca2df6b6146106d1576101f9565b806391d14854116100dc57806391d14854146105965780639279bb6f146105d3578063934fcd1b146105ea578063a217fddf14610615576101f9565b80637df82a37146104dc57806386eeed21146105055780638af2e3371461052e5780638bcf979c1461056b576101f9565b80632f2ff15d1161019057806336568abe1161015f57806336568abe146104185780634447842514610441578063452898de1461046c57806352f0915814610488578063685d34ff146104b1576101f9565b80632f2ff15d146103845780632f59262d146103ad5780632fe47163146103d657806330d21339146103ed576101f9565b806323c7403b116101cc57806323c7403b146102b6578063248a9ca3146102f357806324c11ae0146103305780632e5d9a4414610359576101f9565b806301bd4b9b146101fe57806301ffc9a714610227578063052c8f7e146102645780631dede5d31461028d575b600080fd5b34801561020a57600080fd5b5061022560048036038101906102209190612a3f565b6107fc565b005b34801561023357600080fd5b5061024e60048036038101906102499190612aea565b6108b4565b60405161025b9190612b32565b60405180910390f35b34801561027057600080fd5b5061028b60048036038101906102869190612bab565b61092e565b005b34801561029957600080fd5b506102b460048036038101906102af9190612bab565b61099d565b005b3480156102c257600080fd5b506102dd60048036038101906102d89190612bd8565b6109f6565b6040516102ea9190612cc3565b60405180910390f35b3480156102ff57600080fd5b5061031a60048036038101906103159190612d1b565b610a1a565b6040516103279190612d57565b60405180910390f35b34801561033c57600080fd5b5061035760048036038101906103529190612bab565b610a39565b005b34801561036557600080fd5b5061036e610a92565b60405161037b9190612d57565b60405180910390f35b34801561039057600080fd5b506103ab60048036038101906103a69190612d72565b610ab6565b005b3480156103b957600080fd5b506103d460048036038101906103cf9190612ef8565b610ad8565b005b3480156103e257600080fd5b506103eb610ca9565b005b3480156103f957600080fd5b50610402610ebb565b60405161040f9190612fa6565b60405180910390f35b34801561042457600080fd5b5061043f600480360381019061043a9190612d72565b610ec1565b005b34801561044d57600080fd5b50610456610f3c565b6040516104639190612fd0565b60405180910390f35b61048660048036038101906104819190612bd8565b610f62565b005b34801561049457600080fd5b506104af60048036038101906104aa9190612bab565b611283565b005b3480156104bd57600080fd5b506104c66112dc565b6040516104d39190612d57565b60405180910390f35b3480156104e857600080fd5b5061050360048036038101906104fe9190613017565b611300565b005b34801561051157600080fd5b5061052c60048036038101906105279190613057565b6114d5565b005b34801561053a57600080fd5b5061055560048036038101906105509190612bd8565b61179c565b6040516105629190612fa6565b60405180910390f35b34801561057757600080fd5b506105806117b4565b60405161058d9190612d57565b60405180910390f35b3480156105a257600080fd5b506105bd60048036038101906105b89190612d72565b6117d8565b6040516105ca9190612b32565b60405180910390f35b3480156105df57600080fd5b506105e8611842565b005b3480156105f657600080fd5b506105ff6118d8565b60405161060c9190613155565b60405180910390f35b34801561062157600080fd5b5061062a6118fe565b6040516106379190612d57565b60405180910390f35b34801561064c57600080fd5b50610655611905565b6040516106629190612d57565b60405180910390f35b34801561067757600080fd5b50610692600480360381019061068d9190613170565b611929565b60405161069f9190612b32565b60405180910390f35b3480156106b457600080fd5b506106cf60048036038101906106ca9190613170565b611958565b005b3480156106dd57600080fd5b506106f860048036038101906106f39190612bd8565b611b6c565b60405161070d9998979695949392919061322f565b60405180910390f35b34801561072257600080fd5b5061072b611d04565b60405161073891906132eb565b60405180910390f35b34801561074d57600080fd5b5061076860048036038101906107639190612d72565b611d2a565b005b34801561077657600080fd5b50610791600480360381019061078c9190612bd8565b611d4c565b005b34801561079f57600080fd5b506107ba60048036038101906107b59190613306565b6120c8565b005b3480156107c857600080fd5b506107e360048036038101906107de9190613375565b612494565b6040516107f394939291906133b5565b60405180910390f35b7f5246556c0ab216b5b325ad7c539bfbd1a07c768773cdf810fecd3c3375c27407610826816125fb565b826005600086815260200190815260200160002060030181905550816005600086815260200190815260200160002060040181905550426009600086815260200190815260200160002081905550837fd4ad59346d49c507b7e73cd554ec7e5a2d104a60de6edda37a9d4b4c19a04e5284846040516108a6929190613408565b60405180910390a250505050565b60007f7965db0b000000000000000000000000000000000000000000000000000000007bffffffffffffffffffffffffffffffffffffffffffffffffffffffff1916827bffffffffffffffffffffffffffffffffffffffffffffffffffffffff1916148061092757506109268261260f565b5b9050919050565b7f5246556c0ab216b5b325ad7c539bfbd1a07c768773cdf810fecd3c3375c27407610958816125fb565b81600360006101000a81548173ffffffffffffffffffffffffffffffffffffffff021916908373ffffffffffffffffffffffffffffffffffffffff1602179055505050565b7f5246556c0ab216b5b325ad7c539bfbd1a07c768773cdf810fecd3c3375c274076109c7816125fb565b6109f17ffd87ecfb3c6109e8218d601d5ce7e29b2f140acd1e2354ba6b44435d2349b14283612679565b505050565b6060610a136006600084815260200190815260200160002061276a565b9050919050565b6000806000838152602001908152602001600020600101549050919050565b7f5246556c0ab216b5b325ad7c539bfbd1a07c768773cdf810fecd3c3375c27407610a63816125fb565b610a8d7fae4a0595970935aa5495afbbb72e5f1f6ff1062766b4a3028c0c9b7d5cf7e34583612679565b505050565b7ffd87ecfb3c6109e8218d601d5ce7e29b2f140acd1e2354ba6b44435d2349b14281565b610abf82610a1a565b610ac8816125fb565b610ad28383612679565b50505050565b7fae4a0595970935aa5495afbbb72e5f1f6ff1062766b4a3028c0c9b7d5cf7e345610b02816125fb565b6000600460008154610b1390613460565b91905081905590506040518061012001604052808781526020018681526020013373ffffffffffffffffffffffffffffffffffffffff16815260200185815260200184815260200160011515815260200160011515815260200142815260200142815250600560008381526020019081526020016000206000820151816000019081610b9f91906136aa565b506020820151816001019081610bb591906136aa565b5060408201518160020160006101000a81548173ffffffffffffffffffffffffffffffffffffffff021916908373ffffffffffffffffffffffffffffffffffffffff160217905550606082015181600301556080820151816004015560a08201518160050160006101000a81548160ff02191690831515021790555060c08201518160050160016101000a81548160ff02191690831515021790555060e082015181600601556101008201518160070155905050807f3aa6918459f875feb4ae35ea9bd5934b8fe6d0e7837b3a1c5b64ee762fd34f1687604051610c99919061377c565b60405180910390a2505050505050565b7f5246556c0ab216b5b325ad7c539bfbd1a07c768773cdf810fecd3c3375c27407610cd3816125fb565b6000600160009054906101000a900473ffffffffffffffffffffffffffffffffffffffff1673ffffffffffffffffffffffffffffffffffffffff166370a08231306040518263ffffffff1660e01b8152600401610d309190612fd0565b602060405180830381865afa158015610d4d573d6000803e3d6000fd5b505050506040513d601f19601f82011682018060405250810190610d7191906137b3565b905060008111610db6576040517f08c379a0000000000000000000000000000000000000000000000000000000008152600401610dad90613852565b60405180910390fd5b600160009054906101000a900473ffffffffffffffffffffffffffffffffffffffff1673ffffffffffffffffffffffffffffffffffffffff1663a9059cbb600360009054906101000a900473ffffffffffffffffffffffffffffffffffffffff16836040518363ffffffff1660e01b8152600401610e35929190613872565b6020604051808303816000875af1158015610e54573d6000803e3d6000fd5b505050506040513d601f19601f82011682018060405250810190610e7891906138b0565b610eb7576040517f08c379a0000000000000000000000000000000000000000000000000000000008152600401610eae90613929565b60405180910390fd5b5050565b60045481565b610ec961278b565b73ffffffffffffffffffffffffffffffffffffffff168173ffffffffffffffffffffffffffffffffffffffff1614610f2d576040517f6697b23200000000000000000000000000000000000000000000000000000000815260040160405180910390fd5b610f378282612793565b505050565b600360009054906101000a900473ffffffffffffffffffffffffffffffffffffffff1681565b7ffd87ecfb3c6109e8218d601d5ce7e29b2f140acd1e2354ba6b44435d2349b142610f8c816125fb565b60006005600084815260200190815260200160002090508060050160009054906101000a900460ff168015610fcf57508060050160019054906101000a900460ff165b61100e576040517f08c379a000000000000000000000000000000000000000000000000000000000815260040161100590613995565b60405180910390fd5b6008600084815260200190815260200160002060003373ffffffffffffffffffffffffffffffffffffffff1673ffffffffffffffffffffffffffffffffffffffff16815260200190815260200160002060009054906101000a900460ff16156110ac576040517f08c379a00000000000000000000000000000000000000000000000000000000081526004016110a390613a27565b60405180910390fd5b80600301543410156110f3576040517f08c379a00000000000000000000000000000000000000000000000000000000081526004016110ea90613a93565b60405180910390fd5b611118336006600086815260200190815260200160002061288590919063ffffffff16565b5060016008600085815260200190815260200160002060003373ffffffffffffffffffffffffffffffffffffffff1673ffffffffffffffffffffffffffffffffffffffff16815260200190815260200160002060006101000a81548160ff021916908315150217905550823373ffffffffffffffffffffffffffffffffffffffff167f5ecad4163e9c4372d67b7a3f1f3cdbcda6ed716640732e27aca0525e38d9f0c560405160405180910390a3823373ffffffffffffffffffffffffffffffffffffffff167f95b5e012d1d8d516107c00050740b69fc0a4eec5c057173f7d31acdeeb9622543460405161120d9190613aff565b60405180910390a3600360009054906101000a900473ffffffffffffffffffffffffffffffffffffffff1673ffffffffffffffffffffffffffffffffffffffff166108fc349081150290604051600060405180830381858888f1935050505015801561127d573d6000803e3d6000fd5b50505050565b7f5246556c0ab216b5b325ad7c539bfbd1a07c768773cdf810fecd3c3375c274076112ad816125fb565b6112d77f8fd4e70cecfd2dbab97719ba0cb31a284e3bb93fe5f3213d99b35018c42ee70c83612679565b505050565b7f5246556c0ab216b5b325ad7c539bfbd1a07c768773cdf810fecd3c3375c2740781565b816005600082815260200190815260200160002060050160009054906101000a900460ff16611364576040517f08c379a000000000000000000000000000000000000000000000000000000000815260040161135b90613b79565b60405180910390fd5b3373ffffffffffffffffffffffffffffffffffffffff166005600083815260200190815260200160002060020160009054906101000a900473ffffffffffffffffffffffffffffffffffffffff1673ffffffffffffffffffffffffffffffffffffffff1614611408576040517f08c379a00000000000000000000000000000000000000000000000000000000081526004016113ff90613c0b565b60405180910390fd5b816005600085815260200190815260200160002060050160016101000a81548160ff021916908315150217905550426005600085815260200190815260200160002060070181905550827ffd5ae20b91c3dd8ffffc860541d40c0aa6f0b5767437171487e92bf11a2d668d6005600086815260200190815260200160002060000184600560008881526020019081526020016000206003015460056000898152602001908152602001600020600401546040516114c89493929190613caf565b60405180910390a2505050565b836005600082815260200190815260200160002060050160009054906101000a900460ff16611539576040517f08c379a000000000000000000000000000000000000000000000000000000000815260040161153090613b79565b60405180910390fd5b3373ffffffffffffffffffffffffffffffffffffffff166005600083815260200190815260200160002060020160009054906101000a900473ffffffffffffffffffffffffffffffffffffffff1673ffffffffffffffffffffffffffffffffffffffff16146115dd576040517f08c379a00000000000000000000000000000000000000000000000000000000081526004016115d490613c0b565b60405180910390fd5b6008600086815260200190815260200160002060008573ffffffffffffffffffffffffffffffffffffffff1673ffffffffffffffffffffffffffffffffffffffff16815260200190815260200160002060009054906101000a900460ff1661167a576040517f08c379a000000000000000000000000000000000000000000000000000000000815260040161167190613d6d565b60405180910390fd5b6000600760008673ffffffffffffffffffffffffffffffffffffffff1673ffffffffffffffffffffffffffffffffffffffff16815260200190815260200160002060008781526020019081526020016000209050838160000190816116df91906136aa565b50828160010190816116f191906136aa565b50857ffd5ae20b91c3dd8ffffc860541d40c0aa6f0b5767437171487e92bf11a2d668d60056000898152602001908152602001600020600001600560008a815260200190815260200160002060050160019054906101000a900460ff16600560008b815260200190815260200160002060030154600560008c81526020019081526020016000206004015460405161178c9493929190613caf565b60405180910390a2505050505050565b60096020528060005260406000206000915090505481565b7fae4a0595970935aa5495afbbb72e5f1f6ff1062766b4a3028c0c9b7d5cf7e34581565b600080600084815260200190815260200160002060000160008373ffffffffffffffffffffffffffffffffffffffff1673ffffffffffffffffffffffffffffffffffffffff16815260200190815260200160002060009054906101000a900460ff16905092915050565b7f5246556c0ab216b5b325ad7c539bfbd1a07c768773cdf810fecd3c3375c2740761186c816125fb565b600360009054906101000a900473ffffffffffffffffffffffffffffffffffffffff1673ffffffffffffffffffffffffffffffffffffffff166108fc479081150290604051600060405180830381858888f193505050501580156118d4573d6000803e3d6000fd5b5050565b600260009054906101000a900473ffffffffffffffffffffffffffffffffffffffff1681565b6000801b81565b7f8fd4e70cecfd2dbab97719ba0cb31a284e3bb93fe5f3213d99b35018c42ee70c81565b60086020528160005260406000206020528060005260406000206000915091509054906101000a900460ff1681565b816005600082815260200190815260200160002060050160009054906101000a900460ff166119bc576040517f08c379a00000000000000000000000000000000000000000000000000000000081526004016119b390613b79565b60405180910390fd5b3373ffffffffffffffffffffffffffffffffffffffff166005600083815260200190815260200160002060020160009054906101000a900473ffffffffffffffffffffffffffffffffffffffff1673ffffffffffffffffffffffffffffffffffffffff1614611a60576040517f08c379a0000000000000000000000000000000000000000000000000000000008152600401611a5790613c0b565b60405180910390fd5b6000600760008473ffffffffffffffffffffffffffffffffffffffff1673ffffffffffffffffffffffffffffffffffffffff168152602001908152602001600020600085815260200190815260200160002090508060020160019054906101000a900460ff16611b05576040517f08c379a0000000000000000000000000000000000000000000000000000000008152600401611afc90613dd9565b60405180910390fd5b60008160020160016101000a81548160ff021916908315150217905550838373ffffffffffffffffffffffffffffffffffffffff167fa7c636616f9ca00d6f009533d3530e03220839e04338cbf603bf015a61b9d33060405160405180910390a350505050565b6005602052806000526040600020600091509050806000018054611b8f906134d7565b80601f0160208091040260200160405190810160405280929190818152602001828054611bbb906134d7565b8015611c085780601f10611bdd57610100808354040283529160200191611c08565b820191906000526020600020905b815481529060010190602001808311611beb57829003601f168201915b505050505090806001018054611c1d906134d7565b80601f0160208091040260200160405190810160405280929190818152602001828054611c49906134d7565b8015611c965780601f10611c6b57610100808354040283529160200191611c96565b820191906000526020600020905b815481529060010190602001808311611c7957829003601f168201915b5050505050908060020160009054906101000a900473ffffffffffffffffffffffffffffffffffffffff16908060030154908060040154908060050160009054906101000a900460ff16908060050160019054906101000a900460ff16908060060154908060070154905089565b600160009054906101000a900473ffffffffffffffffffffffffffffffffffffffff1681565b611d3382610a1a565b611d3c816125fb565b611d468383612793565b50505050565b7ffd87ecfb3c6109e8218d601d5ce7e29b2f140acd1e2354ba6b44435d2349b142611d76816125fb565b60006005600084815260200190815260200160002090508060050160009054906101000a900460ff168015611db957508060050160019054906101000a900460ff165b611df8576040517f08c379a0000000000000000000000000000000000000000000000000000000008152600401611def90613995565b60405180910390fd5b6008600084815260200190815260200160002060003373ffffffffffffffffffffffffffffffffffffffff1673ffffffffffffffffffffffffffffffffffffffff16815260200190815260200160002060009054906101000a900460ff1615611e96576040517f08c379a0000000000000000000000000000000000000000000000000000000008152600401611e8d90613a27565b60405180910390fd5b600160009054906101000a900473ffffffffffffffffffffffffffffffffffffffff1673ffffffffffffffffffffffffffffffffffffffff166323b872dd33600360009054906101000a900473ffffffffffffffffffffffffffffffffffffffff1684600401546040518463ffffffff1660e01b8152600401611f1b93929190613df9565b6020604051808303816000875af1158015611f3a573d6000803e3d6000fd5b505050506040513d601f19601f82011682018060405250810190611f5e91906138b0565b611f9d576040517f08c379a0000000000000000000000000000000000000000000000000000000008152600401611f9490613e7c565b60405180910390fd5b611fc2336006600086815260200190815260200160002061288590919063ffffffff16565b5060016008600085815260200190815260200160002060003373ffffffffffffffffffffffffffffffffffffffff1673ffffffffffffffffffffffffffffffffffffffff16815260200190815260200160002060006101000a81548160ff021916908315150217905550823373ffffffffffffffffffffffffffffffffffffffff167f5ecad4163e9c4372d67b7a3f1f3cdbcda6ed716640732e27aca0525e38d9f0c560405160405180910390a3823373ffffffffffffffffffffffffffffffffffffffff167f95b5e012d1d8d516107c00050740b69fc0a4eec5c057173f7d31acdeeb96225483600401546040516120bb9190613ee8565b60405180910390a3505050565b826005600082815260200190815260200160002060050160009054906101000a900460ff1661212c576040517f08c379a000000000000000000000000000000000000000000000000000000000815260040161212390613b79565b60405180910390fd5b3373ffffffffffffffffffffffffffffffffffffffff166005600083815260200190815260200160002060020160009054906101000a900473ffffffffffffffffffffffffffffffffffffffff1673ffffffffffffffffffffffffffffffffffffffff16146121d0576040517f08c379a00000000000000000000000000000000000000000000000000000000081526004016121c790613c0b565b60405180910390fd5b6008600085815260200190815260200160002060008473ffffffffffffffffffffffffffffffffffffffff1673ffffffffffffffffffffffffffffffffffffffff16815260200190815260200160002060009054906101000a900460ff1661226d576040517f08c379a000000000000000000000000000000000000000000000000000000000815260040161226490613f62565b60405180910390fd5b6000600760008573ffffffffffffffffffffffffffffffffffffffff1673ffffffffffffffffffffffffffffffffffffffff168152602001908152602001600020600086815260200190815260200160002090508060020160009054906101000a900460ff1615612313576040517f08c379a000000000000000000000000000000000000000000000000000000000815260040161230a90613ff4565b60405180910390fd5b60018160020160006101000a81548160ff021916908315150217905550848473ffffffffffffffffffffffffffffffffffffffff167f2c0ce65b655b0ba8be534f01cbff0fc2c1ea2763ded943b48d726d4ad5ea4a2960405160405180910390a38060020160019054906101000a900460ff1661248d57600260009054906101000a900473ffffffffffffffffffffffffffffffffffffffff1673ffffffffffffffffffffffffffffffffffffffff166304f9033085856040518363ffffffff1660e01b81526004016123e7929190614014565b6020604051808303816000875af1158015612406573d6000803e3d6000fd5b505050506040513d601f19601f8201168201806040525081019061242a91906137b3565b5060018160020160016101000a81548160ff021916908315150217905550848473ffffffffffffffffffffffffffffffffffffffff167fd055e65e60f4f152227c84f04fb4dba4466f6eea9384ccdaab2bed38b0ea279c60405160405180910390a35b5050505050565b6007602052816000526040600020602052806000526040600020600091509150508060000180546124c4906134d7565b80601f01602080910402602001604051908101604052809291908181526020018280546124f0906134d7565b801561253d5780601f106125125761010080835404028352916020019161253d565b820191906000526020600020905b81548152906001019060200180831161252057829003601f168201915b505050505090806001018054612552906134d7565b80601f016020809104026020016040519081016040528092919081815260200182805461257e906134d7565b80156125cb5780601f106125a0576101008083540402835291602001916125cb565b820191906000526020600020905b8154815290600101906020018083116125ae57829003601f168201915b5050505050908060020160009054906101000a900460ff16908060020160019054906101000a900460ff16905084565b61260c8161260761278b565b6128b5565b50565b60007f01ffc9a7000000000000000000000000000000000000000000000000000000007bffffffffffffffffffffffffffffffffffffffffffffffffffffffff1916827bffffffffffffffffffffffffffffffffffffffffffffffffffffffff1916149050919050565b600061268583836117d8565b61275f57600160008085815260200190815260200160002060000160008473ffffffffffffffffffffffffffffffffffffffff1673ffffffffffffffffffffffffffffffffffffffff16815260200190815260200160002060006101000a81548160ff0219169083151502179055506126fc61278b565b73ffffffffffffffffffffffffffffffffffffffff168273ffffffffffffffffffffffffffffffffffffffff16847f2f8788117e7eff1d82e926ec794901d17c78024a50270940304540a733656f0d60405160405180910390a460019050612764565b600090505b92915050565b6060600061277a83600001612906565b905060608190508092505050919050565b600033905090565b600061279f83836117d8565b1561287a57600080600085815260200190815260200160002060000160008473ffffffffffffffffffffffffffffffffffffffff1673ffffffffffffffffffffffffffffffffffffffff16815260200190815260200160002060006101000a81548160ff02191690831515021790555061281761278b565b73ffffffffffffffffffffffffffffffffffffffff168273ffffffffffffffffffffffffffffffffffffffff16847ff6391f5c32d9c69d2a47ea670b442974b53935d1edc7fd64eb21e047a839171b60405160405180910390a46001905061287f565b600090505b92915050565b60006128ad836000018373ffffffffffffffffffffffffffffffffffffffff1660001b612962565b905092915050565b6128bf82826117d8565b6129025780826040517fe2517d3f0000000000000000000000000000000000000000000000000000000081526004016128f9929190614044565b60405180910390fd5b5050565b60608160000180548060200260200160405190810160405280929190818152602001828054801561295657602002820191906000526020600020905b815481526020019060010190808311612942575b50505050509050919050565b600061296e83836129d2565b6129c75782600001829080600181540180825580915050600190039060005260206000200160009091909190915055826000018054905083600101600084815260200190815260200160002081905550600190506129cc565b600090505b92915050565b600080836001016000848152602001908152602001600020541415905092915050565b6000604051905090565b600080fd5b600080fd5b6000819050919050565b612a1c81612a09565b8114612a2757600080fd5b50565b600081359050612a3981612a13565b92915050565b600080600060608486031215612a5857612a576129ff565b5b6000612a6686828701612a2a565b9350506020612a7786828701612a2a565b9250506040612a8886828701612a2a565b9150509250925092565b60007fffffffff0000000000000000000000000000000000000000000000000000000082169050919050565b612ac781612a92565b8114612ad257600080fd5b50565b600081359050612ae481612abe565b92915050565b600060208284031215612b0057612aff6129ff565b5b6000612b0e84828501612ad5565b91505092915050565b60008115159050919050565b612b2c81612b17565b82525050565b6000602082019050612b476000830184612b23565b92915050565b600073ffffffffffffffffffffffffffffffffffffffff82169050919050565b6000612b7882612b4d565b9050919050565b612b8881612b6d565b8114612b9357600080fd5b50565b600081359050612ba581612b7f565b92915050565b600060208284031215612bc157612bc06129ff565b5b6000612bcf84828501612b96565b91505092915050565b600060208284031215612bee57612bed6129ff565b5b6000612bfc84828501612a2a565b91505092915050565b600081519050919050565b600082825260208201905092915050565b6000819050602082019050919050565b612c3a81612b6d565b82525050565b6000612c4c8383612c31565b60208301905092915050565b6000602082019050919050565b6000612c7082612c05565b612c7a8185612c10565b9350612c8583612c21565b8060005b83811015612cb6578151612c9d8882612c40565b9750612ca883612c58565b925050600181019050612c89565b5085935050505092915050565b60006020820190508181036000830152612cdd8184612c65565b905092915050565b6000819050919050565b612cf881612ce5565b8114612d0357600080fd5b50565b600081359050612d1581612cef565b92915050565b600060208284031215612d3157612d306129ff565b5b6000612d3f84828501612d06565b91505092915050565b612d5181612ce5565b82525050565b6000602082019050612d6c6000830184612d48565b92915050565b60008060408385031215612d8957612d886129ff565b5b6000612d9785828601612d06565b9250506020612da885828601612b96565b9150509250929050565b600080fd5b600080fd5b6000601f19601f8301169050919050565b7f4e487b7100000000000000000000000000000000000000000000000000000000600052604160045260246000fd5b612e0582612dbc565b810181811067ffffffffffffffff82111715612e2457612e23612dcd565b5b80604052505050565b6000612e376129f5565b9050612e438282612dfc565b919050565b600067ffffffffffffffff821115612e6357612e62612dcd565b5b612e6c82612dbc565b9050602081019050919050565b82818337600083830152505050565b6000612e9b612e9684612e48565b612e2d565b905082815260208101848484011115612eb757612eb6612db7565b5b612ec2848285612e79565b509392505050565b600082601f830112612edf57612ede612db2565b5b8135612eef848260208601612e88565b91505092915050565b60008060008060808587031215612f1257612f116129ff565b5b600085013567ffffffffffffffff811115612f3057612f2f612a04565b5b612f3c87828801612eca565b945050602085013567ffffffffffffffff811115612f5d57612f5c612a04565b5b612f6987828801612eca565b9350506040612f7a87828801612a2a565b9250506060612f8b87828801612a2a565b91505092959194509250565b612fa081612a09565b82525050565b6000602082019050612fbb6000830184612f97565b92915050565b612fca81612b6d565b82525050565b6000602082019050612fe56000830184612fc1565b92915050565b612ff481612b17565b8114612fff57600080fd5b50565b60008135905061301181612feb565b92915050565b6000806040838503121561302e5761302d6129ff565b5b600061303c85828601612a2a565b925050602061304d85828601613002565b9150509250929050565b60008060008060808587031215613071576130706129ff565b5b600061307f87828801612a2a565b945050602061309087828801612b96565b935050604085013567ffffffffffffffff8111156130b1576130b0612a04565b5b6130bd87828801612eca565b925050606085013567ffffffffffffffff8111156130de576130dd612a04565b5b6130ea87828801612eca565b91505092959194509250565b6000819050919050565b600061311b61311661311184612b4d565b6130f6565b612b4d565b9050919050565b600061312d82613100565b9050919050565b600061313f82613122565b9050919050565b61314f81613134565b82525050565b600060208201905061316a6000830184613146565b92915050565b60008060408385031215613187576131866129ff565b5b600061319585828601612a2a565b92505060206131a685828601612b96565b9150509250929050565b600081519050919050565b600082825260208201905092915050565b60005b838110156131ea5780820151818401526020810190506131cf565b60008484015250505050565b6000613201826131b0565b61320b81856131bb565b935061321b8185602086016131cc565b61322481612dbc565b840191505092915050565b600061012082019050818103600083015261324a818c6131f6565b9050818103602083015261325e818b6131f6565b905061326d604083018a612fc1565b61327a6060830189612f97565b6132876080830188612f97565b61329460a0830187612b23565b6132a160c0830186612b23565b6132ae60e0830185612f97565b6132bc610100830184612f97565b9a9950505050505050505050565b60006132d582613122565b9050919050565b6132e5816132ca565b82525050565b600060208201905061330060008301846132dc565b92915050565b60008060006060848603121561331f5761331e6129ff565b5b600061332d86828701612a2a565b935050602061333e86828701612b96565b925050604084013567ffffffffffffffff81111561335f5761335e612a04565b5b61336b86828701612eca565b9150509250925092565b6000806040838503121561338c5761338b6129ff565b5b600061339a85828601612b96565b92505060206133ab85828601612a2a565b9150509250929050565b600060808201905081810360008301526133cf81876131f6565b905081810360208301526133e381866131f6565b90506133f26040830185612b23565b6133ff6060830184612b23565b95945050505050565b600060408201905061341d6000830185612f97565b61342a6020830184612f97565b9392505050565b7f4e487b7100000000000000000000000000000000000000000000000000000000600052601160045260246000fd5b600061346b82612a09565b91507fffffffffffffffffffffffffffffffffffffffffffffffffffffffffffffffff820361349d5761349c613431565b5b600182019050919050565b7f4e487b7100000000000000000000000000000000000000000000000000000000600052602260045260246000fd5b600060028204905060018216806134ef57607f821691505b602082108103613502576135016134a8565b5b50919050565b60008190508160005260206000209050919050565b60006020601f8301049050919050565b600082821b905092915050565b60006008830261356a7fffffffffffffffffffffffffffffffffffffffffffffffffffffffffffffffff8261352d565b613574868361352d565b95508019841693508086168417925050509392505050565b60006135a76135a261359d84612a09565b6130f6565b612a09565b9050919050565b6000819050919050565b6135c18361358c565b6135d56135cd826135ae565b84845461353a565b825550505050565b600090565b6135ea6135dd565b6135f58184846135b8565b505050565b5b818110156136195761360e6000826135e2565b6001810190506135fb565b5050565b601f82111561365e5761362f81613508565b6136388461351d565b81016020851015613647578190505b61365b6136538561351d565b8301826135fa565b50505b505050565b600082821c905092915050565b600061368160001984600802613663565b1980831691505092915050565b600061369a8383613670565b9150826002028217905092915050565b6136b3826131b0565b67ffffffffffffffff8111156136cc576136cb612dcd565b5b6136d682546134d7565b6136e182828561361d565b600060209050601f8311600181146137145760008415613702578287015190505b61370c858261368e565b865550613774565b601f19841661372286613508565b60005b8281101561374a57848901518255600182019150602085019450602081019050613725565b868310156137675784890151613763601f891682613670565b8355505b6001600288020188555050505b505050505050565b6000602082019050818103600083015261379681846131f6565b905092915050565b6000815190506137ad81612a13565b92915050565b6000602082840312156137c9576137c86129ff565b5b60006137d78482850161379e565b91505092915050565b7f4e6f20746f6b656e7320617661696c61626c6520666f7220776974686472617760008201527f616c000000000000000000000000000000000000000000000000000000000000602082015250565b600061383c6022836131bb565b9150613847826137e0565b604082019050919050565b6000602082019050818103600083015261386b8161382f565b9050919050565b60006040820190506138876000830185612fc1565b6138946020830184612f97565b9392505050565b6000815190506138aa81612feb565b92915050565b6000602082840312156138c6576138c56129ff565b5b60006138d48482850161389b565b91505092915050565b7f546f6b656e207769746864726177616c206661696c6564000000000000000000600082015250565b60006139136017836131bb565b915061391e826138dd565b602082019050919050565b6000602082019050818103600083015261394281613906565b9050919050565b7f4d6f64756c6520756e617661696c61626c65206f7220696e6163746976650000600082015250565b600061397f601e836131bb565b915061398a82613949565b602082019050919050565b600060208201905081810360008301526139ae81613972565b9050919050565b7f416c7265616479207265676973746572656420666f722074686973206d6f647560008201527f6c65000000000000000000000000000000000000000000000000000000000000602082015250565b6000613a116022836131bb565b9150613a1c826139b5565b604082019050919050565b60006020820190508181036000830152613a4081613a04565b9050919050565b7f496e73756666696369656e742048424152207061796d656e7400000000000000600082015250565b6000613a7d6019836131bb565b9150613a8882613a47565b602082019050919050565b60006020820190508181036000830152613aac81613a70565b9050919050565b7f4842415200000000000000000000000000000000000000000000000000000000600082015250565b6000613ae96004836131bb565b9150613af482613ab3565b602082019050919050565b6000604082019050613b146000830184612f97565b8181036020830152613b2581613adc565b905092915050565b7f4c6561726e696e67206d6f64756c6520646f6573206e6f742065786973740000600082015250565b6000613b63601e836131bb565b9150613b6e82613b2d565b602082019050919050565b60006020820190508181036000830152613b9281613b56565b9050919050565b7f4163636573732064656e696564202d206e6f74206d6f64756c6520696e73747260008201527f7563746f72000000000000000000000000000000000000000000000000000000602082015250565b6000613bf56025836131bb565b9150613c0082613b99565b604082019050919050565b60006020820190508181036000830152613c2481613be8565b9050919050565b60008154613c38816134d7565b613c4281866131bb565b94506001821660008114613c5d5760018114613c7357613ca6565b60ff198316865281151560200286019350613ca6565b613c7c85613508565b60005b83811015613c9e57815481890152600182019150602081019050613c7f565b808801955050505b50505092915050565b60006080820190508181036000830152613cc98187613c2b565b9050613cd86020830186612b23565b613ce56040830185612f97565b613cf26060830184612f97565b95945050505050565b7f4c6561726e6572206e6f74207265676973746572656420666f7220746869732060008201527f6d6f64756c650000000000000000000000000000000000000000000000000000602082015250565b6000613d576026836131bb565b9150613d6282613cfb565b604082019050919050565b60006020820190508181036000830152613d8681613d4a565b9050919050565b7f4e6f2063726564656e7469616c2065786973747320746f207769746864726177600082015250565b6000613dc36020836131bb565b9150613dce82613d8d565b602082019050919050565b60006020820190508181036000830152613df281613db6565b9050919050565b6000606082019050613e0e6000830186612fc1565b613e1b6020830185612fc1565b613e286040830184612f97565b949350505050565b7f546f6b656e207061796d656e74207472616e73666572206661696c6564000000600082015250565b6000613e66601d836131bb565b9150613e7182613e30565b602082019050919050565b60006020820190508181036000830152613e9581613e59565b9050919050565b7f544f4b454e000000000000000000000000000000000000000000000000000000600082015250565b6000613ed26005836131bb565b9150613edd82613e9c565b602082019050919050565b6000604082019050613efd6000830184612f97565b8181036020830152613f0e81613ec5565b905092915050565b7f4c6561726e6572206e6f74207265676973746572656400000000000000000000600082015250565b6000613f4c6016836131bb565b9150613f5782613f16565b602082019050919050565b60006020820190508181036000830152613f7b81613f3f565b9050919050565b7f4d6f64756c6520616c7265616479206d61726b656420617320636f6d706c657460008201527f6564000000000000000000000000000000000000000000000000000000000000602082015250565b6000613fde6022836131bb565b9150613fe982613f82565b604082019050919050565b6000602082019050818103600083015261400d81613fd1565b9050919050565b60006040820190506140296000830185612fc1565b818103602083015261403b81846131f6565b90509392505050565b60006040820190506140596000830185612fc1565b6140666020830184612d48565b939250505056fea26469706673582212206f6a4c1369c877308fa9fad792d39a8d03e31a3315ddfa5f35676eb89e8cd6ae64736f6c634300081c0033",
  "linkReferences": {},
  "deployedLinkReferences": {}
}