{
  "_format": "hh-sol-artifact-1",
  "contractName": "SkillChain",
  "sourceName": "contracts/SkillChain.sol",
  "abi": [
    {
      "inputs": [
        {
          "internalType": "address",
          "name": "_skillToken",
          "type": "address"
        },
        {
          "internalType": "address",
          "name": "_credentialNFT",
          "type": "address"
        },
        {
          "internalType": "address",
          "name": "_revenueWallet",
          "type": "address"
        }
      ],
      "stateMutability": "nonpayable",
      "type": "constructor"
    },
    {
      "inputs": [],
      "name": "AccessControlBadConfirmation",
      "type": "error"
    },
    {
      "inputs": [
        {
          "internalType": "address",
          "name": "account",
          "type": "address"
        },
        {
          "internalType": "bytes32",
          "name": "neededRole",
          "type": "bytes32"
        }
      ],
      "name": "AccessControlUnauthorizedAccount",
      "type": "error"
    },
    {
      "anonymous": false,
      "inputs": [
        {
          "indexed": true,
          "internalType": "address",
          "name": "learner",
          "type": "address"
        },
        {
          "indexed": true,
          "internalType": "uint256",
          "name": "moduleId",
          "type": "uint256"
        }
      ],
      "name": "CredentialAwarded",
      "type": "event"
    },
    {
      "anonymous": false,
      "inputs": [
        {
          "indexed": true,
          "internalType": "address",
          "name": "learner",
          "type": "address"
        },
        {
          "indexed": true,
          "internalType": "uint256",
          "name": "moduleId",
          "type": "uint256"
        }
      ],
      "name": "CredentialWithdrawn",
      "type": "event"
    },
    {
      "anonymous": false,
      "inputs": [
        {
          "indexed": true,
          "internalType": "address",
          "name": "learner",
          "type": "address"
        },
        {
          "indexed": true,
          "internalType": "uint256",
          "name": "moduleId",
          "type": "uint256"
        }
      ],
      "name": "LearnerRegistered",
      "type": "event"
    },
    {
      "anonymous": false,
      "inputs": [
        {
          "indexed": true,
          "internalType": "address",
          "name": "learner",
          "type": "address"
        },
        {
          "indexed": true,
          "internalType": "uint256",
          "name": "moduleId",
          "type": "uint256"
        }
      ],
      "name": "ModuleFinished",
      "type": "event"
    },
    {
      "anonymous": false,
      "inputs": [
        {
          "indexed": true,
          "internalType": "uint256",
          "name": "moduleId",
          "type": "uint256"
        },
        {
          "indexed": false,
          "internalType": "string",
          "name": "moduleName",
          "type": "string"
        }
      ],
      "name": "ModuleLaunched",
      "type": "event"
    },
    {
      "anonymous": false,
      "inputs": [
        {
          "indexed": true,
          "internalType": "uint256",
          "name": "moduleId",
          "type": "uint256"
        },
        {
          "indexed": false,
          "internalType": "string",
          "name": "moduleName",
          "type": "string"
        },
        {
          "indexed": false,
          "internalType": "bool",
          "name": "isAvailable",
          "type": "bool"
        },
        {
          "indexed": false,
          "internalType": "uint256",
          "name": "hbarCost",
          "type": "uint256"
        },
        {
          "indexed": false,
          "internalType": "uint256",
          "name": "tokenCost",
          "type": "uint256"
        }
      ],
      "name": "ModuleModified",
      "type": "event"
    },
    {
      "anonymous": false,
      "inputs": [
        {
          "indexed": true,
          "internalType": "address",
          "name": "learner",
          "type": "address"
        },
        {
          "indexed": true,
          "internalType": "uint256",
          "name": "moduleId",
          "type": "uint256"
        },
        {
          "indexed": false,
          "internalType": "uint256",
          "name": "paymentAmount",
          "type": "uint256"
        },
        {
          "indexed": false,
          "internalType": "string",
          "name": "currencyType",
          "type": "string"
        }
      ],
      "name": "PaymentProcessed",
      "type": "event"
    },
    {
      "anonymous": false,
      "inputs": [
        {
          "indexed": true,
          "internalType": "uint256",
          "name": "moduleId",
          "type": "uint256"
        },
        {
          "indexed": false,
          "internalType": "uint256",
          "name": "newHbarCost",
          "type": "uint256"
        },
        {
          "indexed": false,
          "internalType": "uint256",
          "name": "newTokenCost",
          "type": "uint256"
        }
      ],
      "name": "PricingAdjusted",
      "type": "event"
    },
    {
      "anonymous": false,
      "inputs": [
        {
          "indexed": true,
          "internalType": "bytes32",
          "name": "role",
          "type": "bytes32"
        },
        {
          "indexed": true,
          "internalType": "bytes32",
          "name": "previousAdminRole",
          "type": "bytes32"
        },
        {
          "indexed": true,
          "internalType": "bytes32",
          "name": "newAdminRole",
          "type": "bytes32"
        }
      ],
      "name": "RoleAdminChanged",
      "type": "event"
    },
    {
      "anonymous": false,
      "inputs": [
        {
          "indexed": true,
          "internalType": "bytes32",
          "name": "role",
          "type": "bytes32"
        },
        {
          "indexed": true,
          "internalType": "address",
          "name": "account",
          "type": "address"
        },
        {
          "indexed": true,
          "internalType": "address",
          "name": "sender",
          "type": "address"
        }
      ],
      "name": "RoleGranted",
      "type": "event"
    },
    {
      "anonymous": false,
      "inputs": [
        {
          "indexed": true,
          "internalType": "bytes32",
          "name": "role",
          "type": "bytes32"
        },
        {
          "indexed": true,
          "internalType": "address",
          "name": "account",
          "type": "address"
        },
        {
          "indexed": true,
          "internalType": "address",
          "name": "sender",
          "type": "address"
        }
      ],
      "name": "RoleRevoked",
      "type": "event"
    },
    {
      "inputs": [],
      "name": "CURRICULUM_MANAGER_ROLE",
      "outputs": [
        {
          "internalType": "bytes32",
          "name": "",
          "type": "bytes32"
        }
      ],
      "stateMutability": "view",
      "type": "function"
    },
    {
      "inputs": [],
      "name": "DEFAULT_ADMIN_ROLE",
      "outputs": [
        {
          "internalType": "bytes32",
          "name": "",
          "type": "bytes32"
        }
      ],
      "stateMutability": "view",
      "type": "function"
    },
    {
      "inputs": [],
      "name": "INSTRUCTOR_ROLE",
      "outputs": [
        {
          "internalType": "bytes32",
          "name": "",
          "type": "bytes32"
        }
      ],
      "stateMutability": "view",
      "type": "function"
    },
    {
      "inputs": [],
      "name": "LEARNER_ROLE",
      "outputs": [
        {
          "internalType": "bytes32",
          "name": "",
          "type": "bytes32"
        }
      ],
      "stateMutability": "view",
      "type": "function"
    },
    {
      "inputs": [],
      "name": "PLATFORM_ADMIN_ROLE",
      "outputs": [
        {
          "internalType": "bytes32",
          "name": "",
          "type": "bytes32"
        }
      ],
      "stateMutability": "view",
      "type": "function"
    },
    {
      "inputs": [
        {
          "internalType": "uint256",
          "name": "moduleId",
          "type": "uint256"
        },
        {
          "internalType": "uint256",
          "name": "newHbarCost",
          "type": "uint256"
        },
        {
          "internalType": "uint256",
          "name": "newTokenCost",
          "type": "uint256"
        }
      ],
      "name": "adjustModulePricing",
      "outputs": [],
      "stateMutability": "nonpayable",
      "type": "function"
    },
    {
      "inputs": [
        {
          "internalType": "address",
          "name": "managerAddress",
          "type": "address"
        }
      ],
      "name": "assignCurriculumManagerRole",
      "outputs": [],
      "stateMutability": "nonpayable",
      "type": "function"
    },
    {
      "inputs": [
        {
          "internalType": "address",
          "name": "instructorAddress",
          "type": "address"
        }
      ],
      "name": "assignInstructorRole",
      "outputs": [],
      "stateMutability": "nonpayable",
      "type": "function"
    },
    {
      "inputs": [
        {
          "internalType": "address",
          "name": "learnerAddress",
          "type": "address"
        }
      ],
      "name": "assignLearnerRole",
      "outputs": [],
      "stateMutability": "nonpayable",
      "type": "function"
    },
    {
      "inputs": [
        {
          "internalType": "uint256",
          "name": "moduleId",
          "type": "uint256"
        },
        {
          "internalType": "address",
          "name": "learnerAddress",
          "type": "address"
        },
        {
          "internalType": "string",
          "name": "credentialURI",
          "type": "string"
        }
      ],
      "name": "completeLearnerModule",
      "outputs": [],
      "stateMutability": "nonpayable",
      "type": "function"
    },
    {
      "inputs": [],
      "name": "credentialNFT",
      "outputs": [
        {
          "internalType": "contract ISkillCredentialNFT",
          "name": "",
          "type": "address"
        }
      ],
      "stateMutability": "view",
      "type": "function"
    },
    {
      "inputs": [],
      "name": "emergencyWithdraw",
      "outputs": [],
      "stateMutability": "nonpayable",
      "type": "function"
    },
    {
      "inputs": [
        {
          "internalType": "uint256",
          "name": "moduleId",
          "type": "uint256"
        }
      ],
      "name": "getModuleParticipantCount",
      "outputs": [
        {
          "internalType": "uint256",
          "name": "",
          "type": "uint256"
        }
      ],
      "stateMutability": "view",
      "type": "function"
    },
    {
      "inputs": [
        {
          "internalType": "uint256",
          "name": "moduleId",
          "type": "uint256"
        }
      ],
      "name": "getModuleParticipants",
      "outputs": [
        {
          "internalType": "address[]",
          "name": "",
          "type": "address[]"
        }
      ],
      "stateMutability": "view",
      "type": "function"
    },
    {
      "inputs": [
        {
          "internalType": "bytes32",
          "name": "role",
          "type": "bytes32"
        }
      ],
      "name": "getRoleAdmin",
      "outputs": [
        {
          "internalType": "bytes32",
          "name": "",
          "type": "bytes32"
        }
      ],
      "stateMutability": "view",
      "type": "function"
    },
    {
      "inputs": [
        {
          "internalType": "bytes32",
          "name": "role",
          "type": "bytes32"
        },
        {
          "internalType": "address",
          "name": "account",
          "type": "address"
        }
      ],
      "name": "grantRole",
      "outputs": [],
      "stateMutability": "nonpayable",
      "type": "function"
    },
    {
      "inputs": [
        {
          "internalType": "uint256",
          "name": "",
          "type": "uint256"
        },
        {
          "internalType": "address",
          "name": "",
          "type": "address"
        }
      ],
      "name": "hasLearnerJoined",
      "outputs": [
        {
          "internalType": "bool",
          "name": "",
          "type": "bool"
        }
      ],
      "stateMutability": "view",
      "type": "function"
    },
    {
      "inputs": [
        {
          "internalType": "bytes32",
          "name": "role",
          "type": "bytes32"
        },
        {
          "internalType": "address",
          "name": "account",
          "type": "address"
        }
      ],
      "name": "hasRole",
      "outputs": [
        {
          "internalType": "bool",
          "name": "",
          "type": "bool"
        }
      ],
      "stateMutability": "view",
      "type": "function"
    },
    {
      "inputs": [
        {
          "internalType": "string",
          "name": "_moduleName",
          "type": "string"
        },
        {
          "internalType": "string",
          "name": "_moduleDetails",
          "type": "string"
        },
        {
          "internalType": "uint256",
          "name": "_hbarCost",
          "type": "uint256"
        },
        {
          "internalType": "uint256",
          "name": "_tokenCost",
          "type": "uint256"
        }
      ],
      "name": "launchLearningModule",
      "outputs": [],
      "stateMutability": "nonpayable",
      "type": "function"
    },
    {
      "inputs": [
        {
          "internalType": "address",
          "name": "",
          "type": "address"
        },
        {
          "internalType": "uint256",
          "name": "",
          "type": "uint256"
        }
      ],
      "name": "learnerProgressData",
      "outputs": [
        {
          "internalType": "string",
          "name": "finalScore",
          "type": "string"
        },
        {
          "internalType": "string",
          "name": "instructorFeedback",
          "type": "string"
        },
        {
          "internalType": "bool",
          "name": "isFinished",
          "type": "bool"
        },
        {
          "internalType": "bool",
          "name": "hasCredential",
          "type": "bool"
        }
      ],
      "stateMutability": "view",
      "type": "function"
    },
    {
      "inputs": [
        {
          "internalType": "uint256",
          "name": "",
          "type": "uint256"
        }
      ],
      "name": "learningModules",
      "outputs": [
        {
          "internalType": "string",
          "name": "moduleName",
          "type": "string"
        },
        {
          "internalType": "string",
          "name": "moduleDetails",
          "type": "string"
        },
        {
          "internalType": "address",
          "name": "moduleInstructor",
          "type": "address"
        },
        {
          "internalType": "uint256",
          "name": "hbarCost",
          "type": "uint256"
        },
        {
          "internalType": "uint256",
          "name": "tokenCost",
          "type": "uint256"
        },
        {
          "internalType": "bool",
          "name": "isActive",
          "type": "bool"
        },
        {
          "internalType": "bool",
          "name": "isAvailable",
          "type": "bool"
        },
        {
          "internalType": "uint256",
          "name": "launchTimestamp",
          "type": "uint256"
        },
        {
          "internalType": "uint256",
          "name": "modificationTimestamp",
          "type": "uint256"
        }
      ],
      "stateMutability": "view",
      "type": "function"
    },
    {
      "inputs": [],
      "name": "moduleIdCounter",
      "outputs": [
        {
          "internalType": "uint256",
          "name": "",
          "type": "uint256"
        }
      ],
      "stateMutability": "view",
      "type": "function"
    },
    {
      "inputs": [
        {
          "internalType": "uint256",
          "name": "moduleId",
          "type": "uint256"
        }
      ],
      "name": "registerWithHBAR",
      "outputs": [],
      "stateMutability": "payable",
      "type": "function"
    },
    {
      "inputs": [
        {
          "internalType": "uint256",
          "name": "moduleId",
          "type": "uint256"
        }
      ],
      "name": "registerWithTokens",
      "outputs": [],
      "stateMutability": "nonpayable",
      "type": "function"
    },
    {
      "inputs": [
        {
          "internalType": "bytes32",
          "name": "role",
          "type": "bytes32"
        },
        {
          "internalType": "address",
          "name": "callerConfirmation",
          "type": "address"
        }
      ],
      "name": "renounceRole",
      "outputs": [],
      "stateMutability": "nonpayable",
      "type": "function"
    },
    {
      "inputs": [],
      "name": "revenueWallet",
      "outputs": [
        {
          "internalType": "address",
          "name": "",
          "type": "address"
        }
      ],
      "stateMutability": "view",
      "type": "function"
    },
    {
      "inputs": [
        {
          "internalType": "address",
          "name": "instructorAddress",
          "type": "address"
        }
      ],
      "name": "revokeInstructorRole",
      "outputs": [],
      "stateMutability": "nonpayable",
      "type": "function"
    },
    {
      "inputs": [
        {
          "internalType": "address",
          "name": "learnerAddress",
          "type": "address"
        }
      ],
      "name": "revokeLearnerRole",
      "outputs": [],
      "stateMutability": "nonpayable",
      "type": "function"
    },
    {
      "inputs": [
        {
          "internalType": "bytes32",
          "name": "role",
          "type": "bytes32"
        },
        {
          "internalType": "address",
          "name": "account",
          "type": "address"
        }
      ],
      "name": "revokeRole",
      "outputs": [],
      "stateMutability": "nonpayable",
      "type": "function"
    },
    {
      "inputs": [],
      "name": "skillToken",
      "outputs": [
        {
          "internalType": "contract IERC20",
          "name": "",
          "type": "address"
        }
      ],
      "stateMutability": "view",
      "type": "function"
    },
    {
      "inputs": [
        {
          "internalType": "bytes4",
          "name": "interfaceId",
          "type": "bytes4"
        }
      ],
      "name": "supportsInterface",
      "outputs": [
        {
          "internalType": "bool",
          "name": "",
          "type": "bool"
        }
      ],
      "stateMutability": "view",
      "type": "function"
    },
    {
      "inputs": [
        {
          "internalType": "address",
          "name": "newCredentialNFT",
          "type": "address"
        }
      ],
      "name": "updateCredentialNFT",
      "outputs": [],
      "stateMutability": "nonpayable",
      "type": "function"
    },
    {
      "inputs": [
        {
          "internalType": "uint256",
          "name": "moduleId",
          "type": "uint256"
        },
        {
          "internalType": "address",
          "name": "learnerAddress",
          "type": "address"
        },
        {
          "internalType": "string",
          "name": "score",
          "type": "string"
        },
        {
          "internalType": "string",
          "name": "feedback",
          "type": "string"
        }
      ],
      "name": "updateLearnerProgress",
      "outputs": [],
      "stateMutability": "nonpayable",
      "type": "function"
    },
    {
      "inputs": [
        {
          "internalType": "uint256",
          "name": "moduleId",
          "type": "uint256"
        },
        {
          "internalType": "bool",
          "name": "availability",
          "type": "bool"
        }
      ],
      "name": "updateModuleAvailability",
      "outputs": [],
      "stateMutability": "nonpayable",
      "type": "function"
    },
    {
      "inputs": [
        {
          "internalType": "address",
          "name": "newWallet",
          "type": "address"
        }
      ],
      "name": "updateRevenueWallet",
      "outputs": [],
      "stateMutability": "nonpayable",
      "type": "function"
    },
    {
      "inputs": [
        {
          "internalType": "address",
          "name": "newSkillToken",
          "type": "address"
        }
      ],
      "name": "updateSkillToken",
      "outputs": [],
      "stateMutability": "nonpayable",
      "type": "function"
    },
    {
      "inputs": [],
      "name": "withdrawContractHBAR",
      "outputs": [],
      "stateMutability": "nonpayable",
      "type": "function"
    },
    {
      "inputs": [],
      "name": "withdrawContractTokens",
      "outputs": [],
      "stateMutability": "nonpayable",
      "type": "function"
    },
    {
      "inputs": [
        {
          "internalType": "uint256",
          "name": "moduleId",
          "type": "uint256"
        },
        {
          "internalType": "address",
          "name": "learnerAddress",
          "type": "address"
        }
      ],
      "name": "withdrawCredential",
      "outputs": [],
      "stateMutability": "nonpayable",
      "type": "function"
    }
  ],
  "bytecode": "0x6080346101b357601f612b4838819003918201601f19168301916001600160401b038311848410176101b8578084926060946040528339810103126101b357610047816101ce565b61005f6040610058602085016101ce565b93016101ce565b6001600160a01b0390911691821561016e576001600160a01b0316908115610129576001600160a01b03169182156100e45761009a336101e2565b506100a43361025e565b5060018060a01b0319600154161760015560018060a01b0319600254161760025560018060a01b031960035416176003556040516127f190816102f78239f35b60405162461bcd60e51b815260206004820152601e60248201527f496e76616c696420726576656e75652077616c6c6574206164647265737300006044820152606490fd5b60405162461bcd60e51b815260206004820152601e60248201527f496e76616c69642063726564656e7469616c204e4654206164647265737300006044820152606490fd5b60405162461bcd60e51b815260206004820152601b60248201527f496e76616c696420736b696c6c20746f6b656e206164647265737300000000006044820152606490fd5b600080fd5b634e487b7160e01b600052604160045260246000fd5b51906001600160a01b03821682036101b357565b6001600160a01b0381166000908152600080516020612b28833981519152602052604090205460ff16610258576001600160a01b03166000818152600080516020612b2883398151915260205260408120805460ff19166001179055339190600080516020612ae88339815191528180a4600190565b50600090565b6001600160a01b0381166000908152600080516020612b08833981519152602052604090205460ff16610258576001600160a01b03166000818152600080516020612b0883398151915260205260408120805460ff191660011790553391907f5246556c0ab216b5b325ad7c539bfbd1a07c768773cdf810fecd3c3375c2740790600080516020612ae88339815191529080a460019056fe6080604052600436101561001257600080fd5b60003560e01c806301bd4b9b14611cb357806301ffc9a714611c5d57806304c2e3db14611bd0578063052c8f7e14611b4a5780631dede5d314611b0d57806323c7403b14611a58578063248a9ca314611a2357806324c11ae0146119e65780632e5d9a44146119bd5780632f2ff15d1461197d5780632f59262d1461151b5780632fe471631461139157806330d213391461137357806336568abe1461132d5780634447842514611304578063452898de1461112757806352f09158146110ea578063685d34ff146110af5780637bb632aa146110225780637df82a3714610f2157806386eeed2114610c3d57806386f8e92c14610c145780638bcf979c14610beb57806391d1485414610b9e5780639279bb6f14610ade578063934fcd1b14610ab5578063a217fddf14610a99578063aae326d214610a70578063aba5045b14610a35578063bb6c1cc3146109e8578063c9794b0c146108e6578063ca2df6b61461080f578063d1ebdfd3146107e6578063d547741f146107a1578063db2e21bc14610722578063e5b99ddc1461051e578063e61edca8146102b5578063f4b48d21146101fa5763fe38cf68146101c957600080fd5b346101f55760203660031901126101f55760043560005260066020526020604060002054604051908152f35b600080fd5b346101f55760403660031901126101f5576001600160a01b0361021b611d7b565b166000526007602052604060002060243560005260205261028d6040600020604051906102538261024c8184611e0e565b0383611e91565b60ff61029b6002604051936102768561026f8160018501611e0e565b0386611e91565b015492604051958695608087526080870190611eb2565b908582036020870152611eb2565b918181161515604085015260081c16151560608301520390f35b346101f55760603660031901126101f5576004356102d1611d91565b6044356001600160401b0381116101f5576102f0903690600401611da7565b909183600052600560205261030f60ff600560406000200154166120e1565b83600052600560205261033360018060a01b0360026040600020015416331461212d565b836000526008602052604060002060018060a01b03821660005260205260ff60406000205416156104e05760018060a01b031691826000526007602052604060002084600052602052600260406000200191825460ff81166104905760ff1916600117808455604051929060ff9087877f2c0ce65b655b0ba8be534f01cbff0fc2c1ea2763ded943b48d726d4ad5ea4a29600080a360081c161580610487575b6103d957005b60209183600081610411819560018060a01b036002541695624f903360e41b84528b6004850152604060248501526044840191611fd5565b03925af19081610458575b50610424575b005b805461ff0019166101001790557fd055e65e60f4f152227c84f04fb4dba4466f6eea9384ccdaab2bed38b0ea279c600080a3005b6020813d60201161047f575b8161047160209383611e91565b810103126101f5575161041c565b3d9150610464565b508115156103d3565b60405162461bcd60e51b815260206004820152602260248201527f4d6f64756c6520616c7265616479206d61726b656420617320636f6d706c6574604482015261195960f21b6064820152608490fd5b60405162461bcd60e51b81526020600482015260166024820152751319585c9b995c881b9bdd081c9959da5cdd195c995960521b6044820152606490fd5b346101f55760203660031901126101f55760043561053a61224c565b8060005260056020526040600020610561600582015460ff81169081610714575b5061200e565b60008281526008602090815260408083203384529091529020546105889060ff161561205a565b600154600354600492830180546040516323b872dd60e01b815233958101959095526001600160a01b0392831660248601526044850152929160209183916064918391600091165af1908115610708576000916106d9575b5015610694578160005260066020526105fd3360406000206126ca565b506000828152600860209081526040808320338085529252808320805460ff191660011790555192918491907f5ecad4163e9c4372d67b7a3f1f3cdbcda6ed716640732e27aca0525e38d9f0c59080a35481526040602082015260056040820152642a27a5a2a760d91b60608201527f95b5e012d1d8d516107c00050740b69fc0a4eec5c057173f7d31acdeeb96225460803392a3005b60405162461bcd60e51b815260206004820152601d60248201527f546f6b656e207061796d656e74207472616e73666572206661696c65640000006044820152606490fd5b6106fb915060203d602011610701575b6106f38183611e91565b810190611ff6565b836105e0565b503d6106e9565b6040513d6000823e3d90fd5b60ff915060081c168461055b565b346101f55760003660031901126101f55761073b6121f9565b478061074357005b600080808093335af16107546120b1565b501561075c57005b60405162461bcd60e51b815260206004820152601b60248201527f456d657267656e6379207769746864726177616c206661696c656400000000006044820152606490fd5b346101f55760403660031901126101f5576104226004356107c0611d91565b906107e16107dc82600052600060205260016040600020015490565b61229a565b612648565b346101f55760003660031901126101f5576001546040516001600160a01b039091168152602090f35b346101f55760203660031901126101f55760043560005260056020526108a46040600020604051906108458261024c8184611e0e565b604051610860816108598160018601611e0e565b0382611e91565b60018060a01b036002830154169160ff600382015460048301546005840154916108b260076006870154960154966040519a8b9a6101208c526101208c0190611eb2565b908a820360208c0152611eb2565b96604089015260608801526080870152818116151560a087015260081c16151560c085015260e08401526101008301520390f35b346101f55760403660031901126101f557600435610902611d91565b81600052600560205261091f60ff600560406000200154166120e1565b81600052600560205261094360018060a01b0360026040600020015416331461212d565b60018060a01b03168060005260076020526040600020826000526020526002604060002001805460ff8160081c16156109a45761ff00191690557fa7c636616f9ca00d6f009533d3530e03220839e04338cbf603bf015a61b9d330600080a3005b606460405162461bcd60e51b815260206004820152602060248201527f4e6f2063726564656e7469616c2065786973747320746f2077697468647261776044820152fd5b346101f55760403660031901126101f557610a01611d91565b600435600052600860205260406000209060018060a01b0316600052602052602060ff604060002054166040519015158152f35b346101f55760003660031901126101f55760206040517f8fd4e70cecfd2dbab97719ba0cb31a284e3bb93fe5f3213d99b35018c42ee70c8152f35b346101f55760203660031901126101f557610422610a8c611d7b565b610a94612187565b6125b2565b346101f55760003660031901126101f557602060405160008152f35b346101f55760003660031901126101f5576002546040516001600160a01b039091168152602090f35b346101f55760003660031901126101f557610af7612187565b478015610b63576003546000918291829182916001600160a01b03165af1610b1d6120b1565b5015610b2557005b60405162461bcd60e51b815260206004820152601660248201527512109054881dda5d1a191c985dd85b0819985a5b195960521b6044820152606490fd5b60405162461bcd60e51b81526020600482015260136024820152724e6f204842415220746f20776974686472617760681b6044820152606490fd5b346101f55760403660031901126101f557610bb7611d91565b600435600052600060205260406000209060018060a01b0316600052602052602060ff604060002054166040519015158152f35b346101f55760003660031901126101f55760206040516000805160206127a58339815191528152f35b346101f55760203660031901126101f557610422610c30611d7b565b610c38612187565b61251c565b346101f55760803660031901126101f557600435610c59611d91565b906044356001600160401b0381116101f557610c79903690600401611da7565b6064356001600160401b0381116101f557610c98903690600401611da7565b939094816000526005602052610cb860ff600560406000200154166120e1565b816000526005602052610cdc60018060a01b0360026040600020015416331461212d565b816000526008602052604060002060018060a01b03821660005260205260ff6040600020541615610ecd5760018060a01b031660005260076020526040600020906000526020526040600020916001600160401b038211610e4557610d4b82610d458554611dd4565b85611f83565b600090601f8311600114610e66579180610d809260019594600092610e5b575b50508160011b916000199060031b1c19161790565b81555b01906001600160401b038111610e4557610da781610da18454611dd4565b84611f83565b6000601f8211600114610de6578190610dd79394600092610ddb5750508160011b916000199060031b1c19161790565b9055005b013590508480610d6b565b601f198216938382526020822091805b868110610e2d5750836001959610610e13575b505050811b019055005b0135600019600384901b60f8161c19169055838080610e09565b90926020600181928686013581550194019101610df6565b634e487b7160e01b600052604160045260246000fd5b013590508780610d6b565b8382526020822091601f198416815b818110610eb55750916001959492918387959310610e9b575b505050811b018155610d83565b0135600019600384901b60f8161c19169055868080610e8e565b91936020600181928787013581550195019201610e75565b60405162461bcd60e51b815260206004820152602660248201527f4c6561726e6572206e6f74207265676973746572656420666f722074686973206044820152656d6f64756c6560d01b6064820152608490fd5b346101f55760403660031901126101f557600435602435801515908181036101f5577ffd5ae20b91c3dd8ffffc860541d40c0aa6f0b5767437171487e92bf11a2d668d91610fd661100d92856000526005602052610f8960ff600560406000200154166120e1565b856000526005602052610fad60018060a01b0360026040600020015416331461212d565b85600052600560205260056040600020019061ff00825491151560081b169061ff001916179055565b6000848152600560205260409081902042600782015560038101546004820154925160808082529095869594939091860190611e0e565b926020850152604084015260608301520390a2005b346101f55760203660031901126101f55761103b611d7b565b6110436121f9565b6001600160a01b0316801561106a576001600160601b0360a01b6001541617600155600080f35b60405162461bcd60e51b815260206004820152601b60248201527f496e76616c696420736b696c6c20746f6b656e206164647265737300000000006044820152606490fd5b346101f55760003660031901126101f55760206040517f5246556c0ab216b5b325ad7c539bfbd1a07c768773cdf810fecd3c3375c274078152f35b346101f55760203660031901126101f557610422611106611d7b565b61110e612187565b6111226001600160a01b0382161515611ef3565b6123e7565b60203660031901126101f55760043561113e61224c565b80600052600560205260036040600020611166600582015460ff811690816112f6575061200e565b600083815260086020908152604080832033845290915290205461118d9060ff161561205a565b015434106112b1578060005260066020526111ac3360406000206126ca565b506000818152600860209081526040808320338085529252808320805460ff1916600117905551918391907f5ecad4163e9c4372d67b7a3f1f3cdbcda6ed716640732e27aca0525e38d9f0c59080a3348152604060208201526004604082015263242120a960e11b60608201527f95b5e012d1d8d516107c00050740b69fc0a4eec5c057173f7d31acdeeb96225460803392a360008080803460018060a01b03600354165af161125a6120b1565b501561126257005b60405162461bcd60e51b815260206004820152602160248201527f5472616e7366657220746f20726576656e75652077616c6c6574206661696c656044820152601960fa1b6064820152608490fd5b60405162461bcd60e51b815260206004820152601960248201527f496e73756666696369656e742048424152207061796d656e74000000000000006044820152606490fd5b60ff915060081c168561055b565b346101f55760003660031901126101f5576003546040516001600160a01b039091168152602090f35b346101f55760403660031901126101f557611346611d91565b336001600160a01b038216036113625761042290600435612648565b63334bd91960e11b60005260046000fd5b346101f55760003660031901126101f5576020600454604051908152f35b346101f55760003660031901126101f5576113aa612187565b6001546040516370a0823160e01b81523060048201526001600160a01b0390911690602081602481855afa908115610708576000916114e6575b50801561149657602090604460018060a01b03600354166000604051958694859363a9059cbb60e01b8552600485015260248401525af190811561070857600091611477575b501561143257005b60405162461bcd60e51b815260206004820152601760248201527f546f6b656e207769746864726177616c206661696c65640000000000000000006044820152606490fd5b611490915060203d602011610701576106f38183611e91565b8161142a565b60405162461bcd60e51b815260206004820152602260248201527f4e6f20746f6b656e7320617661696c61626c6520666f72207769746864726177604482015261185b60f21b6064820152608490fd5b906020823d602011611513575b8161150060209383611e91565b81010312611510575051826113e4565b80fd5b3d91506114f3565b346101f55760803660031901126101f5576004356001600160401b0381116101f55761154b903690600401611da7565b906024356001600160401b0381116101f55761156b903690600401611da7565b3360009081526000805160206127c583398151915260205260409020549093919060ff16156119565781156119115783156118cc5760045460001981146118b6576001019384600455604051916101208301918383106001600160401b03841117610e45576115eb926040526115e2368688611f4c565b84523691611f4c565b60208201908152604082013381526060830160443581526080840190606435825260a08501916001835260c08601916001835260e08701944286526101008801964288528b6000526005602052604060002098518051906001600160401b038211610e45576116648261165e8d54611dd4565b8d611f83565b602090601f831160011461184f576116949291600091836118445750508160011b916000199060031b1c19161790565b89555b51805160018a01916001600160401b038211610e45576116bb82610d458554611dd4565b602090601f83116001146117ab579261171d837f3aa6918459f875feb4ae35ea9bd5934b8fe6d0e7837b3a1c5b64ee762fd34f169f9e9d9c9a979460079c9a979461177a9a976000926117a05750508160011b916000199060031b1c19161790565b90555b5160028a0180546001600160a01b039092166001600160a01b03199092169190911790555160038901555160048801559051600587018054925161ff0090151560081b1691151560ff1661ffff1990931692909217179055565b5160068401555191015561179b604051928392602084526020840191611fd5565b0390a2005b015190503880610d6b565b90601f1983169184600052816000209260005b81811061182c5750937f3aa6918459f875feb4ae35ea9bd5934b8fe6d0e7837b3a1c5b64ee762fd34f169f9e9d9c9a97949361177a9996936001938360079f9d9a9710611813575b505050811b019055611720565b015160001960f88460031b161c19169055388080611806565b929360206001819287860151815501950193016117be565b015190508f80610d6b565b90601f198316918c600052816000209260005b81811061189e5750908460019594939210611885575b505050811b018955611697565b015160001960f88460031b161c191690558e8080611878565b92936020600181928786015181550195019301611862565b634e487b7160e01b600052601160045260246000fd5b60405162461bcd60e51b815260206004820152601e60248201527f4d6f64756c652064657461696c732063616e6e6f7420626520656d70747900006044820152606490fd5b60405162461bcd60e51b815260206004820152601b60248201527f4d6f64756c65206e616d652063616e6e6f7420626520656d70747900000000006044820152606490fd5b63e2517d3f60e01b600052336004526000805160206127a583398151915260245260446000fd5b346101f55760403660031901126101f55761042260043561199c611d91565b906119b86107dc82600052600060205260016040600020015490565b6124a3565b346101f55760003660031901126101f55760206040516000805160206127858339815191528152f35b346101f55760203660031901126101f557610422611a02611d7b565b611a0a612187565b611a1e6001600160a01b0382161515611ef3565b612361565b346101f55760203660031901126101f5576020611a50600435600052600060205260016040600020015490565b604051908152f35b346101f55760203660031901126101f557600435600052600660205260406000206040518060208354918281520190819360005260206000209060005b818110611af75750505081611aab910382611e91565b6040519182916020830190602084525180915260408301919060005b818110611ad5575050500390f35b82516001600160a01b0316845285945060209384019390920191600101611ac7565b8254845260209093019260019283019201611a95565b346101f55760203660031901126101f557610422611b29611d7b565b611b31612187565b611b456001600160a01b0382161515611ef3565b6122d5565b346101f55760203660031901126101f557611b63611d7b565b611b6b612187565b6001600160a01b03168015611b92576001600160601b0360a01b6003541617600355600080f35b60405162461bcd60e51b8152602060048201526016602482015275496e76616c69642077616c6c6574206164647265737360501b6044820152606490fd5b346101f55760203660031901126101f557611be9611d7b565b611bf16121f9565b6001600160a01b03168015611c18576001600160601b0360a01b6002541617600255600080f35b60405162461bcd60e51b815260206004820152601e60248201527f496e76616c69642063726564656e7469616c204e4654206164647265737300006044820152606490fd5b346101f55760203660031901126101f55760043563ffffffff60e01b81168091036101f557602090637965db0b60e01b8114908115611ca2575b506040519015158152f35b6301ffc9a760e01b14905082611c97565b346101f55760603660031901126101f557600435602435604435611cd5612187565b82600052600560205260ff6005604060002001541615611d3e576000838152600560209081526040918290206003810185905560040183905581519384528301919091527fd4ad59346d49c507b7e73cd554ec7e5a2d104a60de6edda37a9d4b4c19a04e5291a2005b60405162461bcd60e51b8152602060048201526015602482015274135bd91d5b1948191bd95cc81b9bdd08195e1a5cdd605a1b6044820152606490fd5b600435906001600160a01b03821682036101f557565b602435906001600160a01b03821682036101f557565b9181601f840112156101f5578235916001600160401b0383116101f557602083818601950101116101f557565b90600182811c92168015611e04575b6020831014611dee57565b634e487b7160e01b600052602260045260246000fd5b91607f1691611de3565b60009291815491611e1e83611dd4565b8083529260018116908115611e745750600114611e3a57505050565b60009081526020812093945091925b838310611e5a575060209250010190565b600181602092949394548385870101520191019190611e49565b915050602093945060ff929192191683830152151560051b010190565b90601f801991011681019081106001600160401b03821117610e4557604052565b919082519283825260005b848110611ede575050826000602080949584010152601f8019910116010190565b80602080928401015182828601015201611ebd565b15611efa57565b60405162461bcd60e51b815260206004820152600f60248201526e496e76616c6964206164647265737360881b6044820152606490fd5b6001600160401b038111610e4557601f01601f191660200190565b929192611f5882611f31565b91611f666040519384611e91565b8294818452818301116101f5578281602093846000960137010152565b601f8211611f9057505050565b6000526020600020906020601f840160051c83019310611fcb575b601f0160051c01905b818110611fbf575050565b60008155600101611fb4565b9091508190611fab565b908060209392818452848401376000828201840152601f01601f1916010190565b908160209103126101f5575180151581036101f55790565b1561201557565b60405162461bcd60e51b815260206004820152601e60248201527f4d6f64756c6520756e617661696c61626c65206f7220696e61637469766500006044820152606490fd5b1561206157565b60405162461bcd60e51b815260206004820152602260248201527f416c7265616479207265676973746572656420666f722074686973206d6f64756044820152616c6560f01b6064820152608490fd5b3d156120dc573d906120c282611f31565b916120d06040519384611e91565b82523d6000602084013e565b606090565b156120e857565b60405162461bcd60e51b815260206004820152601e60248201527f4c6561726e696e67206d6f64756c6520646f6573206e6f7420657869737400006044820152606490fd5b1561213457565b60405162461bcd60e51b815260206004820152602560248201527f4163636573732064656e696564202d206e6f74206d6f64756c6520696e7374726044820152643ab1ba37b960d91b6064820152608490fd5b3360009081527f0790b0aaeb4157b4822815d95bf3d9318a1561c876c520e6cca704be6f4d63a6602052604090205460ff16156121c057565b63e2517d3f60e01b600052336004527f5246556c0ab216b5b325ad7c539bfbd1a07c768773cdf810fecd3c3375c2740760245260446000fd5b3360009081527fad3228b676f7d3cd4284a5443f17f1962b36e491b30a40b2405849e597ba5fb5602052604090205460ff161561223257565b63e2517d3f60e01b60005233600452600060245260446000fd5b336000908152600080516020612765833981519152602052604090205460ff161561227357565b63e2517d3f60e01b6000523360045260008051602061278583398151915260245260446000fd5b60008181526020818152604080832033845290915290205460ff16156122bd5750565b63e2517d3f60e01b6000523360045260245260446000fd5b6001600160a01b0381166000908152600080516020612765833981519152602052604090205460ff1661235b576001600160a01b0316600081815260008051602061276583398151915260205260408120805460ff19166001179055339190600080516020612785833981519152906000805160206127458339815191529080a4600190565b50600090565b6001600160a01b03811660009081526000805160206127c5833981519152602052604090205460ff1661235b576001600160a01b031660008181526000805160206127c583398151915260205260408120805460ff191660011790553391906000805160206127a5833981519152906000805160206127458339815191529080a4600190565b6001600160a01b03811660009081527fefbe634b49b7841cf62332668bbaa03cb828c2dc4d9be7438f6c7ce7942319ba602052604090205460ff1661235b576001600160a01b031660008181527fefbe634b49b7841cf62332668bbaa03cb828c2dc4d9be7438f6c7ce7942319ba60205260408120805460ff191660011790553391907f8fd4e70cecfd2dbab97719ba0cb31a284e3bb93fe5f3213d99b35018c42ee70c906000805160206127458339815191529080a4600190565b6000818152602081815260408083206001600160a01b038616845290915290205460ff16612515576000818152602081815260408083206001600160a01b0395909516808452949091528120805460ff19166001179055339291906000805160206127458339815191529080a4600190565b5050600090565b6001600160a01b03811660009081526000805160206127c5833981519152602052604090205460ff161561235b576001600160a01b031660008181526000805160206127c583398151915260205260408120805460ff191690553391906000805160206127a5833981519152907ff6391f5c32d9c69d2a47ea670b442974b53935d1edc7fd64eb21e047a839171b9080a4600190565b6001600160a01b0381166000908152600080516020612765833981519152602052604090205460ff161561235b576001600160a01b0316600081815260008051602061276583398151915260205260408120805460ff19169055339190600080516020612785833981519152907ff6391f5c32d9c69d2a47ea670b442974b53935d1edc7fd64eb21e047a839171b9080a4600190565b6000818152602081815260408083206001600160a01b038616845290915290205460ff1615612515576000818152602081815260408083206001600160a01b0395909516808452949091528120805460ff19169055339291907ff6391f5c32d9c69d2a47ea670b442974b53935d1edc7fd64eb21e047a839171b9080a4600190565b600181019082600052816020526040600020541560001461273c57805468010000000000000000811015610e45576001810180835581101561272657839082600052602060002001555491600052602052604060002055600190565b634e487b7160e01b600052603260045260246000fd5b50505060009056fe2f8788117e7eff1d82e926ec794901d17c78024a50270940304540a733656f0dceb6c9c2732f433d7d17f99e83ef44670c7dc53ec66058405da3175f5acb3688fd87ecfb3c6109e8218d601d5ce7e29b2f140acd1e2354ba6b44435d2349b142ae4a0595970935aa5495afbbb72e5f1f6ff1062766b4a3028c0c9b7d5cf7e3454e976f336da332f5f8605fdafcb6e0580894a3d4749f285b209c6ae59bfb7481a164736f6c634300081c000a2f8788117e7eff1d82e926ec794901d17c78024a50270940304540a733656f0d0790b0aaeb4157b4822815d95bf3d9318a1561c876c520e6cca704be6f4d63a6ad3228b676f7d3cd4284a5443f17f1962b36e491b30a40b2405849e597ba5fb5",
  "linkReferences": {},
  "deployedLinkReferences": {}
}