{
  "_format": "hh-sol-artifact-1",
  "contractName": "TimedVault",
  "sourceName": "contracts/TimedVault.sol",
  "abi": [
    {
      "inputs": [
        {
          "internalType": "uint256",
          "name": "_releaseTimestamp",
          "type": "uint256"
        }
      ],
      "stateMutability": "payable",
      "type": "constructor"
    },
    {
      "anonymous": false,
      "inputs": [
        {
          "indexed": false,
          "internalType": "uint256",
          "name": "withdrawnAmount",
          "type": "uint256"
        },
        {
          "indexed": false,
          "internalType": "uint256",
          "name": "withdrawalTime",
          "type": "uint256"
        }
      ],
      "name": "FundsWithdrawn",
      "type": "event"
    },
    {
      "inputs": [],
      "name": "releaseTimestamp",
      "outputs": [
        {
          "internalType": "uint256",
          "name": "",
          "type": "uint256"
        }
      ],
      "stateMutability": "view",
      "type": "function"
    },
    {
      "inputs": [],
      "name": "vaultOwner",
      "outputs": [
        {
          "internalType": "address payable",
          "name": "",
          "type": "address"
        }
      ],
      "stateMutability": "view",
      "type": "function"
    },
    {
      "inputs": [],
      "name": "withdrawFunds",
      "outputs": [],
      "stateMutability": "nonpayable",
      "type": "function"
    }
  ],
  "bytecode": "0x60806040526040516105fe3803806105fe833981810160405281019061002591906100f0565b804210610067576040517f08c379a000000000000000000000000000000000000000000000000000000000815260040161005e906101a0565b60405180910390fd5b8060008190555033600160006101000a81548173ffffffffffffffffffffffffffffffffffffffff021916908373ffffffffffffffffffffffffffffffffffffffff160217905550506101c0565b600080fd5b6000819050919050565b6100cd816100ba565b81146100d857600080fd5b50565b6000815190506100ea816100c4565b92915050565b600060208284031215610106576101056100b5565b5b6000610114848285016100db565b91505092915050565b600082825260208201905092915050565b7f52656c656173652074696d652073686f756c6420626520696e2074686520667560008201527f7475726500000000000000000000000000000000000000000000000000000000602082015250565b600061018a60248361011d565b91506101958261012e565b604082019050919050565b600060208201905081810360008301526101b98161017d565b9050919050565b61042f806101cf6000396000f3fe608060405234801561001057600080fd5b50600436106100415760003560e01c80630a3f013f146100465780631f52692b1461006457806324600fc314610082575b600080fd5b61004e61008c565b60405161005b919061024a565b60405180910390f35b61006c610092565b60405161007991906102a6565b60405180910390f35b61008a6100b8565b005b60005481565b600160009054906101000a900473ffffffffffffffffffffffffffffffffffffffff1681565b6000544210156100fd576040517f08c379a00000000000000000000000000000000000000000000000000000000081526004016100f49061031e565b60405180910390fd5b600160009054906101000a900473ffffffffffffffffffffffffffffffffffffffff1673ffffffffffffffffffffffffffffffffffffffff163373ffffffffffffffffffffffffffffffffffffffff161461018d576040517f08c379a0000000000000000000000000000000000000000000000000000000008152600401610184906103b0565b60405180910390fd5b7fd66662c0ded9e58fd31d5e44944bcfd07ffc15e6927ecc1382e7941cb7bd24c447426040516101be9291906103d0565b60405180910390a1600160009054906101000a900473ffffffffffffffffffffffffffffffffffffffff1673ffffffffffffffffffffffffffffffffffffffff166108fc479081150290604051600060405180830381858888f1935050505015801561022e573d6000803e3d6000fd5b50565b6000819050919050565b61024481610231565b82525050565b600060208201905061025f600083018461023b565b92915050565b600073ffffffffffffffffffffffffffffffffffffffff82169050919050565b600061029082610265565b9050919050565b6102a081610285565b82525050565b60006020820190506102bb6000830184610297565b92915050565b600082825260208201905092915050565b7f46756e647320617265207374696c6c206c6f636b656400000000000000000000600082015250565b60006103086016836102c1565b9150610313826102d2565b602082019050919050565b60006020820190508181036000830152610337816102fb565b9050919050565b7f4f6e6c7920746865207661756c74206f776e65722063616e207769746864726160008201527f7700000000000000000000000000000000000000000000000000000000000000602082015250565b600061039a6021836102c1565b91506103a58261033e565b604082019050919050565b600060208201905081810360008301526103c98161038d565b9050919050565b60006040820190506103e5600083018561023b565b6103f2602083018461023b565b939250505056fea264697066735822122062353124499c4da634395f9bb76f573726a156746897695ff02be55f790b9ce564736f6c634300081c0033",
  "linkReferences": {},
  "deployedLinkReferences": {}
}