{
  "_format": "hh-sol-artifact-1",
  "contractName": "TimedVault",
  "sourceName": "contracts/TimedVault.sol",
  "abi": [
    {
      "inputs": [
        {
          "internalType": "uint256",
          "name": "_releaseTimestamp",
          "type": "uint256"
        }
      ],
      "stateMutability": "payable",
      "type": "constructor"
    },
    {
      "anonymous": false,
      "inputs": [
        {
          "indexed": false,
          "internalType": "address",
          "name": "depositor",
          "type": "address"
        },
        {
          "indexed": false,
          "internalType": "uint256",
          "name": "amount",
          "type": "uint256"
        }
      ],
      "name": "FundsDeposited",
      "type": "event"
    },
    {
      "anonymous": false,
      "inputs": [
        {
          "indexed": false,
          "internalType": "uint256",
          "name": "withdrawnAmount",
          "type": "uint256"
        },
        {
          "indexed": false,
          "internalType": "uint256",
          "name": "withdrawalTime",
          "type": "uint256"
        }
      ],
      "name": "FundsWithdrawn",
      "type": "event"
    },
    {
      "inputs": [],
      "name": "getBalance",
      "outputs": [
        {
          "internalType": "uint256",
          "name": "",
          "type": "uint256"
        }
      ],
      "stateMutability": "view",
      "type": "function"
    },
    {
      "inputs": [],
      "name": "getTimeLeft",
      "outputs": [
        {
          "internalType": "uint256",
          "name": "",
          "type": "uint256"
        }
      ],
      "stateMutability": "view",
      "type": "function"
    },
    {
      "inputs": [],
      "name": "releaseTimestamp",
      "outputs": [
        {
          "internalType": "uint256",
          "name": "",
          "type": "uint256"
        }
      ],
      "stateMutability": "view",
      "type": "function"
    },
    {
      "inputs": [],
      "name": "vaultOwner",
      "outputs": [
        {
          "internalType": "address payable",
          "name": "",
          "type": "address"
        }
      ],
      "stateMutability": "view",
      "type": "function"
    },
    {
      "inputs": [],
      "name": "withdrawFunds",
      "outputs": [],
      "stateMutability": "nonpayable",
      "type": "function"
    },
    {
      "stateMutability": "payable",
      "type": "receive"
    }
  ],
  "bytecode": "0x6080601f61049d38819003918201601f19168301916001600160401b038311848410176101525780849260209460405283398101031261014d5751804210156100fc5780156100a657600055600180546001600160a01b0319163317905534610072575b60405161033490816101698239f35b7f543ba50a5eec5e6178218e364b1d0f396157b3c8fa278522c2cb7fd99407d47460408051338152346020820152a1610063565b60405162461bcd60e51b815260206004820152602860248201527f52656c656173652074696d657374616d70206d75737420626520677265617465604482015267072207468616e20360c41b6064820152608490fd5b60405162461bcd60e51b8152602060048201526024808201527f52656c656173652074696d652073686f756c6420626520696e207468652066756044820152637475726560e01b6064820152608490fd5b600080fd5b634e487b7160e01b600052604160045260246000fdfe608080604052600436101561004c575b50361561001b57600080fd5b7f543ba50a5eec5e6178218e364b1d0f396157b3c8fa278522c2cb7fd99407d47460408051338152346020820152a1005b60003560e01c9081630a3f013f146102d85750806312065fe0146102bc5780631f52692b1461029357806324600fc3146100b85763c7e284b814610090573861000f565b346100b35760003660031901126100b35760206100ab6102f3565b604051908152f35b600080fd5b346100b35760003660031901126100b3576000544210610255576001546001600160a01b03163381900361020657479081156101ca57600080809381937fd66662c0ded9e58fd31d5e44944bcfd07ffc15e6927ecc1382e7941cb7bd24c460408051848152426020820152a15af13d156101c5573d67ffffffffffffffff81116101af5760405190601f8101601f19908116603f0116820167ffffffffffffffff8111838210176101af576040528152600060203d92013e5b1561017857005b60405162461bcd60e51b815260206004820152600f60248201526e151c985b9cd9995c8819985a5b1959608a1b6044820152606490fd5b634e487b7160e01b600052604160045260246000fd5b610171565b60405162461bcd60e51b81526020600482015260146024820152734e6f2066756e647320746f20776974686472617760601b6044820152606490fd5b60405162461bcd60e51b815260206004820152602160248201527f4f6e6c7920746865207661756c74206f776e65722063616e20776974686472616044820152607760f81b6064820152608490fd5b60405162461bcd60e51b8152602060048201526016602482015275119d5b991cc8185c99481cdd1a5b1b081b1bd8dad95960521b6044820152606490fd5b346100b35760003660031901126100b3576001546040516001600160a01b039091168152602090f35b346100b35760003660031901126100b357602047604051908152f35b346100b35760003660031901126100b3576020906000548152f35b600054804210156103215742810390811161030b5790565b634e487b7160e01b600052601160045260246000fd5b5060009056fea164736f6c634300081c000a",
  "linkReferences": {},
  "deployedLinkReferences": {}
}