{
  "_format": "hh-sol-artifact-1",
  "contractName": "AcademicCredentialToken",
  "sourceName": "contracts/AcademicCredentialToken.sol",
  "abi": [
    {
      "inputs": [],
      "stateMutability": "nonpayable",
      "type": "constructor"
    },
    {
      "inputs": [],
      "name": "AccessControlBadConfirmation",
      "type": "error"
    },
    {
      "inputs": [
        {
          "internalType": "address",
          "name": "account",
          "type": "address"
        },
        {
          "internalType": "bytes32",
          "name": "neededRole",
          "type": "bytes32"
        }
      ],
      "name": "AccessControlUnauthorizedAccount",
      "type": "error"
    },
    {
      "inputs": [
        {
          "internalType": "address",
          "name": "sender",
          "type": "address"
        },
        {
          "internalType": "uint256",
          "name": "tokenId",
          "type": "uint256"
        },
        {
          "internalType": "address",
          "name": "owner",
          "type": "address"
        }
      ],
      "name": "ERC721IncorrectOwner",
      "type": "error"
    },
    {
      "inputs": [
        {
          "internalType": "address",
          "name": "operator",
          "type": "address"
        },
        {
          "internalType": "uint256",
          "name": "tokenId",
          "type": "uint256"
        }
      ],
      "name": "ERC721InsufficientApproval",
      "type": "error"
    },
    {
      "inputs": [
        {
          "internalType": "address",
          "name": "approver",
          "type": "address"
        }
      ],
      "name": "ERC721InvalidApprover",
      "type": "error"
    },
    {
      "inputs": [
        {
          "internalType": "address",
          "name": "operator",
          "type": "address"
        }
      ],
      "name": "ERC721InvalidOperator",
      "type": "error"
    },
    {
      "inputs": [
        {
          "internalType": "address",
          "name": "owner",
          "type": "address"
        }
      ],
      "name": "ERC721InvalidOwner",
      "type": "error"
    },
    {
      "inputs": [
        {
          "internalType": "address",
          "name": "receiver",
          "type": "address"
        }
      ],
      "name": "ERC721InvalidReceiver",
      "type": "error"
    },
    {
      "inputs": [
        {
          "internalType": "address",
          "name": "sender",
          "type": "address"
        }
      ],
      "name": "ERC721InvalidSender",
      "type": "error"
    },
    {
      "inputs": [
        {
          "internalType": "uint256",
          "name": "tokenId",
          "type": "uint256"
        }
      ],
      "name": "ERC721NonexistentToken",
      "type": "error"
    },
    {
      "anonymous": false,
      "inputs": [
        {
          "indexed": true,
          "internalType": "address",
          "name": "owner",
          "type": "address"
        },
        {
          "indexed": true,
          "internalType": "address",
          "name": "approved",
          "type": "address"
        },
        {
          "indexed": true,
          "internalType": "uint256",
          "name": "tokenId",
          "type": "uint256"
        }
      ],
      "name": "Approval",
      "type": "event"
    },
    {
      "anonymous": false,
      "inputs": [
        {
          "indexed": true,
          "internalType": "address",
          "name": "owner",
          "type": "address"
        },
        {
          "indexed": true,
          "internalType": "address",
          "name": "operator",
          "type": "address"
        },
        {
          "indexed": false,
          "internalType": "bool",
          "name": "approved",
          "type": "bool"
        }
      ],
      "name": "ApprovalForAll",
      "type": "event"
    },
    {
      "anonymous": false,
      "inputs": [
        {
          "indexed": false,
          "internalType": "uint256",
          "name": "_fromTokenId",
          "type": "uint256"
        },
        {
          "indexed": false,
          "internalType": "uint256",
          "name": "_toTokenId",
          "type": "uint256"
        }
      ],
      "name": "BatchMetadataUpdate",
      "type": "event"
    },
    {
      "anonymous": false,
      "inputs": [
        {
          "indexed": true,
          "internalType": "uint256",
          "name": "credentialId",
          "type": "uint256"
        },
        {
          "indexed": false,
          "internalType": "string",
          "name": "justification",
          "type": "string"
        }
      ],
      "name": "CredentialCancelled",
      "type": "event"
    },
    {
      "anonymous": false,
      "inputs": [
        {
          "indexed": true,
          "internalType": "uint256",
          "name": "credentialId",
          "type": "uint256"
        }
      ],
      "name": "CredentialDestroyed",
      "type": "event"
    },
    {
      "anonymous": false,
      "inputs": [
        {
          "indexed": true,
          "internalType": "address",
          "name": "recipient",
          "type": "address"
        },
        {
          "indexed": true,
          "internalType": "uint256",
          "name": "credentialId",
          "type": "uint256"
        },
        {
          "indexed": false,
          "internalType": "string",
          "name": "documentUri",
          "type": "string"
        }
      ],
      "name": "CredentialIssued",
      "type": "event"
    },
    {
      "anonymous": false,
      "inputs": [
        {
          "indexed": true,
          "internalType": "uint256",
          "name": "credentialId",
          "type": "uint256"
        }
      ],
      "name": "CredentialRedeemed",
      "type": "event"
    },
    {
      "anonymous": false,
      "inputs": [
        {
          "indexed": true,
          "internalType": "uint256",
          "name": "credentialId",
          "type": "uint256"
        }
      ],
      "name": "CredentialValidated",
      "type": "event"
    },
    {
      "anonymous": false,
      "inputs": [
        {
          "indexed": false,
          "internalType": "uint256",
          "name": "_tokenId",
          "type": "uint256"
        }
      ],
      "name": "MetadataUpdate",
      "type": "event"
    },
    {
      "anonymous": false,
      "inputs": [
        {
          "indexed": true,
          "internalType": "uint256",
          "name": "credentialId",
          "type": "uint256"
        },
        {
          "indexed": true,
          "internalType": "address",
          "name": "currentOwner",
          "type": "address"
        },
        {
          "indexed": true,
          "internalType": "address",
          "name": "newOwner",
          "type": "address"
        }
      ],
      "name": "OwnershipChangeRequested",
      "type": "event"
    },
    {
      "anonymous": false,
      "inputs": [
        {
          "indexed": true,
          "internalType": "uint256",
          "name": "credentialId",
          "type": "uint256"
        },
        {
          "indexed": false,
          "internalType": "string",
          "name": "orderId",
          "type": "string"
        }
      ],
      "name": "PrintOrderSubmitted",
      "type": "event"
    },
    {
      "anonymous": false,
      "inputs": [
        {
          "indexed": true,
          "internalType": "bytes32",
          "name": "role",
          "type": "bytes32"
        },
        {
          "indexed": true,
          "internalType": "bytes32",
          "name": "previousAdminRole",
          "type": "bytes32"
        },
        {
          "indexed": true,
          "internalType": "bytes32",
          "name": "newAdminRole",
          "type": "bytes32"
        }
      ],
      "name": "RoleAdminChanged",
      "type": "event"
    },
    {
      "anonymous": false,
      "inputs": [
        {
          "indexed": true,
          "internalType": "bytes32",
          "name": "role",
          "type": "bytes32"
        },
        {
          "indexed": true,
          "internalType": "address",
          "name": "account",
          "type": "address"
        },
        {
          "indexed": true,
          "internalType": "address",
          "name": "sender",
          "type": "address"
        }
      ],
      "name": "RoleGranted",
      "type": "event"
    },
    {
      "anonymous": false,
      "inputs": [
        {
          "indexed": true,
          "internalType": "bytes32",
          "name": "role",
          "type": "bytes32"
        },
        {
          "indexed": true,
          "internalType": "address",
          "name": "account",
          "type": "address"
        },
        {
          "indexed": true,
          "internalType": "address",
          "name": "sender",
          "type": "address"
        }
      ],
      "name": "RoleRevoked",
      "type": "event"
    },
    {
      "anonymous": false,
      "inputs": [
        {
          "indexed": true,
          "internalType": "address",
          "name": "from",
          "type": "address"
        },
        {
          "indexed": true,
          "internalType": "address",
          "name": "to",
          "type": "address"
        },
        {
          "indexed": true,
          "internalType": "uint256",
          "name": "tokenId",
          "type": "uint256"
        }
      ],
      "name": "Transfer",
      "type": "event"
    },
    {
      "inputs": [],
      "name": "DEFAULT_ADMIN_ROLE",
      "outputs": [
        {
          "internalType": "bytes32",
          "name": "",
          "type": "bytes32"
        }
      ],
      "stateMutability": "view",
      "type": "function"
    },
    {
      "inputs": [],
      "name": "INSTRUCTOR_ROLE",
      "outputs": [
        {
          "internalType": "bytes32",
          "name": "",
          "type": "bytes32"
        }
      ],
      "stateMutability": "view",
      "type": "function"
    },
    {
      "inputs": [],
      "name": "ISSUER_ROLE",
      "outputs": [
        {
          "internalType": "bytes32",
          "name": "",
          "type": "bytes32"
        }
      ],
      "stateMutability": "view",
      "type": "function"
    },
    {
      "inputs": [],
      "name": "MANAGER_ROLE",
      "outputs": [
        {
          "internalType": "bytes32",
          "name": "",
          "type": "bytes32"
        }
      ],
      "stateMutability": "view",
      "type": "function"
    },
    {
      "inputs": [
        {
          "internalType": "address",
          "name": "to",
          "type": "address"
        },
        {
          "internalType": "uint256",
          "name": "tokenId",
          "type": "uint256"
        }
      ],
      "name": "approve",
      "outputs": [],
      "stateMutability": "nonpayable",
      "type": "function"
    },
    {
      "inputs": [
        {
          "internalType": "address",
          "name": "owner",
          "type": "address"
        }
      ],
      "name": "balanceOf",
      "outputs": [
        {
          "internalType": "uint256",
          "name": "",
          "type": "uint256"
        }
      ],
      "stateMutability": "view",
      "type": "function"
    },
    {
      "inputs": [
        {
          "internalType": "uint256",
          "name": "credentialId",
          "type": "uint256"
        },
        {
          "internalType": "string",
          "name": "justification",
          "type": "string"
        }
      ],
      "name": "cancelCredential",
      "outputs": [],
      "stateMutability": "nonpayable",
      "type": "function"
    },
    {
      "inputs": [
        {
          "internalType": "uint256",
          "name": "",
          "type": "uint256"
        }
      ],
      "name": "credentialRecords",
      "outputs": [
        {
          "internalType": "string",
          "name": "programTitle",
          "type": "string"
        },
        {
          "internalType": "string",
          "name": "recipientName",
          "type": "string"
        },
        {
          "internalType": "string",
          "name": "achievementLevel",
          "type": "string"
        },
        {
          "internalType": "string",
          "name": "completionDate",
          "type": "string"
        },
        {
          "internalType": "string",
          "name": "documentURI",
          "type": "string"
        },
        {
          "internalType": "uint256",
          "name": "validUntil",
          "type": "uint256"
        },
        {
          "internalType": "string",
          "name": "issuingBody",
          "type": "string"
        }
      ],
      "stateMutability": "view",
      "type": "function"
    },
    {
      "inputs": [
        {
          "internalType": "uint256",
          "name": "",
          "type": "uint256"
        }
      ],
      "name": "credentialRedeemed",
      "outputs": [
        {
          "internalType": "bool",
          "name": "",
          "type": "bool"
        }
      ],
      "stateMutability": "view",
      "type": "function"
    },
    {
      "inputs": [],
      "name": "currentCredentialId",
      "outputs": [
        {
          "internalType": "uint256",
          "name": "",
          "type": "uint256"
        }
      ],
      "stateMutability": "view",
      "type": "function"
    },
    {
      "inputs": [
        {
          "internalType": "uint256",
          "name": "credentialId",
          "type": "uint256"
        }
      ],
      "name": "destroyCredential",
      "outputs": [],
      "stateMutability": "nonpayable",
      "type": "function"
    },
    {
      "inputs": [
        {
          "internalType": "address",
          "name": "",
          "type": "address"
        }
      ],
      "name": "discountQualified",
      "outputs": [
        {
          "internalType": "bool",
          "name": "",
          "type": "bool"
        }
      ],
      "stateMutability": "view",
      "type": "function"
    },
    {
      "inputs": [
        {
          "internalType": "address",
          "name": "referee",
          "type": "address"
        },
        {
          "internalType": "address",
          "name": "referrer",
          "type": "address"
        }
      ],
      "name": "establishReferral",
      "outputs": [],
      "stateMutability": "nonpayable",
      "type": "function"
    },
    {
      "inputs": [
        {
          "internalType": "address",
          "name": "learner",
          "type": "address"
        },
        {
          "internalType": "uint256",
          "name": "programId",
          "type": "uint256"
        }
      ],
      "name": "finishProgram",
      "outputs": [],
      "stateMutability": "nonpayable",
      "type": "function"
    },
    {
      "inputs": [
        {
          "internalType": "uint256",
          "name": "tokenId",
          "type": "uint256"
        }
      ],
      "name": "getApproved",
      "outputs": [
        {
          "internalType": "address",
          "name": "",
          "type": "address"
        }
      ],
      "stateMutability": "view",
      "type": "function"
    },
    {
      "inputs": [
        {
          "internalType": "uint256",
          "name": "programId",
          "type": "uint256"
        }
      ],
      "name": "getProgramInfo",
      "outputs": [
        {
          "components": [
            {
              "internalType": "string",
              "name": "title",
              "type": "string"
            },
            {
              "internalType": "string",
              "name": "facilitator",
              "type": "string"
            },
            {
              "internalType": "string",
              "name": "overview",
              "type": "string"
            },
            {
              "internalType": "uint256",
              "name": "enrollmentCost",
              "type": "uint256"
            }
          ],
          "internalType": "struct AcademicCredentialToken.Program",
          "name": "",
          "type": "tuple"
        }
      ],
      "stateMutability": "view",
      "type": "function"
    },
    {
      "inputs": [
        {
          "internalType": "bytes32",
          "name": "role",
          "type": "bytes32"
        }
      ],
      "name": "getRoleAdmin",
      "outputs": [
        {
          "internalType": "bytes32",
          "name": "",
          "type": "bytes32"
        }
      ],
      "stateMutability": "view",
      "type": "function"
    },
    {
      "inputs": [
        {
          "internalType": "bytes32",
          "name": "role",
          "type": "bytes32"
        },
        {
          "internalType": "address",
          "name": "account",
          "type": "address"
        }
      ],
      "name": "grantRole",
      "outputs": [],
      "stateMutability": "nonpayable",
      "type": "function"
    },
    {
      "inputs": [
        {
          "internalType": "bytes32",
          "name": "role",
          "type": "bytes32"
        },
        {
          "internalType": "address",
          "name": "account",
          "type": "address"
        }
      ],
      "name": "hasRole",
      "outputs": [
        {
          "internalType": "bool",
          "name": "",
          "type": "bool"
        }
      ],
      "stateMutability": "view",
      "type": "function"
    },
    {
      "inputs": [
        {
          "internalType": "address",
          "name": "owner",
          "type": "address"
        },
        {
          "internalType": "address",
          "name": "operator",
          "type": "address"
        }
      ],
      "name": "isApprovedForAll",
      "outputs": [
        {
          "internalType": "bool",
          "name": "",
          "type": "bool"
        }
      ],
      "stateMutability": "view",
      "type": "function"
    },
    {
      "inputs": [
        {
          "internalType": "uint256",
          "name": "credentialId",
          "type": "uint256"
        }
      ],
      "name": "isCredentialExpired",
      "outputs": [
        {
          "internalType": "bool",
          "name": "",
          "type": "bool"
        }
      ],
      "stateMutability": "view",
      "type": "function"
    },
    {
      "inputs": [
        {
          "internalType": "uint256",
          "name": "credentialId",
          "type": "uint256"
        }
      ],
      "name": "isCredentialRedeemed",
      "outputs": [
        {
          "internalType": "bool",
          "name": "",
          "type": "bool"
        }
      ],
      "stateMutability": "view",
      "type": "function"
    },
    {
      "inputs": [
        {
          "internalType": "address",
          "name": "recipient",
          "type": "address"
        },
        {
          "internalType": "string",
          "name": "documentURI",
          "type": "string"
        },
        {
          "internalType": "string",
          "name": "programTitle",
          "type": "string"
        },
        {
          "internalType": "string",
          "name": "recipientName",
          "type": "string"
        },
        {
          "internalType": "string",
          "name": "achievementLevel",
          "type": "string"
        },
        {
          "internalType": "string",
          "name": "completionDate",
          "type": "string"
        },
        {
          "internalType": "uint256",
          "name": "validUntil",
          "type": "uint256"
        },
        {
          "internalType": "string",
          "name": "documentTemplate",
          "type": "string"
        },
        {
          "internalType": "string",
          "name": "issuingBody",
          "type": "string"
        }
      ],
      "name": "issueDiscountedCredential",
      "outputs": [
        {
          "internalType": "uint256",
          "name": "",
          "type": "uint256"
        }
      ],
      "stateMutability": "nonpayable",
      "type": "function"
    },
    {
      "inputs": [
        {
          "internalType": "address",
          "name": "",
          "type": "address"
        },
        {
          "internalType": "uint256",
          "name": "",
          "type": "uint256"
        }
      ],
      "name": "learnerPrograms",
      "outputs": [
        {
          "internalType": "uint256",
          "name": "",
          "type": "uint256"
        }
      ],
      "stateMutability": "view",
      "type": "function"
    },
    {
      "inputs": [],
      "name": "name",
      "outputs": [
        {
          "internalType": "string",
          "name": "",
          "type": "string"
        }
      ],
      "stateMutability": "view",
      "type": "function"
    },
    {
      "inputs": [
        {
          "internalType": "uint256",
          "name": "tokenId",
          "type": "uint256"
        }
      ],
      "name": "ownerOf",
      "outputs": [
        {
          "internalType": "address",
          "name": "",
          "type": "address"
        }
      ],
      "stateMutability": "view",
      "type": "function"
    },
    {
      "inputs": [
        {
          "internalType": "uint256",
          "name": "",
          "type": "uint256"
        }
      ],
      "name": "programRegistry",
      "outputs": [
        {
          "internalType": "string",
          "name": "title",
          "type": "string"
        },
        {
          "internalType": "string",
          "name": "facilitator",
          "type": "string"
        },
        {
          "internalType": "string",
          "name": "overview",
          "type": "string"
        },
        {
          "internalType": "uint256",
          "name": "enrollmentCost",
          "type": "uint256"
        }
      ],
      "stateMutability": "view",
      "type": "function"
    },
    {
      "inputs": [
        {
          "internalType": "uint256",
          "name": "credentialId",
          "type": "uint256"
        }
      ],
      "name": "redeemCredential",
      "outputs": [],
      "stateMutability": "nonpayable",
      "type": "function"
    },
    {
      "inputs": [
        {
          "internalType": "address",
          "name": "",
          "type": "address"
        }
      ],
      "name": "referralLinks",
      "outputs": [
        {
          "internalType": "address",
          "name": "",
          "type": "address"
        }
      ],
      "stateMutability": "view",
      "type": "function"
    },
    {
      "inputs": [
        {
          "internalType": "uint256",
          "name": "programId",
          "type": "uint256"
        },
        {
          "internalType": "string",
          "name": "title",
          "type": "string"
        },
        {
          "internalType": "string",
          "name": "facilitator",
          "type": "string"
        },
        {
          "internalType": "string",
          "name": "overview",
          "type": "string"
        },
        {
          "internalType": "uint256",
          "name": "enrollmentCost",
          "type": "uint256"
        }
      ],
      "name": "registerProgram",
      "outputs": [],
      "stateMutability": "nonpayable",
      "type": "function"
    },
    {
      "inputs": [
        {
          "internalType": "bytes32",
          "name": "role",
          "type": "bytes32"
        },
        {
          "internalType": "address",
          "name": "callerConfirmation",
          "type": "address"
        }
      ],
      "name": "renounceRole",
      "outputs": [],
      "stateMutability": "nonpayable",
      "type": "function"
    },
    {
      "inputs": [
        {
          "internalType": "bytes32",
          "name": "role",
          "type": "bytes32"
        },
        {
          "internalType": "address",
          "name": "account",
          "type": "address"
        }
      ],
      "name": "revokeRole",
      "outputs": [],
      "stateMutability": "nonpayable",
      "type": "function"
    },
    {
      "inputs": [
        {
          "internalType": "address",
          "name": "from",
          "type": "address"
        },
        {
          "internalType": "address",
          "name": "to",
          "type": "address"
        },
        {
          "internalType": "uint256",
          "name": "tokenId",
          "type": "uint256"
        }
      ],
      "name": "safeTransferFrom",
      "outputs": [],
      "stateMutability": "nonpayable",
      "type": "function"
    },
    {
      "inputs": [
        {
          "internalType": "address",
          "name": "from",
          "type": "address"
        },
        {
          "internalType": "address",
          "name": "to",
          "type": "address"
        },
        {
          "internalType": "uint256",
          "name": "tokenId",
          "type": "uint256"
        },
        {
          "internalType": "bytes",
          "name": "data",
          "type": "bytes"
        }
      ],
      "name": "safeTransferFrom",
      "outputs": [],
      "stateMutability": "nonpayable",
      "type": "function"
    },
    {
      "inputs": [
        {
          "internalType": "address",
          "name": "operator",
          "type": "address"
        },
        {
          "internalType": "bool",
          "name": "approved",
          "type": "bool"
        }
      ],
      "name": "setApprovalForAll",
      "outputs": [],
      "stateMutability": "nonpayable",
      "type": "function"
    },
    {
      "inputs": [
        {
          "internalType": "uint256",
          "name": "credentialId",
          "type": "uint256"
        },
        {
          "internalType": "string",
          "name": "orderId",
          "type": "string"
        }
      ],
      "name": "submitPrintOrder",
      "outputs": [],
      "stateMutability": "nonpayable",
      "type": "function"
    },
    {
      "inputs": [
        {
          "internalType": "bytes4",
          "name": "interfaceId",
          "type": "bytes4"
        }
      ],
      "name": "supportsInterface",
      "outputs": [
        {
          "internalType": "bool",
          "name": "",
          "type": "bool"
        }
      ],
      "stateMutability": "view",
      "type": "function"
    },
    {
      "inputs": [],
      "name": "symbol",
      "outputs": [
        {
          "internalType": "string",
          "name": "",
          "type": "string"
        }
      ],
      "stateMutability": "view",
      "type": "function"
    },
    {
      "inputs": [
        {
          "internalType": "uint256",
          "name": "tokenId",
          "type": "uint256"
        }
      ],
      "name": "tokenURI",
      "outputs": [
        {
          "internalType": "string",
          "name": "",
          "type": "string"
        }
      ],
      "stateMutability": "view",
      "type": "function"
    },
    {
      "inputs": [
        {
          "internalType": "address",
          "name": "from",
          "type": "address"
        },
        {
          "internalType": "address",
          "name": "to",
          "type": "address"
        },
        {
          "internalType": "uint256",
          "name": "tokenId",
          "type": "uint256"
        }
      ],
      "name": "transferFrom",
      "outputs": [],
      "stateMutability": "nonpayable",
      "type": "function"
    },
    {
      "inputs": [
        {
          "internalType": "address",
          "name": "newOwner",
          "type": "address"
        },
        {
          "internalType": "uint256",
          "name": "credentialId",
          "type": "uint256"
        }
      ],
      "name": "transferOwnership",
      "outputs": [],
      "stateMutability": "nonpayable",
      "type": "function"
    },
    {
      "inputs": [
        {
          "internalType": "uint256",
          "name": "credentialId",
          "type": "uint256"
        },
        {
          "internalType": "string",
          "name": "issuingBody",
          "type": "string"
        },
        {
          "internalType": "string",
          "name": "documentTemplate",
          "type": "string"
        }
      ],
      "name": "updateCustomData",
      "outputs": [],
      "stateMutability": "nonpayable",
      "type": "function"
    },
    {
      "inputs": [
        {
          "internalType": "address",
          "name": "recipient",
          "type": "address"
        },
        {
          "internalType": "bool",
          "name": "qualified",
          "type": "bool"
        }
      ],
      "name": "updateDiscountStatus",
      "outputs": [],
      "stateMutability": "nonpayable",
      "type": "function"
    },
    {
      "inputs": [
        {
          "internalType": "uint256",
          "name": "credentialId",
          "type": "uint256"
        }
      ],
      "name": "validateCredential",
      "outputs": [
        {
          "internalType": "bool",
          "name": "",
          "type": "bool"
        }
      ],
      "stateMutability": "view",
      "type": "function"
    }
  ],
  "bytecode": "0x60806040523461034d57604080519081016001600160401b0381118282101761025a57604090815260128252711058d859195b5a58d0dc9959195b9d1a585b60721b602083015280519081016001600160401b0381118282101761025a5760405260058152641050d4915160da1b602082015281516001600160401b03811161025a57600054600181811c91168015610343575b602082101461023a57601f81116102df575b50602092601f821160011461027b5792819293600092610270575b50508160011b916000199060031b1c1916176000555b80516001600160401b03811161025a57600154600181811c91168015610250575b602082101461023a57601f81116101d5575b50602091601f821160011461017157918192600092610166575b50508160011b916000199060031b1c1916176001555b61014233610352565b5061014c336103ce565b5061015633610466565b50604051612dad90816104ff8239f35b015190503880610123565b601f198216926001600052806000209160005b8581106101bd575083600195106101a4575b505050811b01600155610139565b015160001960f88460031b161c19169055388080610196565b91926020600181928685015181550194019201610184565b60016000527fb10e2d527612073b26eecdfd717e6a320cf44b4afac2b0732d9fcbe2b7fa0cf6601f830160051c81019160208410610230575b601f0160051c01905b8181106102245750610109565b60008155600101610217565b909150819061020e565b634e487b7160e01b600052602260045260246000fd5b90607f16906100f7565b634e487b7160e01b600052604160045260246000fd5b0151905038806100c0565b601f1982169360008052806000209160005b8681106102c757508360019596106102ae575b505050811b016000556100d6565b015160001960f88460031b161c191690553880806102a0565b9192602060018192868501518155019401920161028d565b600080527f290decd9548b62a8d60345a988386fc84ba6bc95484008f6362f93160ef3e563601f830160051c81019160208410610339575b601f0160051c01905b81811061032d57506100a5565b60008155600101610320565b9091508190610317565b90607f1690610093565b600080fd5b6001600160a01b038116600090815260008051602061330c833981519152602052604090205460ff166103c8576001600160a01b0316600081815260008051602061330c83398151915260205260408120805460ff191660011790553391906000805160206132ac8339815191528180a4600190565b50600090565b6001600160a01b03811660009081526000805160206132ec833981519152602052604090205460ff166103c8576001600160a01b031660008181526000805160206132ec83398151915260205260408120805460ff191660011790553391907f114e74f6ea3bd819998f78687bfcb11b140da08e9b7d222fa9c1f1ba1f2aa122906000805160206132ac8339815191529080a4600190565b6001600160a01b03811660009081526000805160206132cc833981519152602052604090205460ff166103c8576001600160a01b031660008181526000805160206132cc83398151915260205260408120805460ff191660011790553391907f241ecf16d79d0f8dbfb92cbc07fe17840425976cf0667f022fe9877caa831b08906000805160206132ac8339815191529080a460019056fe608080604052600436101561001357600080fd5b60003560e01c90816301ffc9a7146122565750806306fdde03146121b1578063081812fc14612173578063095ea7b31461208457806309edf6951461202b5780630a27668014611f11578063112a8e1c14611e8457806313a3135d14611e3357806317fb1e3a14611df1578063180f8161146109de57806323b872dd14611dda578063248a9ca314611da55780632f2ff15d14611d6557806336568abe14611d1f57806340e5b52e1461197b57806342842e0e146119515780634b5a726d1461186d57806359f0ec661461178e5780635ece687d1461174e5780636352211e1461171e578063660d507014610d4c57806370a0823114610cf657806370b22c2814610c815780637236d33914610c6357806378f79c8014610c2957806382aefa2414610bee5780638bcf979c14610bb35780638d93fe6114610b415780638e4f2e7514610a5c57806391d1485414610a0f57806393c620f1146109de57806395d89b41146109115780639a6cccd21461066d578063a217fddf14610651578063a22cb465146105bd578063a396bb42146104fb578063ae6e6114146104bc578063b62e6584146103f9578063b88d4fde1461039a578063c87b56dd14610363578063d547741f1461031c578063e2c89a0d1461029e578063e985e9c5146102435763ec87621c1461020357600080fd5b3461023e57600036600319011261023e5760206040517f241ecf16d79d0f8dbfb92cbc07fe17840425976cf0667f022fe9877caa831b088152f35b600080fd5b3461023e57604036600319011261023e5761025c612334565b61026461234a565b9060018060a01b0316600052600560205260406000209060018060a01b0316600052602052602060ff604060002054166040519015158152f35b3461023e57602036600319011261023e576004356102ba612a6e565b6102d66001600160a01b036102ce836129c5565b1615156125b0565b6102df81612d00565b8060005260096020526102f560406000206127f8565b7f604575885ee1f1053f84c7caf3e0d5c7169e0cffe597e9f2900ce397a832daec600080a2005b3461023e57604036600319011261023e5761036160043561033b61234a565b9061035c61035782600052600760205260016040600020015490565b612ae0565b612c7a565b005b3461023e57602036600319011261023e57610396610382600435612992565b6040519182916020835260208301906122f5565b0390f35b3461023e57608036600319011261023e576103b3612334565b6103bb61234a565b606435916001600160401b03831161023e573660238401121561023e576103ef6103619336906024816004013591016124c3565b9160443591612844565b3461023e57602036600319011261023e576004356104216001600160a01b036102ce836129c5565b80600052600b60205260ff604060002054166104775780600052600b6020526040600020600160ff198254161790557f44866e5718e11dbd7b7f7d50b05e9e1c1f5c5c1e2c9e6cc4fa16f728a614ee5c600080a2005b60405162461bcd60e51b815260206004820152601b60248201527f43726564656e7469616c20616c72656164792072656465656d656400000000006044820152606490fd5b3461023e57602036600319011261023e576001600160a01b036104dd612334565b16600052600a602052602060ff604060002054166040519015158152f35b3461023e57604036600319011261023e57610514612334565b61051c61234a565b6001600160a01b039182166000818152600d6020526040902054919290911661056c576000908152600d6020526040902080546001600160a01b0319166001600160a01b03909216919091179055005b60405162461bcd60e51b8152602060048201526024808201527f5265666572656520616c7265616479206c696e6b656420746f20612072656665604482015263393932b960e11b6064820152608490fd5b3461023e576105cb36612581565b6001600160a01b0390911690811561063c5733600052600560205260406000208260005260205261060c8160406000209060ff801983541691151516179055565b60405190151581527f17307eab39ab6107e8899845ad3d59bd9653f200f220920489ca2b5937696c3160203392a3005b50630b61174360e31b60005260045260246000fd5b3461023e57600036600319011261023e57602060405160008152f35b3461023e57606036600319011261023e576004356024356001600160401b03811161023e576106a09036906004016124fa565b6044356001600160401b03811161023e576106bf9036906004016124fa565b916106c86129fc565b6106dc6001600160a01b036102ce836129c5565b806000526009602052600460406000200183516001600160401b03811161085957610707825461238e565b601f81116108df575b50602094601f821160011461087a5761074592939495829160009261086f575b50508160011b916000199060031b1c19161790565b90555b6000526009602052600660406000200181516001600160401b03811161085957610772825461238e565b601f811161081c575b50602092601f82116001146107bc576107ad929382916000926107b15750508160011b916000199060031b1c19161790565b9055005b015190508480610730565b601f1982169383600052806000209160005b86811061080457508360019596106107eb575b505050811b019055005b015160001960f88460031b161c191690558380806107e1565b919260206001819286850151815501940192016107ce565b61084990836000526020600020601f840160051c8101916020851061084f575b601f0160051c0190612792565b8361077b565b909150819061083c565b634e487b7160e01b600052604160045260246000fd5b015190508680610730565b601f1982169583600052806000209160005b8881106108c7575083600195969798106108ae575b505050811b019055610748565b015160001960f88460031b161c191690558580806108a1565b9192602060018192868501518155019401920161088c565b61090b90836000526020600020601f840160051c8101916020851061084f57601f0160051c0190612792565b85610710565b3461023e57600036600319011261023e5760405160006001546109338161238e565b80845290600181169081156109ba575060011461095b575b61039683610382818503826123e3565b600160009081527fb10e2d527612073b26eecdfd717e6a320cf44b4afac2b0732d9fcbe2b7fa0cf6939250905b8082106109a05750909150810160200161038261094b565b919260018160209254838588010152019101909291610988565b60ff191660208086019190915291151560051b84019091019150610382905061094b565b3461023e57602036600319011261023e57600435600052600b602052602060ff604060002054166040519015158152f35b3461023e57604036600319011261023e57610a2861234a565b600435600052600760205260406000209060018060a01b0316600052602052602060ff604060002054166040519015158152f35b3461023e57604036600319011261023e57610a75612334565b3360009081527fdb9417548b453b039e9c38150eb7f3ed47dc3e2c6c43500efebc74f33bb6f2f7602052604090205460ff1615610b08576001600160a01b03166000818152600e6020526040902080546801000000000000000081101561085957610ae591600182018155612360565b815460001960039290921b91821b191660243590911b179055600052600e602052005b63e2517d3f60e01b600052336004527fae4a0595970935aa5495afbbb72e5f1f6ff1062766b4a3028c0c9b7d5cf7e34560245260446000fd5b3461023e57602036600319011261023e57600435610b696001600160a01b036102ce836129c5565b610b8481600052600960205260056040600020015442101590565b1580610b98575b6020906040519015158152f35b50600052600960205260206005604060002001544210610b8b565b3461023e57600036600319011261023e5760206040517fae4a0595970935aa5495afbbb72e5f1f6ff1062766b4a3028c0c9b7d5cf7e3458152f35b3461023e57600036600319011261023e5760206040517f114e74f6ea3bd819998f78687bfcb11b140da08e9b7d222fa9c1f1ba1f2aa1228152f35b3461023e57602036600319011261023e576020610c59600435600052600960205260056040600020015442101590565b6040519015158152f35b3461023e57600036600319011261023e576020600854604051908152f35b3461023e57610cf17ff41502b279bdec641c0bb60b24b410e51032e1243b860fcace65bf34b18e8469610cb336612518565b610cbe9391936129fc565b610cd26001600160a01b036102ce866129c5565b610cdb84612d00565b83600052600960205261038260406000206127f8565b0390a2005b3461023e57602036600319011261023e576001600160a01b03610d17612334565b168015610d365760005260036020526020604060002054604051908152f35b6322718ad960e21b600052600060045260246000fd5b3461023e5761012036600319011261023e57610d66612334565b6024356001600160401b03811161023e57610d859036906004016124fa565b6044356001600160401b03811161023e57610da49036906004016124fa565b916064356001600160401b03811161023e57610dc49036906004016124fa565b926084356001600160401b03811161023e57610de49036906004016124fa565b9060a4356001600160401b03811161023e57610e049036906004016124fa565b9460e4356001600160401b03811161023e57610e249036906004016124fa565b610104356001600160401b03811161023e57610e449036906004016124fa565b96610e4d612a6e565b6001600160a01b0386166000818152600a602052604090205490959060ff16156116cd5760085460001981146116b757600101968760085586156116a1576001600160a01b0390610e9f908990612b1d565b1661168b57866000526006602052604060002088516001600160401b03811161085957610ecc825461238e565b601f8111611659575b506020601f82116001146115f3579080610f05926000916115e8575b508160011b916000199060031b1c19161790565b90555b7ff8e1a15aba9398e019f0b49df1a4fde98ee17ae345cb5f6b5e2c27f5033e8ce76020604051898152a16040519460e086018681106001600160401b038211176108595760405285526020850193845260408501908152606085019182526080850192835260a085019360c435855260c08601998a52876000526009602052604060002095518051906001600160401b03821161085957610fa9885461238e565b601f81116115b6575b50602090601f831160011461154f57610fe39291600091836114ab5750508160011b916000199060031b1c19161790565b86555b51805160018701916001600160401b03821161085957611006835461238e565b601f811161151d575b50602090601f83116001146114b6576110409291600091836114ab5750508160011b916000199060031b1c19161790565b90555b51805160028601916001600160401b03821161085957611063835461238e565b601f8111611479575b50602090601f83116001146114125761109d9291600091836114075750508160011b916000199060031b1c19161790565b90555b51805160038501916001600160401b038211610859576110c0835461238e565b601f81116113d5575b50602090601f831160011461136e576110fa9291600091836112085750508160011b916000199060031b1c19161790565b90555b51805160048401916001600160401b0382116108595761111d835461238e565b601f811161133c575b50602090601f83116001146112d057918061115d926006979695946000926112085750508160011b916000199060031b1c19161790565b90555b5160058201550193519384516001600160401b03811161085957602095611187835461238e565b601f81116112a0575b508690601f831160011461121357926111e8836111fd948899947f878af15bdbd77fda76749958672993937bbbcbd73501fdc8989af2ff8c95aebe976000926112085750508160011b916000199060031b1c19161790565b90555b604051918291888352888301906122f5565b0390a3604051908152f35b015190508b80610730565b90601f1983169184600052816000209260005b8181106112895750938798937f878af15bdbd77fda76749958672993937bbbcbd73501fdc8989af2ff8c95aebe9693600193836111fd9810611270575b505050811b0190556111eb565b015160001960f88460031b161c191690558a8080611263565b92938a600181928786015181550195019301611226565b6112ca908460005288600020601f850160051c8101918a861061084f57601f0160051c0190612792565b87611190565b90601f1983169184600052816000209260005b8181106113245750916001939185600699989796941061130b575b505050811b019055611160565b015160001960f88460031b161c191690558a80806112fe565b929360206001819287860151815501950193016112e3565b61136890846000526020600020601f850160051c8101916020861061084f57601f0160051c0190612792565b89611126565b90601f1983169184600052816000209260005b8181106113bd57509084600195949392106113a4575b505050811b0190556110fd565b015160001960f88460031b161c191690558a8080611397565b92936020600181928786015181550195019301611381565b61140190846000526020600020601f850160051c8101916020861061084f57601f0160051c0190612792565b8a6110c9565b015190508c80610730565b90601f1983169184600052816000209260005b8181106114615750908460019594939210611448575b505050811b0190556110a0565b015160001960f88460031b161c191690558b808061143b565b92936020600181928786015181550195019301611425565b6114a590846000526020600020601f850160051c8101916020861061084f57601f0160051c0190612792565b8b61106c565b015190508d80610730565b90601f1983169184600052816000209260005b81811061150557509084600195949392106114ec575b505050811b019055611043565b015160001960f88460031b161c191690558c80806114df565b929360206001819287860151815501950193016114c9565b61154990846000526020600020601f850160051c8101916020861061084f57601f0160051c0190612792565b8c61100f565b90601f1983169189600052816000209260005b81811061159e5750908460019594939210611585575b505050811b018655610fe6565b015160001960f88460031b161c191690558c8080611578565b92936020600181928786015181550195019301611562565b6115e290896000526020600020601f850160051c8101916020861061084f57601f0160051c0190612792565b8c610fb2565b90508b01518d610ef1565b601f1982169083600052806000209160005b8d8282106116415750509083600194939210611628575b5050811b019055610f08565b8c015160001960f88460031b161c191690558c8061161c565b60018495602093958493015181550194019201611605565b61168590836000526020600020601f840160051c8101916020851061084f57601f0160051c0190612792565b8b610ed5565b6339e3563760e11b600052600060045260246000fd5b633250574960e11b600052600060045260246000fd5b634e487b7160e01b600052601160045260246000fd5b60405162461bcd60e51b8152602060048201526024808201527f526563697069656e74206e6f74207175616c696669656420666f7220646973636044820152631bdd5b9d60e21b6064820152608490fd5b3461023e57602036600319011261023e57602061173c6004356129c5565b6040516001600160a01b039091168152f35b3461023e5761036161175f36612581565b906117686129fc565b60018060a01b0316600052600a60205260406000209060ff801983541691151516179055565b3461023e57602036600319011261023e576004356000526009602052604060002060e06103966117bd83612404565b926117ca60018201612404565b61185a6117d960028401612404565b61184c6117e860038601612404565b61183e6117f760048801612404565b9361183061180c600660058b01549a01612404565b976118226040519d8d8f9e8f90815201906122f5565b8c810360208e0152906122f5565b908a820360408c01526122f5565b9088820360608a01526122f5565b9086820360808801526122f5565b9160a085015283820360c08501526122f5565b3461023e57602036600319011261023e576000606060405161188e816123c8565b8181528160208201528160408201520152600435600052600c6020526119206040600020604051906118bf826123c8565b6118c881612404565b82526119466118d960018301612404565b916020840192835261193360036118f260028401612404565b92604087019384520154936060860194855260405196879660208852516080602089015260a08801906122f5565b9051868203601f190160408801526122f5565b9051848203601f190160608601526122f5565b905160808301520390f35b3461023e5761036161196236612547565b90604051926119726020856123e3565b60008452612844565b3461023e5760a036600319011261023e576024356001600160401b03811161023e576119ab9036906004016124fa565b6044356001600160401b03811161023e576119ca9036906004016124fa565b906064356001600160401b03811161023e576119ea9036906004016124fa565b916119f36129fc565b60405191611a00836123c8565b8252602082019081526040820192835260608201906084358252600435600052600c602052604060002092518051906001600160401b03821161085957611a47855461238e565b601f8111611ced575b50602090601f8311600114611c8657611a81929160009183611b485750508160011b916000199060031b1c19161790565b83555b51805160018401916001600160401b03821161085957611aa4835461238e565b601f8111611c54575b50602090601f8311600114611bed57611ade929160009183611b485750508160011b916000199060031b1c19161790565b90555b6002820192519283516001600160401b03811161085957611b02825461238e565b601f8111611bbb575b506020601f8211600114611b53579080611b3f9260039697600092611b485750508160011b916000199060031b1c19161790565b90555b51910155005b015190508780610730565b601f1982169583600052816000209660005b818110611ba35750916003969791846001959410611b8b575b505050811b019055611b42565b015160001983881b60f8161c19169055868080611b7e565b83830151895560019098019760209384019301611b65565b611be790836000526020600020601f840160051c8101916020851061084f57601f0160051c0190612792565b85611b0b565b90601f1983169184600052816000209260005b818110611c3c5750908460019594939210611c23575b505050811b019055611ae1565b015160001960f88460031b161c19169055868080611c16565b92936020600181928786015181550195019301611c00565b611c8090846000526020600020601f850160051c8101916020861061084f57601f0160051c0190612792565b86611aad565b90601f1983169186600052816000209260005b818110611cd55750908460019594939210611cbc575b505050811b018355611a84565b015160001960f88460031b161c19169055868080611caf565b92936020600181928786015181550195019301611c99565b611d1990866000526020600020601f850160051c8101916020861061084f57601f0160051c0190612792565b86611a50565b3461023e57604036600319011261023e57611d3861234a565b336001600160a01b03821603611d545761036190600435612c7a565b63334bd91960e11b60005260046000fd5b3461023e57604036600319011261023e57610361600435611d8461234a565b90611da061035782600052600760205260016040600020015490565b612beb565b3461023e57602036600319011261023e576020611dd2600435600052600760205260016040600020015490565b604051908152f35b3461023e57610361611deb36612547565b916125fc565b3461023e57602036600319011261023e576001600160a01b03611e12612334565b16600052600d602052602060018060a01b0360406000205416604051908152f35b3461023e57610cf17f6fde9a64c2c93871aa59ec0395e305c7b482a6d3e2e4cc371b9d82eb11a9f20a611e6536612518565b611e709391936129fc565b6103826001600160a01b036102ce866129c5565b3461023e57602036600319011261023e57600435600052600c602052611eeb6040600020611eb181612404565b90611f07611ec160018301612404565b91611ef96003611ed360028401612404565b920154936040519687966080885260808801906122f5565b9086820360208801526122f5565b9084820360408601526122f5565b9060608301520390f35b3461023e57604036600319011261023e57611f2a612334565b602435611f416001600160a01b036102ce836129c5565b611f5c81600052600960205260056040600020015442101590565b611fed576001600160a01b0382169182156116a1576001600160a01b0390611f85908390612b1d565b1680611fa05750637e27328960e01b60005260045260246000fd5b338103611fd1575033907f0bf7c90b7c05a439fe98d61270cade3456842b13bd42a5a86afcfa437411839d600080a4005b906364283d7b60e01b6000523360045260245260445260646000fd5b60405162461bcd60e51b815260206004820152601660248201527510dc9959195b9d1a585b081a185cc8195e1c1a5c995960521b6044820152606490fd5b3461023e57604036600319011261023e57612044612334565b6001600160a01b03166000908152600e602052604090208054602435919082101561023e5760209161207591612360565b90549060031b1c604051908152f35b3461023e57604036600319011261023e5761209d612334565b6024356120a9816129c5565b33151580612160575b80612132575b61211d5781906001600160a01b0384811691167f8c5be1e5ebec7d5bd14f71427d1e84f3dd0314c0f7b2291e5b200ac8c7c3b925600080a4600090815260046020526040902080546001600160a01b0319166001600160a01b03909216919091179055005b63a9fbf51f60e01b6000523360045260246000fd5b506001600160a01b038116600090815260056020908152604080832033845290915290205460ff16156120b8565b506001600160a01b0381163314156120b2565b3461023e57602036600319011261023e57600435612190816129c5565b506000526004602052602060018060a01b0360406000205416604051908152f35b3461023e57600036600319011261023e57604051600080546121d28161238e565b80845290600181169081156109ba57506001146121f95761039683610382818503826123e3565b60008080527f290decd9548b62a8d60345a988386fc84ba6bc95484008f6362f93160ef3e563939250905b80821061223c5750909150810160200161038261094b565b919260018160209254838588010152019101909291612224565b3461023e57602036600319011261023e576004359063ffffffff60e01b821680920361023e57602091637965db0b60e01b8114908115612298575b5015158152f35b632483248360e11b8114915081156122b2575b5083612291565b6380ac58cd60e01b8114915081156122e4575b81156122d3575b50836122ab565b6301ffc9a760e01b149050836122cc565b635b5e139f60e01b811491506122c5565b919082518082526020808301940160005b828110612324575050600081602094950152601f8019910116010190565b8181015186820152602001612306565b600435906001600160a01b038216820361023e57565b602435906001600160a01b038216820361023e57565b80548210156123785760005260206000200190600090565b634e487b7160e01b600052603260045260246000fd5b90600182811c921680156123be575b60208310146123a857565b634e487b7160e01b600052602260045260246000fd5b91607f169161239d565b608081019081106001600160401b0382111761085957604052565b90601f801991011681019081106001600160401b0382111761085957604052565b90604051918260008254926124188461238e565b8084529360018116908115612486575060011461243f575b5061243d925003836123e3565b565b90506000929192526020600020906000915b81831061246a57505090602061243d9282010138612430565b6020919350806001915483858901015201910190918492612451565b90506020925061243d94915060ff191682840152151560051b82010138612430565b6001600160401b03811161085957601f01601f191660200190565b9291926124cf826124a8565b916124dd60405193846123e3565b82948184528183011161023e578281602093846000960137010152565b9080601f8301121561023e57816020612515933591016124c3565b90565b90604060031983011261023e5760043591602435906001600160401b03821161023e57612515916004016124fa565b606090600319011261023e576004356001600160a01b038116810361023e57906024356001600160a01b038116810361023e579060443590565b604090600319011261023e576004356001600160a01b038116810361023e5790602435801515810361023e5790565b156125b757565b60405162461bcd60e51b815260206004820152601960248201527f43726564656e7469616c20646f6573206e6f74206578697374000000000000006044820152606490fd5b6001600160a01b03909116919082156116a1576000828152600260205260408120546001600160a01b03169383918590331515806126fa575b507fddf252ad1be2c89b69c2b068fc378daa952ba7f163c4a11628f55a4df523b3ef90826126c5575b83815260036020526040812060018154019055848152600260205260408120846bffffffffffffffffffffffff60a01b82541617905580a46001600160a01b03168083036126ab57505050565b6364283d7b60e01b60005260045260245260445260646000fd5b600085815260046020526040902080546001600160a01b0319169055828152600360205260408120805460001901905561265e565b915091925080612743575b15612714579084849238612635565b83908561272d57602491637e27328960e01b8252600452fd5b60449163177e802f60e01b825233600452602452fd5b503385148015612771575b806127055750838152600460205260408120546001600160a01b03163314612705565b5084815260056020908152604080832033845290915281205460ff1661274e565b81811061279d575050565b60008155600101612792565b6127b3815461238e565b90816127bd575050565b81601f600093116001146127cf575055565b818352602083206127eb91601f0160051c810190600101612792565b8082528160208120915555565b600661243d91612807816127a9565b612813600182016127a9565b61281f600282016127a9565b61282b600382016127a9565b612837600482016127a9565b60006005820155016127a9565b92916128518183866125fc565b813b61285e575b50505050565b604051630a85bd0160e11b81523360048201526001600160a01b03948516602482015260448101919091526080606482015292169190602090829081906128a99060848301906122f5565b03816000865af18091600091612948575b509061291357503d1561290c573d6128d1816124a8565b906128df60405192836123e3565b81523d6000602083013e5b805190816129075782633250574960e11b60005260045260246000fd5b602001fd5b60606128ea565b6001600160e01b03191663757a42ff60e11b01612934575038808080612858565b633250574960e11b60005260045260246000fd5b6020813d60201161298a575b81612961602093836123e3565b810103126129865751906001600160e01b0319821682036129835750386128ba565b80fd5b5080fd5b3d9150612954565b61299b816129c5565b5060005260066020526129b16040600020612404565b60006040516129c16020826123e3565b5290565b6000818152600260205260409020546001600160a01b03169081156129e8575090565b637e27328960e01b60005260045260246000fd5b3360009081527fcbc82fc82c015b32ce89c3c5ced69cc726bc4fa91f427b060feff78e3f4fb1ee602052604090205460ff1615612a3557565b63e2517d3f60e01b600052336004527f241ecf16d79d0f8dbfb92cbc07fe17840425976cf0667f022fe9877caa831b0860245260446000fd5b3360009081527f86f435fa7fee147c21a73f932ccd66d56798be8815d6d869d9c8695930549705602052604090205460ff1615612aa757565b63e2517d3f60e01b600052336004527f114e74f6ea3bd819998f78687bfcb11b140da08e9b7d222fa9c1f1ba1f2aa12260245260446000fd5b600081815260076020908152604080832033845290915290205460ff1615612b055750565b63e2517d3f60e01b6000523360045260245260446000fd5b6000828152600260205260409020546001600160a01b0316919082612bb4575b6001600160a01b031680612b9a575b8160005260026020526040600020816bffffffffffffffffffffffff60a01b825416179055827fddf252ad1be2c89b69c2b068fc378daa952ba7f163c4a11628f55a4df523b3ef600080a490565b806000526003602052604060002060018154019055612b4c565b600082815260046020526040902080546001600160a01b031916905582600052600360205260406000206000198154019055612b3d565b60008181526007602090815260408083206001600160a01b038616845290915290205460ff16612c735760008181526007602090815260408083206001600160a01b0395909516808452949091528120805460ff19166001179055339291907f2f8788117e7eff1d82e926ec794901d17c78024a50270940304540a733656f0d9080a4600190565b5050600090565b60008181526007602090815260408083206001600160a01b038616845290915290205460ff1615612c735760008181526007602090815260408083206001600160a01b0395909516808452949091528120805460ff19169055339291907ff6391f5c32d9c69d2a47ea670b442974b53935d1edc7fd64eb21e047a839171b9080a4600190565b6000818152600260205260408120546001600160a01b031680159183908315612d6b575b81815260026020526040812080546001600160a01b0319169055827fddf252ad1be2c89b69c2b068fc378daa952ba7f163c4a11628f55a4df523b3ef8280a4506129e85750565b600082815260046020526040902080546001600160a01b03191690558281526003602052604081208054600019019055612d2456fea164736f6c634300081c000a2f8788117e7eff1d82e926ec794901d17c78024a50270940304540a733656f0dcbc82fc82c015b32ce89c3c5ced69cc726bc4fa91f427b060feff78e3f4fb1ee86f435fa7fee147c21a73f932ccd66d56798be8815d6d869d9c86959305497056d5257204ebe7d88fd91ae87941cb2dd9d8062b64ae5a2bd2d28ec40b9fbf6df",
  "linkReferences": {},
  "deployedLinkReferences": {}
}