{
  "_format": "hh-sol-artifact-1",
  "contractName": "AcademicCredentialToken",
  "sourceName": "contracts/AcademicCredentialToken.sol",
  "abi": [
    {
      "inputs": [],
      "stateMutability": "nonpayable",
      "type": "constructor"
    },
    {
      "inputs": [],
      "name": "AccessControlBadConfirmation",
      "type": "error"
    },
    {
      "inputs": [
        {
          "internalType": "address",
          "name": "account",
          "type": "address"
        },
        {
          "internalType": "bytes32",
          "name": "neededRole",
          "type": "bytes32"
        }
      ],
      "name": "AccessControlUnauthorizedAccount",
      "type": "error"
    },
    {
      "inputs": [
        {
          "internalType": "address",
          "name": "sender",
          "type": "address"
        },
        {
          "internalType": "uint256",
          "name": "tokenId",
          "type": "uint256"
        },
        {
          "internalType": "address",
          "name": "owner",
          "type": "address"
        }
      ],
      "name": "ERC721IncorrectOwner",
      "type": "error"
    },
    {
      "inputs": [
        {
          "internalType": "address",
          "name": "operator",
          "type": "address"
        },
        {
          "internalType": "uint256",
          "name": "tokenId",
          "type": "uint256"
        }
      ],
      "name": "ERC721InsufficientApproval",
      "type": "error"
    },
    {
      "inputs": [
        {
          "internalType": "address",
          "name": "approver",
          "type": "address"
        }
      ],
      "name": "ERC721InvalidApprover",
      "type": "error"
    },
    {
      "inputs": [
        {
          "internalType": "address",
          "name": "operator",
          "type": "address"
        }
      ],
      "name": "ERC721InvalidOperator",
      "type": "error"
    },
    {
      "inputs": [
        {
          "internalType": "address",
          "name": "owner",
          "type": "address"
        }
      ],
      "name": "ERC721InvalidOwner",
      "type": "error"
    },
    {
      "inputs": [
        {
          "internalType": "address",
          "name": "receiver",
          "type": "address"
        }
      ],
      "name": "ERC721InvalidReceiver",
      "type": "error"
    },
    {
      "inputs": [
        {
          "internalType": "address",
          "name": "sender",
          "type": "address"
        }
      ],
      "name": "ERC721InvalidSender",
      "type": "error"
    },
    {
      "inputs": [
        {
          "internalType": "uint256",
          "name": "tokenId",
          "type": "uint256"
        }
      ],
      "name": "ERC721NonexistentToken",
      "type": "error"
    },
    {
      "anonymous": false,
      "inputs": [
        {
          "indexed": true,
          "internalType": "address",
          "name": "owner",
          "type": "address"
        },
        {
          "indexed": true,
          "internalType": "address",
          "name": "approved",
          "type": "address"
        },
        {
          "indexed": true,
          "internalType": "uint256",
          "name": "tokenId",
          "type": "uint256"
        }
      ],
      "name": "Approval",
      "type": "event"
    },
    {
      "anonymous": false,
      "inputs": [
        {
          "indexed": true,
          "internalType": "address",
          "name": "owner",
          "type": "address"
        },
        {
          "indexed": true,
          "internalType": "address",
          "name": "operator",
          "type": "address"
        },
        {
          "indexed": false,
          "internalType": "bool",
          "name": "approved",
          "type": "bool"
        }
      ],
      "name": "ApprovalForAll",
      "type": "event"
    },
    {
      "anonymous": false,
      "inputs": [
        {
          "indexed": false,
          "internalType": "uint256",
          "name": "_fromTokenId",
          "type": "uint256"
        },
        {
          "indexed": false,
          "internalType": "uint256",
          "name": "_toTokenId",
          "type": "uint256"
        }
      ],
      "name": "BatchMetadataUpdate",
      "type": "event"
    },
    {
      "anonymous": false,
      "inputs": [
        {
          "indexed": true,
          "internalType": "uint256",
          "name": "credentialId",
          "type": "uint256"
        },
        {
          "indexed": false,
          "internalType": "string",
          "name": "justification",
          "type": "string"
        }
      ],
      "name": "CredentialCancelled",
      "type": "event"
    },
    {
      "anonymous": false,
      "inputs": [
        {
          "indexed": true,
          "internalType": "uint256",
          "name": "credentialId",
          "type": "uint256"
        }
      ],
      "name": "CredentialDestroyed",
      "type": "event"
    },
    {
      "anonymous": false,
      "inputs": [
        {
          "indexed": true,
          "internalType": "address",
          "name": "recipient",
          "type": "address"
        },
        {
          "indexed": true,
          "internalType": "uint256",
          "name": "credentialId",
          "type": "uint256"
        },
        {
          "indexed": false,
          "internalType": "string",
          "name": "documentUri",
          "type": "string"
        }
      ],
      "name": "CredentialIssued",
      "type": "event"
    },
    {
      "anonymous": false,
      "inputs": [
        {
          "indexed": true,
          "internalType": "uint256",
          "name": "credentialId",
          "type": "uint256"
        }
      ],
      "name": "CredentialRedeemed",
      "type": "event"
    },
    {
      "anonymous": false,
      "inputs": [
        {
          "indexed": true,
          "internalType": "uint256",
          "name": "credentialId",
          "type": "uint256"
        }
      ],
      "name": "CredentialValidated",
      "type": "event"
    },
    {
      "anonymous": false,
      "inputs": [
        {
          "indexed": false,
          "internalType": "uint256",
          "name": "_tokenId",
          "type": "uint256"
        }
      ],
      "name": "MetadataUpdate",
      "type": "event"
    },
    {
      "anonymous": false,
      "inputs": [
        {
          "indexed": true,
          "internalType": "uint256",
          "name": "credentialId",
          "type": "uint256"
        },
        {
          "indexed": true,
          "internalType": "address",
          "name": "currentOwner",
          "type": "address"
        },
        {
          "indexed": true,
          "internalType": "address",
          "name": "newOwner",
          "type": "address"
        }
      ],
      "name": "OwnershipChangeRequested",
      "type": "event"
    },
    {
      "anonymous": false,
      "inputs": [
        {
          "indexed": true,
          "internalType": "uint256",
          "name": "credentialId",
          "type": "uint256"
        },
        {
          "indexed": false,
          "internalType": "string",
          "name": "orderId",
          "type": "string"
        }
      ],
      "name": "PrintOrderSubmitted",
      "type": "event"
    },
    {
      "anonymous": false,
      "inputs": [
        {
          "indexed": true,
          "internalType": "bytes32",
          "name": "role",
          "type": "bytes32"
        },
        {
          "indexed": true,
          "internalType": "bytes32",
          "name": "previousAdminRole",
          "type": "bytes32"
        },
        {
          "indexed": true,
          "internalType": "bytes32",
          "name": "newAdminRole",
          "type": "bytes32"
        }
      ],
      "name": "RoleAdminChanged",
      "type": "event"
    },
    {
      "anonymous": false,
      "inputs": [
        {
          "indexed": true,
          "internalType": "bytes32",
          "name": "role",
          "type": "bytes32"
        },
        {
          "indexed": true,
          "internalType": "address",
          "name": "account",
          "type": "address"
        },
        {
          "indexed": true,
          "internalType": "address",
          "name": "sender",
          "type": "address"
        }
      ],
      "name": "RoleGranted",
      "type": "event"
    },
    {
      "anonymous": false,
      "inputs": [
        {
          "indexed": true,
          "internalType": "bytes32",
          "name": "role",
          "type": "bytes32"
        },
        {
          "indexed": true,
          "internalType": "address",
          "name": "account",
          "type": "address"
        },
        {
          "indexed": true,
          "internalType": "address",
          "name": "sender",
          "type": "address"
        }
      ],
      "name": "RoleRevoked",
      "type": "event"
    },
    {
      "anonymous": false,
      "inputs": [
        {
          "indexed": true,
          "internalType": "address",
          "name": "from",
          "type": "address"
        },
        {
          "indexed": true,
          "internalType": "address",
          "name": "to",
          "type": "address"
        },
        {
          "indexed": true,
          "internalType": "uint256",
          "name": "tokenId",
          "type": "uint256"
        }
      ],
      "name": "Transfer",
      "type": "event"
    },
    {
      "inputs": [],
      "name": "DEFAULT_ADMIN_ROLE",
      "outputs": [
        {
          "internalType": "bytes32",
          "name": "",
          "type": "bytes32"
        }
      ],
      "stateMutability": "view",
      "type": "function"
    },
    {
      "inputs": [],
      "name": "INSTRUCTOR_ROLE",
      "outputs": [
        {
          "internalType": "bytes32",
          "name": "",
          "type": "bytes32"
        }
      ],
      "stateMutability": "view",
      "type": "function"
    },
    {
      "inputs": [],
      "name": "ISSUER_ROLE",
      "outputs": [
        {
          "internalType": "bytes32",
          "name": "",
          "type": "bytes32"
        }
      ],
      "stateMutability": "view",
      "type": "function"
    },
    {
      "inputs": [],
      "name": "MANAGER_ROLE",
      "outputs": [
        {
          "internalType": "bytes32",
          "name": "",
          "type": "bytes32"
        }
      ],
      "stateMutability": "view",
      "type": "function"
    },
    {
      "inputs": [
        {
          "internalType": "address",
          "name": "to",
          "type": "address"
        },
        {
          "internalType": "uint256",
          "name": "tokenId",
          "type": "uint256"
        }
      ],
      "name": "approve",
      "outputs": [],
      "stateMutability": "nonpayable",
      "type": "function"
    },
    {
      "inputs": [
        {
          "internalType": "address",
          "name": "owner",
          "type": "address"
        }
      ],
      "name": "balanceOf",
      "outputs": [
        {
          "internalType": "uint256",
          "name": "",
          "type": "uint256"
        }
      ],
      "stateMutability": "view",
      "type": "function"
    },
    {
      "inputs": [
        {
          "internalType": "uint256",
          "name": "credentialId",
          "type": "uint256"
        },
        {
          "internalType": "string",
          "name": "justification",
          "type": "string"
        }
      ],
      "name": "cancelCredential",
      "outputs": [],
      "stateMutability": "nonpayable",
      "type": "function"
    },
    {
      "inputs": [
        {
          "internalType": "uint256",
          "name": "",
          "type": "uint256"
        }
      ],
      "name": "credentialRecords",
      "outputs": [
        {
          "internalType": "string",
          "name": "programTitle",
          "type": "string"
        },
        {
          "internalType": "string",
          "name": "recipientName",
          "type": "string"
        },
        {
          "internalType": "string",
          "name": "achievementLevel",
          "type": "string"
        },
        {
          "internalType": "string",
          "name": "completionDate",
          "type": "string"
        },
        {
          "internalType": "string",
          "name": "documentURI",
          "type": "string"
        },
        {
          "internalType": "uint256",
          "name": "validUntil",
          "type": "uint256"
        },
        {
          "internalType": "string",
          "name": "issuingBody",
          "type": "string"
        }
      ],
      "stateMutability": "view",
      "type": "function"
    },
    {
      "inputs": [
        {
          "internalType": "uint256",
          "name": "",
          "type": "uint256"
        }
      ],
      "name": "credentialRedeemed",
      "outputs": [
        {
          "internalType": "bool",
          "name": "",
          "type": "bool"
        }
      ],
      "stateMutability": "view",
      "type": "function"
    },
    {
      "inputs": [],
      "name": "currentCredentialId",
      "outputs": [
        {
          "internalType": "uint256",
          "name": "",
          "type": "uint256"
        }
      ],
      "stateMutability": "view",
      "type": "function"
    },
    {
      "inputs": [
        {
          "internalType": "uint256",
          "name": "credentialId",
          "type": "uint256"
        }
      ],
      "name": "destroyCredential",
      "outputs": [],
      "stateMutability": "nonpayable",
      "type": "function"
    },
    {
      "inputs": [
        {
          "internalType": "address",
          "name": "",
          "type": "address"
        }
      ],
      "name": "discountQualified",
      "outputs": [
        {
          "internalType": "bool",
          "name": "",
          "type": "bool"
        }
      ],
      "stateMutability": "view",
      "type": "function"
    },
    {
      "inputs": [
        {
          "internalType": "address",
          "name": "referee",
          "type": "address"
        },
        {
          "internalType": "address",
          "name": "referrer",
          "type": "address"
        }
      ],
      "name": "establishReferral",
      "outputs": [],
      "stateMutability": "nonpayable",
      "type": "function"
    },
    {
      "inputs": [
        {
          "internalType": "address",
          "name": "learner",
          "type": "address"
        },
        {
          "internalType": "uint256",
          "name": "programId",
          "type": "uint256"
        }
      ],
      "name": "finishProgram",
      "outputs": [],
      "stateMutability": "nonpayable",
      "type": "function"
    },
    {
      "inputs": [
        {
          "internalType": "uint256",
          "name": "tokenId",
          "type": "uint256"
        }
      ],
      "name": "getApproved",
      "outputs": [
        {
          "internalType": "address",
          "name": "",
          "type": "address"
        }
      ],
      "stateMutability": "view",
      "type": "function"
    },
    {
      "inputs": [
        {
          "internalType": "uint256",
          "name": "programId",
          "type": "uint256"
        }
      ],
      "name": "getProgramInfo",
      "outputs": [
        {
          "components": [
            {
              "internalType": "string",
              "name": "title",
              "type": "string"
            },
            {
              "internalType": "string",
              "name": "facilitator",
              "type": "string"
            },
            {
              "internalType": "string",
              "name": "overview",
              "type": "string"
            },
            {
              "internalType": "uint256",
              "name": "enrollmentCost",
              "type": "uint256"
            }
          ],
          "internalType": "struct AcademicCredentialToken.Program",
          "name": "",
          "type": "tuple"
        }
      ],
      "stateMutability": "view",
      "type": "function"
    },
    {
      "inputs": [
        {
          "internalType": "bytes32",
          "name": "role",
          "type": "bytes32"
        }
      ],
      "name": "getRoleAdmin",
      "outputs": [
        {
          "internalType": "bytes32",
          "name": "",
          "type": "bytes32"
        }
      ],
      "stateMutability": "view",
      "type": "function"
    },
    {
      "inputs": [
        {
          "internalType": "bytes32",
          "name": "role",
          "type": "bytes32"
        },
        {
          "internalType": "address",
          "name": "account",
          "type": "address"
        }
      ],
      "name": "grantRole",
      "outputs": [],
      "stateMutability": "nonpayable",
      "type": "function"
    },
    {
      "inputs": [
        {
          "internalType": "bytes32",
          "name": "role",
          "type": "bytes32"
        },
        {
          "internalType": "address",
          "name": "account",
          "type": "address"
        }
      ],
      "name": "hasRole",
      "outputs": [
        {
          "internalType": "bool",
          "name": "",
          "type": "bool"
        }
      ],
      "stateMutability": "view",
      "type": "function"
    },
    {
      "inputs": [
        {
          "internalType": "address",
          "name": "owner",
          "type": "address"
        },
        {
          "internalType": "address",
          "name": "operator",
          "type": "address"
        }
      ],
      "name": "isApprovedForAll",
      "outputs": [
        {
          "internalType": "bool",
          "name": "",
          "type": "bool"
        }
      ],
      "stateMutability": "view",
      "type": "function"
    },
    {
      "inputs": [
        {
          "internalType": "uint256",
          "name": "credentialId",
          "type": "uint256"
        }
      ],
      "name": "isCredentialExpired",
      "outputs": [
        {
          "internalType": "bool",
          "name": "",
          "type": "bool"
        }
      ],
      "stateMutability": "view",
      "type": "function"
    },
    {
      "inputs": [
        {
          "internalType": "uint256",
          "name": "credentialId",
          "type": "uint256"
        }
      ],
      "name": "isCredentialRedeemed",
      "outputs": [
        {
          "internalType": "bool",
          "name": "",
          "type": "bool"
        }
      ],
      "stateMutability": "view",
      "type": "function"
    },
    {
      "inputs": [
        {
          "internalType": "address",
          "name": "recipient",
          "type": "address"
        },
        {
          "internalType": "string",
          "name": "documentURI",
          "type": "string"
        },
        {
          "internalType": "string",
          "name": "programTitle",
          "type": "string"
        },
        {
          "internalType": "string",
          "name": "recipientName",
          "type": "string"
        },
        {
          "internalType": "string",
          "name": "achievementLevel",
          "type": "string"
        },
        {
          "internalType": "string",
          "name": "completionDate",
          "type": "string"
        },
        {
          "internalType": "uint256",
          "name": "validUntil",
          "type": "uint256"
        },
        {
          "internalType": "string",
          "name": "documentTemplate",
          "type": "string"
        },
        {
          "internalType": "string",
          "name": "issuingBody",
          "type": "string"
        }
      ],
      "name": "issueDiscountedCredential",
      "outputs": [
        {
          "internalType": "uint256",
          "name": "",
          "type": "uint256"
        }
      ],
      "stateMutability": "nonpayable",
      "type": "function"
    },
    {
      "inputs": [
        {
          "internalType": "address",
          "name": "",
          "type": "address"
        },
        {
          "internalType": "uint256",
          "name": "",
          "type": "uint256"
        }
      ],
      "name": "learnerPrograms",
      "outputs": [
        {
          "internalType": "uint256",
          "name": "",
          "type": "uint256"
        }
      ],
      "stateMutability": "view",
      "type": "function"
    },
    {
      "inputs": [],
      "name": "name",
      "outputs": [
        {
          "internalType": "string",
          "name": "",
          "type": "string"
        }
      ],
      "stateMutability": "view",
      "type": "function"
    },
    {
      "inputs": [
        {
          "internalType": "uint256",
          "name": "tokenId",
          "type": "uint256"
        }
      ],
      "name": "ownerOf",
      "outputs": [
        {
          "internalType": "address",
          "name": "",
          "type": "address"
        }
      ],
      "stateMutability": "view",
      "type": "function"
    },
    {
      "inputs": [
        {
          "internalType": "uint256",
          "name": "",
          "type": "uint256"
        }
      ],
      "name": "programRegistry",
      "outputs": [
        {
          "internalType": "string",
          "name": "title",
          "type": "string"
        },
        {
          "internalType": "string",
          "name": "facilitator",
          "type": "string"
        },
        {
          "internalType": "string",
          "name": "overview",
          "type": "string"
        },
        {
          "internalType": "uint256",
          "name": "enrollmentCost",
          "type": "uint256"
        }
      ],
      "stateMutability": "view",
      "type": "function"
    },
    {
      "inputs": [
        {
          "internalType": "uint256",
          "name": "credentialId",
          "type": "uint256"
        }
      ],
      "name": "redeemCredential",
      "outputs": [],
      "stateMutability": "nonpayable",
      "type": "function"
    },
    {
      "inputs": [
        {
          "internalType": "address",
          "name": "",
          "type": "address"
        }
      ],
      "name": "referralLinks",
      "outputs": [
        {
          "internalType": "address",
          "name": "",
          "type": "address"
        }
      ],
      "stateMutability": "view",
      "type": "function"
    },
    {
      "inputs": [
        {
          "internalType": "uint256",
          "name": "programId",
          "type": "uint256"
        },
        {
          "internalType": "string",
          "name": "title",
          "type": "string"
        },
        {
          "internalType": "string",
          "name": "facilitator",
          "type": "string"
        },
        {
          "internalType": "string",
          "name": "overview",
          "type": "string"
        },
        {
          "internalType": "uint256",
          "name": "enrollmentCost",
          "type": "uint256"
        }
      ],
      "name": "registerProgram",
      "outputs": [],
      "stateMutability": "nonpayable",
      "type": "function"
    },
    {
      "inputs": [
        {
          "internalType": "bytes32",
          "name": "role",
          "type": "bytes32"
        },
        {
          "internalType": "address",
          "name": "callerConfirmation",
          "type": "address"
        }
      ],
      "name": "renounceRole",
      "outputs": [],
      "stateMutability": "nonpayable",
      "type": "function"
    },
    {
      "inputs": [
        {
          "internalType": "bytes32",
          "name": "role",
          "type": "bytes32"
        },
        {
          "internalType": "address",
          "name": "account",
          "type": "address"
        }
      ],
      "name": "revokeRole",
      "outputs": [],
      "stateMutability": "nonpayable",
      "type": "function"
    },
    {
      "inputs": [
        {
          "internalType": "address",
          "name": "from",
          "type": "address"
        },
        {
          "internalType": "address",
          "name": "to",
          "type": "address"
        },
        {
          "internalType": "uint256",
          "name": "tokenId",
          "type": "uint256"
        }
      ],
      "name": "safeTransferFrom",
      "outputs": [],
      "stateMutability": "nonpayable",
      "type": "function"
    },
    {
      "inputs": [
        {
          "internalType": "address",
          "name": "from",
          "type": "address"
        },
        {
          "internalType": "address",
          "name": "to",
          "type": "address"
        },
        {
          "internalType": "uint256",
          "name": "tokenId",
          "type": "uint256"
        },
        {
          "internalType": "bytes",
          "name": "data",
          "type": "bytes"
        }
      ],
      "name": "safeTransferFrom",
      "outputs": [],
      "stateMutability": "nonpayable",
      "type": "function"
    },
    {
      "inputs": [
        {
          "internalType": "address",
          "name": "operator",
          "type": "address"
        },
        {
          "internalType": "bool",
          "name": "approved",
          "type": "bool"
        }
      ],
      "name": "setApprovalForAll",
      "outputs": [],
      "stateMutability": "nonpayable",
      "type": "function"
    },
    {
      "inputs": [
        {
          "internalType": "uint256",
          "name": "credentialId",
          "type": "uint256"
        },
        {
          "internalType": "string",
          "name": "orderId",
          "type": "string"
        }
      ],
      "name": "submitPrintOrder",
      "outputs": [],
      "stateMutability": "nonpayable",
      "type": "function"
    },
    {
      "inputs": [
        {
          "internalType": "bytes4",
          "name": "interfaceId",
          "type": "bytes4"
        }
      ],
      "name": "supportsInterface",
      "outputs": [
        {
          "internalType": "bool",
          "name": "",
          "type": "bool"
        }
      ],
      "stateMutability": "view",
      "type": "function"
    },
    {
      "inputs": [],
      "name": "symbol",
      "outputs": [
        {
          "internalType": "string",
          "name": "",
          "type": "string"
        }
      ],
      "stateMutability": "view",
      "type": "function"
    },
    {
      "inputs": [
        {
          "internalType": "uint256",
          "name": "tokenId",
          "type": "uint256"
        }
      ],
      "name": "tokenURI",
      "outputs": [
        {
          "internalType": "string",
          "name": "",
          "type": "string"
        }
      ],
      "stateMutability": "view",
      "type": "function"
    },
    {
      "inputs": [
        {
          "internalType": "address",
          "name": "from",
          "type": "address"
        },
        {
          "internalType": "address",
          "name": "to",
          "type": "address"
        },
        {
          "internalType": "uint256",
          "name": "tokenId",
          "type": "uint256"
        }
      ],
      "name": "transferFrom",
      "outputs": [],
      "stateMutability": "nonpayable",
      "type": "function"
    },
    {
      "inputs": [
        {
          "internalType": "address",
          "name": "newOwner",
          "type": "address"
        },
        {
          "internalType": "uint256",
          "name": "credentialId",
          "type": "uint256"
        }
      ],
      "name": "transferOwnership",
      "outputs": [],
      "stateMutability": "nonpayable",
      "type": "function"
    },
    {
      "inputs": [
        {
          "internalType": "uint256",
          "name": "credentialId",
          "type": "uint256"
        },
        {
          "internalType": "string",
          "name": "issuingBody",
          "type": "string"
        },
        {
          "internalType": "string",
          "name": "documentTemplate",
          "type": "string"
        }
      ],
      "name": "updateCustomData",
      "outputs": [],
      "stateMutability": "nonpayable",
      "type": "function"
    },
    {
      "inputs": [
        {
          "internalType": "address",
          "name": "recipient",
          "type": "address"
        },
        {
          "internalType": "bool",
          "name": "qualified",
          "type": "bool"
        }
      ],
      "name": "updateDiscountStatus",
      "outputs": [],
      "stateMutability": "nonpayable",
      "type": "function"
    },
    {
      "inputs": [
        {
          "internalType": "uint256",
          "name": "credentialId",
          "type": "uint256"
        }
      ],
      "name": "validateCredential",
      "outputs": [
        {
          "internalType": "bool",
          "name": "",
          "type": "bool"
        }
      ],
      "stateMutability": "view",
      "type": "function"
    }
  ],
  "bytecode": "0x608060405234801561001057600080fd5b506040518060400160405280601281526020017f41636164656d696343726564656e7469616c00000000000000000000000000008152506040518060400160405280600581526020017f4143524544000000000000000000000000000000000000000000000000000000815250816000908161008c91906104db565b50806001908161009c91906104db565b5050506100b26000801b3361011a60201b60201c565b506100e37f114e74f6ea3bd819998f78687bfcb11b140da08e9b7d222fa9c1f1ba1f2aa1223361011a60201b60201c565b506101147f241ecf16d79d0f8dbfb92cbc07fe17840425976cf0667f022fe9877caa831b083361011a60201b60201c565b506105ad565b600061012c838361021860201b60201c565b61020d5760016007600085815260200190815260200160002060000160008473ffffffffffffffffffffffffffffffffffffffff1673ffffffffffffffffffffffffffffffffffffffff16815260200190815260200160002060006101000a81548160ff0219169083151502179055506101aa61028360201b60201c565b73ffffffffffffffffffffffffffffffffffffffff168273ffffffffffffffffffffffffffffffffffffffff16847f2f8788117e7eff1d82e926ec794901d17c78024a50270940304540a733656f0d60405160405180910390a460019050610212565b600090505b92915050565b60006007600084815260200190815260200160002060000160008373ffffffffffffffffffffffffffffffffffffffff1673ffffffffffffffffffffffffffffffffffffffff16815260200190815260200160002060009054906101000a900460ff16905092915050565b600033905090565b600081519050919050565b7f4e487b7100000000000000000000000000000000000000000000000000000000600052604160045260246000fd5b7f4e487b7100000000000000000000000000000000000000000000000000000000600052602260045260246000fd5b6000600282049050600182168061030c57607f821691505b60208210810361031f5761031e6102c5565b5b50919050565b60008190508160005260206000209050919050565b60006020601f8301049050919050565b600082821b905092915050565b6000600883026103877fffffffffffffffffffffffffffffffffffffffffffffffffffffffffffffffff8261034a565b610391868361034a565b95508019841693508086168417925050509392505050565b6000819050919050565b6000819050919050565b60006103d86103d36103ce846103a9565b6103b3565b6103a9565b9050919050565b6000819050919050565b6103f2836103bd565b6104066103fe826103df565b848454610357565b825550505050565b600090565b61041b61040e565b6104268184846103e9565b505050565b5b8181101561044a5761043f600082610413565b60018101905061042c565b5050565b601f82111561048f5761046081610325565b6104698461033a565b81016020851015610478578190505b61048c6104848561033a565b83018261042b565b50505b505050565b600082821c905092915050565b60006104b260001984600802610494565b1980831691505092915050565b60006104cb83836104a1565b9150826002028217905092915050565b6104e48261028b565b67ffffffffffffffff8111156104fd576104fc610296565b5b61050782546102f4565b61051282828561044e565b600060209050601f8311600181146105455760008415610533578287015190505b61053d85826104bf565b8655506105a5565b601f19841661055386610325565b60005b8281101561057b57848901518255600182019150602085019450602081019050610556565b868310156105985784890151610594601f8916826104a1565b8355505b6001600288020188555050505b505050505050565b614e0d806105bc6000396000f3fe608060405234801561001057600080fd5b50600436106102745760003560e01c806370b22c2811610151578063a217fddf116100c3578063b88d4fde11610087578063b88d4fde1461080a578063c87b56dd14610826578063d547741f14610856578063e2c89a0d14610872578063e985e9c51461088e578063ec87621c146108be57610274565b8063a217fddf14610768578063a22cb46514610786578063a396bb42146107a2578063ae6e6114146107be578063b62e6584146107ee57610274565b80638d93fe61116101155780638d93fe61146106825780638e4f2e75146106b257806391d14854146106ce57806393c620f1146106fe57806395d89b411461072e5780639a6cccd21461074c57610274565b806370b22c28146105dc5780637236d339146105f857806378f79c801461061657806382aefa24146106465780638bcf979c1461066457610274565b8063248a9ca3116101ea5780634b5a726d116101ae5780634b5a726d146104ca57806359f0ec66146104fa5780635ece687d146105305780636352211e1461054c578063660d50701461057c57806370a08231146105ac57610274565b8063248a9ca31461042a5780632f2ff15d1461045a57806336568abe1461047657806340e5b52e1461049257806342842e0e146104ae57610274565b80630a2766801161023c5780630a27668014610343578063112a8e1c1461035f57806313a3135d1461039257806317fb1e3a146103ae578063180f8161146103de57806323b872dd1461040e57610274565b806301ffc9a71461027957806306fdde03146102a9578063081812fc146102c7578063095ea7b3146102f757806309edf69514610313575b600080fd5b610293600480360381019061028e9190613a40565b6108dc565b6040516102a09190613a88565b60405180910390f35b6102b16108ee565b6040516102be9190613b33565b60405180910390f35b6102e160048036038101906102dc9190613b8b565b610980565b6040516102ee9190613bf9565b60405180910390f35b610311600480360381019061030c9190613c40565b61099c565b005b61032d60048036038101906103289190613c40565b6109b2565b60405161033a9190613c8f565b60405180910390f35b61035d60048036038101906103589190613c40565b6109e3565b005b61037960048036038101906103749190613b8b565b610b0d565b6040516103899493929190613caa565b60405180910390f35b6103ac60048036038101906103a79190613e39565b610cd5565b005b6103c860048036038101906103c39190613e95565b610db3565b6040516103d59190613bf9565b60405180910390f35b6103f860048036038101906103f39190613b8b565b610de6565b6040516104059190613a88565b60405180910390f35b61042860048036038101906104239190613ec2565b610e06565b005b610444600480360381019061043f9190613f4b565b610f08565b6040516104519190613f87565b60405180910390f35b610474600480360381019061046f9190613fa2565b610f28565b005b610490600480360381019061048b9190613fa2565b610f4a565b005b6104ac60048036038101906104a79190613fe2565b610fc5565b005b6104c860048036038101906104c39190613ec2565b61107a565b005b6104e460048036038101906104df9190613b8b565b61109a565b6040516104f1919061417b565b60405180910390f35b610514600480360381019061050f9190613b8b565b611287565b604051610527979695949392919061419d565b60405180910390f35b61054a60048036038101906105459190614262565b6115f9565b005b61056660048036038101906105619190613b8b565b61167f565b6040516105739190613bf9565b60405180910390f35b610596600480360381019061059191906142a2565b611691565b6040516105a39190613c8f565b60405180910390f35b6105c660048036038101906105c19190613e95565b61176a565b6040516105d39190613c8f565b60405180910390f35b6105f660048036038101906105f19190613e39565b611824565b005b610600611989565b60405161060d9190613c8f565b60405180910390f35b610630600480360381019061062b9190613b8b565b611993565b60405161063d9190613a88565b60405180910390f35b61064e6119b6565b60405161065b9190613f87565b60405180910390f35b61066c6119da565b6040516106799190613f87565b60405180910390f35b61069c60048036038101906106979190613b8b565b6119fe565b6040516106a99190613a88565b60405180910390f35b6106cc60048036038101906106c79190613c40565b611aa8565b005b6106e860048036038101906106e39190613fa2565b611b55565b6040516106f59190613a88565b60405180910390f35b61071860048036038101906107139190613b8b565b611bc0565b6040516107259190613a88565b60405180910390f35b610736611bea565b6040516107439190613b33565b60405180910390f35b61076660048036038101906107619190614430565b611c7c565b005b610770611d6b565b60405161077d9190613f87565b60405180910390f35b6107a0600480360381019061079b9190614262565b611d72565b005b6107bc60048036038101906107b791906144bb565b611d88565b005b6107d860048036038101906107d39190613e95565b611ed8565b6040516107e59190613a88565b60405180910390f35b61080860048036038101906108039190613b8b565b611ef8565b005b610824600480360381019061081f919061459c565b61202c565b005b610840600480360381019061083b9190613b8b565b612051565b60405161084d9190613b33565b60405180910390f35b610870600480360381019061086b9190613fa2565b612164565b005b61088c60048036038101906108879190613b8b565b612186565b005b6108a860048036038101906108a391906144bb565b6122df565b6040516108b59190613a88565b60405180910390f35b6108c6612373565b6040516108d39190613f87565b60405180910390f35b60006108e782612397565b9050919050565b6060600080546108fd9061464e565b80601f01602080910402602001604051908101604052809291908181526020018280546109299061464e565b80156109765780601f1061094b57610100808354040283529160200191610976565b820191906000526020600020905b81548152906001019060200180831161095957829003601f168201915b5050505050905090565b600061098b82612411565b5061099582612499565b9050919050565b6109ae82826109a96124d6565b6124de565b5050565b600e60205281600052604060002081815481106109ce57600080fd5b90600052602060002001600091509150505481565b600073ffffffffffffffffffffffffffffffffffffffff16610a04826124f0565b73ffffffffffffffffffffffffffffffffffffffff1603610a5a576040517f08c379a0000000000000000000000000000000000000000000000000000000008152600401610a51906146cb565b60405180910390fd5b610a6381611993565b15610aa3576040517f08c379a0000000000000000000000000000000000000000000000000000000008152600401610a9a90614737565b60405180910390fd5b610aae33838361252d565b8173ffffffffffffffffffffffffffffffffffffffff163373ffffffffffffffffffffffffffffffffffffffff16827f0bf7c90b7c05a439fe98d61270cade3456842b13bd42a5a86afcfa437411839d60405160405180910390a45050565b600c602052806000526040600020600091509050806000018054610b309061464e565b80601f0160208091040260200160405190810160405280929190818152602001828054610b5c9061464e565b8015610ba95780601f10610b7e57610100808354040283529160200191610ba9565b820191906000526020600020905b815481529060010190602001808311610b8c57829003601f168201915b505050505090806001018054610bbe9061464e565b80601f0160208091040260200160405190810160405280929190818152602001828054610bea9061464e565b8015610c375780601f10610c0c57610100808354040283529160200191610c37565b820191906000526020600020905b815481529060010190602001808311610c1a57829003601f168201915b505050505090806002018054610c4c9061464e565b80601f0160208091040260200160405190810160405280929190818152602001828054610c789061464e565b8015610cc55780601f10610c9a57610100808354040283529160200191610cc5565b820191906000526020600020905b815481529060010190602001808311610ca857829003601f168201915b5050505050908060030154905084565b7f241ecf16d79d0f8dbfb92cbc07fe17840425976cf0667f022fe9877caa831b08610cff8161269a565b600073ffffffffffffffffffffffffffffffffffffffff16610d20846124f0565b73ffffffffffffffffffffffffffffffffffffffff1603610d76576040517f08c379a0000000000000000000000000000000000000000000000000000000008152600401610d6d906146cb565b60405180910390fd5b827f6fde9a64c2c93871aa59ec0395e305c7b482a6d3e2e4cc371b9d82eb11a9f20a83604051610da69190613b33565b60405180910390a2505050565b600d6020528060005260406000206000915054906101000a900473ffffffffffffffffffffffffffffffffffffffff1681565b600b6020528060005260406000206000915054906101000a900460ff1681565b600073ffffffffffffffffffffffffffffffffffffffff168273ffffffffffffffffffffffffffffffffffffffff1603610e785760006040517f64a0ae92000000000000000000000000000000000000000000000000000000008152600401610e6f9190613bf9565b60405180910390fd5b6000610e8c8383610e876124d6565b6126ae565b90508373ffffffffffffffffffffffffffffffffffffffff168173ffffffffffffffffffffffffffffffffffffffff1614610f02578382826040517f64283d7b000000000000000000000000000000000000000000000000000000008152600401610ef993929190614757565b60405180910390fd5b50505050565b600060076000838152602001908152602001600020600101549050919050565b610f3182610f08565b610f3a8161269a565b610f4483836128c8565b50505050565b610f526124d6565b73ffffffffffffffffffffffffffffffffffffffff168173ffffffffffffffffffffffffffffffffffffffff1614610fb6576040517f6697b23200000000000000000000000000000000000000000000000000000000815260040160405180910390fd5b610fc082826129ba565b505050565b7f241ecf16d79d0f8dbfb92cbc07fe17840425976cf0667f022fe9877caa831b08610fef8161269a565b604051806080016040528086815260200185815260200184815260200183815250600c60008881526020019081526020016000206000820151816000019081611038919061493a565b50602082015181600101908161104e919061493a565b506040820151816002019081611064919061493a565b5060608201518160030155905050505050505050565b6110958383836040518060200160405280600081525061202c565b505050565b6110a261394f565b600c60008381526020019081526020016000206040518060800160405290816000820180546110d09061464e565b80601f01602080910402602001604051908101604052809291908181526020018280546110fc9061464e565b80156111495780601f1061111e57610100808354040283529160200191611149565b820191906000526020600020905b81548152906001019060200180831161112c57829003601f168201915b505050505081526020016001820180546111629061464e565b80601f016020809104026020016040519081016040528092919081815260200182805461118e9061464e565b80156111db5780601f106111b0576101008083540402835291602001916111db565b820191906000526020600020905b8154815290600101906020018083116111be57829003601f168201915b505050505081526020016002820180546111f49061464e565b80601f01602080910402602001604051908101604052809291908181526020018280546112209061464e565b801561126d5780601f106112425761010080835404028352916020019161126d565b820191906000526020600020905b81548152906001019060200180831161125057829003601f168201915b505050505081526020016003820154815250509050919050565b60096020528060005260406000206000915090508060000180546112aa9061464e565b80601f01602080910402602001604051908101604052809291908181526020018280546112d69061464e565b80156113235780601f106112f857610100808354040283529160200191611323565b820191906000526020600020905b81548152906001019060200180831161130657829003601f168201915b5050505050908060010180546113389061464e565b80601f01602080910402602001604051908101604052809291908181526020018280546113649061464e565b80156113b15780601f10611386576101008083540402835291602001916113b1565b820191906000526020600020905b81548152906001019060200180831161139457829003601f168201915b5050505050908060020180546113c69061464e565b80601f01602080910402602001604051908101604052809291908181526020018280546113f29061464e565b801561143f5780601f106114145761010080835404028352916020019161143f565b820191906000526020600020905b81548152906001019060200180831161142257829003601f168201915b5050505050908060030180546114549061464e565b80601f01602080910402602001604051908101604052809291908181526020018280546114809061464e565b80156114cd5780601f106114a2576101008083540402835291602001916114cd565b820191906000526020600020905b8154815290600101906020018083116114b057829003601f168201915b5050505050908060040180546114e29061464e565b80601f016020809104026020016040519081016040528092919081815260200182805461150e9061464e565b801561155b5780601f106115305761010080835404028352916020019161155b565b820191906000526020600020905b81548152906001019060200180831161153e57829003601f168201915b5050505050908060050154908060060180546115769061464e565b80601f01602080910402602001604051908101604052809291908181526020018280546115a29061464e565b80156115ef5780601f106115c4576101008083540402835291602001916115ef565b820191906000526020600020905b8154815290600101906020018083116115d257829003601f168201915b5050505050905087565b7f241ecf16d79d0f8dbfb92cbc07fe17840425976cf0667f022fe9877caa831b086116238161269a565b81600a60008573ffffffffffffffffffffffffffffffffffffffff1673ffffffffffffffffffffffffffffffffffffffff16815260200190815260200160002060006101000a81548160ff021916908315150217905550505050565b600061168a82612411565b9050919050565b60007f114e74f6ea3bd819998f78687bfcb11b140da08e9b7d222fa9c1f1ba1f2aa1226116bd8161269a565b600a60008c73ffffffffffffffffffffffffffffffffffffffff1673ffffffffffffffffffffffffffffffffffffffff16815260200190815260200160002060009054906101000a900460ff16611749576040517f08c379a000000000000000000000000000000000000000000000000000000000815260040161174090614a7e565b60405180910390fd5b61175a8b8b8b8b8b8b8b8b8b612aad565b9150509998505050505050505050565b60008073ffffffffffffffffffffffffffffffffffffffff168273ffffffffffffffffffffffffffffffffffffffff16036117dd5760006040517f89c62b640000000000000000000000000000000000000000000000000000000081526004016117d49190613bf9565b60405180910390fd5b600360008373ffffffffffffffffffffffffffffffffffffffff1673ffffffffffffffffffffffffffffffffffffffff168152602001908152602001600020549050919050565b7f241ecf16d79d0f8dbfb92cbc07fe17840425976cf0667f022fe9877caa831b0861184e8161269a565b600073ffffffffffffffffffffffffffffffffffffffff1661186f846124f0565b73ffffffffffffffffffffffffffffffffffffffff16036118c5576040517f08c379a00000000000000000000000000000000000000000000000000000000081526004016118bc906146cb565b60405180910390fd5b6118ce83612c19565b60096000848152602001908152602001600020600080820160006118f29190613977565b6001820160006119029190613977565b6002820160006119129190613977565b6003820160006119229190613977565b6004820160006119329190613977565b600582016000905560068201600061194a9190613977565b5050827ff41502b279bdec641c0bb60b24b410e51032e1243b860fcace65bf34b18e84698360405161197c9190613b33565b60405180910390a2505050565b6000600854905090565b600042600960008481526020019081526020016000206005015411159050919050565b7f114e74f6ea3bd819998f78687bfcb11b140da08e9b7d222fa9c1f1ba1f2aa12281565b7fae4a0595970935aa5495afbbb72e5f1f6ff1062766b4a3028c0c9b7d5cf7e34581565b60008073ffffffffffffffffffffffffffffffffffffffff16611a20836124f0565b73ffffffffffffffffffffffffffffffffffffffff1603611a76576040517f08c379a0000000000000000000000000000000000000000000000000000000008152600401611a6d906146cb565b60405180910390fd5b611a7f82611993565b158015611aa15750426009600084815260200190815260200160002060050154115b9050919050565b7fae4a0595970935aa5495afbbb72e5f1f6ff1062766b4a3028c0c9b7d5cf7e345611ad28161269a565b600e60008473ffffffffffffffffffffffffffffffffffffffff1673ffffffffffffffffffffffffffffffffffffffff168152602001908152602001600020829080600181540180825580915050600190039060005260206000200160009091909190915055611b4183612c9f565b15611b5057611b4f83612cee565b5b505050565b60006007600084815260200190815260200160002060000160008373ffffffffffffffffffffffffffffffffffffffff1673ffffffffffffffffffffffffffffffffffffffff16815260200190815260200160002060009054906101000a900460ff16905092915050565b6000600b600083815260200190815260200160002060009054906101000a900460ff169050919050565b606060018054611bf99061464e565b80601f0160208091040260200160405190810160405280929190818152602001828054611c259061464e565b8015611c725780601f10611c4757610100808354040283529160200191611c72565b820191906000526020600020905b815481529060010190602001808311611c5557829003601f168201915b5050505050905090565b7f241ecf16d79d0f8dbfb92cbc07fe17840425976cf0667f022fe9877caa831b08611ca68161269a565b600073ffffffffffffffffffffffffffffffffffffffff16611cc7856124f0565b73ffffffffffffffffffffffffffffffffffffffff1603611d1d576040517f08c379a0000000000000000000000000000000000000000000000000000000008152600401611d14906146cb565b60405180910390fd5b81600960008681526020019081526020016000206004019081611d40919061493a565b5082600960008681526020019081526020016000206006019081611d64919061493a565b5050505050565b6000801b81565b611d84611d7d6124d6565b8383612cf1565b5050565b600073ffffffffffffffffffffffffffffffffffffffff16600d60008473ffffffffffffffffffffffffffffffffffffffff1673ffffffffffffffffffffffffffffffffffffffff16815260200190815260200160002060009054906101000a900473ffffffffffffffffffffffffffffffffffffffff1673ffffffffffffffffffffffffffffffffffffffff1614611e56576040517f08c379a0000000000000000000000000000000000000000000000000000000008152600401611e4d90614b10565b60405180910390fd5b80600d60008473ffffffffffffffffffffffffffffffffffffffff1673ffffffffffffffffffffffffffffffffffffffff16815260200190815260200160002060006101000a81548173ffffffffffffffffffffffffffffffffffffffff021916908373ffffffffffffffffffffffffffffffffffffffff1602179055505050565b600a6020528060005260406000206000915054906101000a900460ff1681565b600073ffffffffffffffffffffffffffffffffffffffff16611f19826124f0565b73ffffffffffffffffffffffffffffffffffffffff1603611f6f576040517f08c379a0000000000000000000000000000000000000000000000000000000008152600401611f66906146cb565b60405180910390fd5b600b600082815260200190815260200160002060009054906101000a900460ff1615611fd0576040517f08c379a0000000000000000000000000000000000000000000000000000000008152600401611fc790614b7c565b60405180910390fd5b6001600b600083815260200190815260200160002060006101000a81548160ff021916908315150217905550807f44866e5718e11dbd7b7f7d50b05e9e1c1f5c5c1e2c9e6cc4fa16f728a614ee5c60405160405180910390a250565b612037848484610e06565b61204b6120426124d6565b85858585612e60565b50505050565b606061205c82612411565b50600060066000848152602001908152602001600020805461207d9061464e565b80601f01602080910402602001604051908101604052809291908181526020018280546120a99061464e565b80156120f65780601f106120cb576101008083540402835291602001916120f6565b820191906000526020600020905b8154815290600101906020018083116120d957829003601f168201915b505050505090506000612107613011565b9050600081510361211c57819250505061215f565b600082511115612151578082604051602001612139929190614bd8565b6040516020818303038152906040529250505061215f565b61215a84613028565b925050505b919050565b61216d82610f08565b6121768161269a565b61218083836129ba565b50505050565b7f114e74f6ea3bd819998f78687bfcb11b140da08e9b7d222fa9c1f1ba1f2aa1226121b08161269a565b600073ffffffffffffffffffffffffffffffffffffffff166121d1836124f0565b73ffffffffffffffffffffffffffffffffffffffff1603612227576040517f08c379a000000000000000000000000000000000000000000000000000000000815260040161221e906146cb565b60405180910390fd5b61223082612c19565b60096000838152602001908152602001600020600080820160006122549190613977565b6001820160006122649190613977565b6002820160006122749190613977565b6003820160006122849190613977565b6004820160006122949190613977565b60058201600090556006820160006122ac9190613977565b5050817f604575885ee1f1053f84c7caf3e0d5c7169e0cffe597e9f2900ce397a832daec60405160405180910390a25050565b6000600560008473ffffffffffffffffffffffffffffffffffffffff1673ffffffffffffffffffffffffffffffffffffffff16815260200190815260200160002060008373ffffffffffffffffffffffffffffffffffffffff1673ffffffffffffffffffffffffffffffffffffffff16815260200190815260200160002060009054906101000a900460ff16905092915050565b7f241ecf16d79d0f8dbfb92cbc07fe17840425976cf0667f022fe9877caa831b0881565b60007f7965db0b000000000000000000000000000000000000000000000000000000007bffffffffffffffffffffffffffffffffffffffffffffffffffffffff1916827bffffffffffffffffffffffffffffffffffffffffffffffffffffffff1916148061240a575061240982613091565b5b9050919050565b60008061241d836124f0565b9050600073ffffffffffffffffffffffffffffffffffffffff168173ffffffffffffffffffffffffffffffffffffffff160361249057826040517f7e2732890000000000000000000000000000000000000000000000000000000081526004016124879190613c8f565b60405180910390fd5b80915050919050565b60006004600083815260200190815260200160002060009054906101000a900473ffffffffffffffffffffffffffffffffffffffff169050919050565b600033905090565b6124eb83838360016130f2565b505050565b60006002600083815260200190815260200160002060009054906101000a900473ffffffffffffffffffffffffffffffffffffffff169050919050565b600073ffffffffffffffffffffffffffffffffffffffff168273ffffffffffffffffffffffffffffffffffffffff160361259f5760006040517f64a0ae920000000000000000000000000000000000000000000000000000000081526004016125969190613bf9565b60405180910390fd5b60006125ad838360006126ae565b9050600073ffffffffffffffffffffffffffffffffffffffff168173ffffffffffffffffffffffffffffffffffffffff160361262057816040517f7e2732890000000000000000000000000000000000000000000000000000000081526004016126179190613c8f565b60405180910390fd5b8373ffffffffffffffffffffffffffffffffffffffff168173ffffffffffffffffffffffffffffffffffffffff1614612694578382826040517f64283d7b00000000000000000000000000000000000000000000000000000000815260040161268b93929190614757565b60405180910390fd5b50505050565b6126ab816126a66124d6565b6132b7565b50565b6000806126ba846124f0565b9050600073ffffffffffffffffffffffffffffffffffffffff168373ffffffffffffffffffffffffffffffffffffffff16146126fc576126fb818486613308565b5b600073ffffffffffffffffffffffffffffffffffffffff168173ffffffffffffffffffffffffffffffffffffffff161461278d5761273e6000856000806130f2565b6001600360008373ffffffffffffffffffffffffffffffffffffffff1673ffffffffffffffffffffffffffffffffffffffff168152602001908152602001600020600082825403925050819055505b600073ffffffffffffffffffffffffffffffffffffffff168573ffffffffffffffffffffffffffffffffffffffff1614612810576001600360008773ffffffffffffffffffffffffffffffffffffffff1673ffffffffffffffffffffffffffffffffffffffff168152602001908152602001600020600082825401925050819055505b846002600086815260200190815260200160002060006101000a81548173ffffffffffffffffffffffffffffffffffffffff021916908373ffffffffffffffffffffffffffffffffffffffff160217905550838573ffffffffffffffffffffffffffffffffffffffff168273ffffffffffffffffffffffffffffffffffffffff167fddf252ad1be2c89b69c2b068fc378daa952ba7f163c4a11628f55a4df523b3ef60405160405180910390a4809150509392505050565b60006128d48383611b55565b6129af5760016007600085815260200190815260200160002060000160008473ffffffffffffffffffffffffffffffffffffffff1673ffffffffffffffffffffffffffffffffffffffff16815260200190815260200160002060006101000a81548160ff02191690831515021790555061294c6124d6565b73ffffffffffffffffffffffffffffffffffffffff168273ffffffffffffffffffffffffffffffffffffffff16847f2f8788117e7eff1d82e926ec794901d17c78024a50270940304540a733656f0d60405160405180910390a4600190506129b4565b600090505b92915050565b60006129c68383611b55565b15612aa25760006007600085815260200190815260200160002060000160008473ffffffffffffffffffffffffffffffffffffffff1673ffffffffffffffffffffffffffffffffffffffff16815260200190815260200160002060006101000a81548160ff021916908315150217905550612a3f6124d6565b73ffffffffffffffffffffffffffffffffffffffff168273ffffffffffffffffffffffffffffffffffffffff16847ff6391f5c32d9c69d2a47ea670b442974b53935d1edc7fd64eb21e047a839171b60405160405180910390a460019050612aa7565b600090505b92915050565b600060086000815480929190612ac290614c2b565b919050555060006008549050612ad88b826133cc565b612ae2818b6134c5565b6040518060e001604052808a815260200189815260200188815260200187815260200185815260200186815260200184815250600960008381526020019081526020016000206000820151816000019081612b3d919061493a565b506020820151816001019081612b53919061493a565b506040820151816002019081612b69919061493a565b506060820151816003019081612b7f919061493a565b506080820151816004019081612b95919061493a565b5060a0820151816005015560c0820151816006019081612bb5919061493a565b50905050808b73ffffffffffffffffffffffffffffffffffffffff167f878af15bdbd77fda76749958672993937bbbcbd73501fdc8989af2ff8c95aebe8c604051612c009190613b33565b60405180910390a3809150509998505050505050505050565b6000612c2860008360006126ae565b9050600073ffffffffffffffffffffffffffffffffffffffff168173ffffffffffffffffffffffffffffffffffffffff1603612c9b57816040517f7e273289000000000000000000000000000000000000000000000000000000008152600401612c929190613c8f565b60405180910390fd5b5050565b60006005600e60008473ffffffffffffffffffffffffffffffffffffffff1673ffffffffffffffffffffffffffffffffffffffff16815260200190815260200160002080549050149050919050565b50565b600073ffffffffffffffffffffffffffffffffffffffff168273ffffffffffffffffffffffffffffffffffffffff1603612d6257816040517f5b08ba18000000000000000000000000000000000000000000000000000000008152600401612d599190613bf9565b60405180910390fd5b80600560008573ffffffffffffffffffffffffffffffffffffffff1673ffffffffffffffffffffffffffffffffffffffff16815260200190815260200160002060008473ffffffffffffffffffffffffffffffffffffffff1673ffffffffffffffffffffffffffffffffffffffff16815260200190815260200160002060006101000a81548160ff0219169083151502179055508173ffffffffffffffffffffffffffffffffffffffff168373ffffffffffffffffffffffffffffffffffffffff167f17307eab39ab6107e8899845ad3d59bd9653f200f220920489ca2b5937696c3183604051612e539190613a88565b60405180910390a3505050565b60008373ffffffffffffffffffffffffffffffffffffffff163b111561300a578273ffffffffffffffffffffffffffffffffffffffff1663150b7a02868685856040518563ffffffff1660e01b8152600401612ebf9493929190614cc8565b6020604051808303816000875af1925050508015612efb57506040513d601f19601f82011682018060405250810190612ef89190614d29565b60015b612f7f573d8060008114612f2b576040519150601f19603f3d011682016040523d82523d6000602084013e612f30565b606091505b506000815103612f7757836040517f64a0ae92000000000000000000000000000000000000000000000000000000008152600401612f6e9190613bf9565b60405180910390fd5b805160208201fd5b63150b7a0260e01b7bffffffffffffffffffffffffffffffffffffffffffffffffffffffff1916817bffffffffffffffffffffffffffffffffffffffffffffffffffffffff19161461300857836040517f64a0ae92000000000000000000000000000000000000000000000000000000008152600401612fff9190613bf9565b60405180910390fd5b505b5050505050565b606060405180602001604052806000815250905090565b606061303382612411565b50600061303e613011565b9050600081511161305e5760405180602001604052806000815250613089565b8061306884613521565b604051602001613079929190614bd8565b6040516020818303038152906040525b915050919050565b6000634906490660e01b7bffffffffffffffffffffffffffffffffffffffffffffffffffffffff1916827bffffffffffffffffffffffffffffffffffffffffffffffffffffffff191614806130eb57506130ea826135ef565b5b9050919050565b808061312b5750600073ffffffffffffffffffffffffffffffffffffffff168273ffffffffffffffffffffffffffffffffffffffff1614155b1561325f57600061313b84612411565b9050600073ffffffffffffffffffffffffffffffffffffffff168373ffffffffffffffffffffffffffffffffffffffff16141580156131a657508273ffffffffffffffffffffffffffffffffffffffff168173ffffffffffffffffffffffffffffffffffffffff1614155b80156131b957506131b781846122df565b155b156131fb57826040517fa9fbf51f0000000000000000000000000000000000000000000000000000000081526004016131f29190613bf9565b60405180910390fd5b811561325d57838573ffffffffffffffffffffffffffffffffffffffff168273ffffffffffffffffffffffffffffffffffffffff167f8c5be1e5ebec7d5bd14f71427d1e84f3dd0314c0f7b2291e5b200ac8c7c3b92560405160405180910390a45b505b836004600085815260200190815260200160002060006101000a81548173ffffffffffffffffffffffffffffffffffffffff021916908373ffffffffffffffffffffffffffffffffffffffff16021790555050505050565b6132c18282611b55565b6133045780826040517fe2517d3f0000000000000000000000000000000000000000000000000000000081526004016132fb929190614d56565b60405180910390fd5b5050565b6133138383836136d1565b6133c757600073ffffffffffffffffffffffffffffffffffffffff168373ffffffffffffffffffffffffffffffffffffffff160361338857806040517f7e27328900000000000000000000000000000000000000000000000000000000815260040161337f9190613c8f565b60405180910390fd5b81816040517f177e802f0000000000000000000000000000000000000000000000000000000081526004016133be929190614d7f565b60405180910390fd5b505050565b600073ffffffffffffffffffffffffffffffffffffffff168273ffffffffffffffffffffffffffffffffffffffff160361343e5760006040517f64a0ae920000000000000000000000000000000000000000000000000000000081526004016134359190613bf9565b60405180910390fd5b600061344c838360006126ae565b9050600073ffffffffffffffffffffffffffffffffffffffff168173ffffffffffffffffffffffffffffffffffffffff16146134c05760006040517f73c6ac6e0000000000000000000000000000000000000000000000000000000081526004016134b79190613bf9565b60405180910390fd5b505050565b806006600084815260200190815260200160002090816134e5919061493a565b507ff8e1a15aba9398e019f0b49df1a4fde98ee17ae345cb5f6b5e2c27f5033e8ce7826040516135159190613c8f565b60405180910390a15050565b60606000600161353084613792565b01905060008167ffffffffffffffff81111561354f5761354e613d0e565b5b6040519080825280601f01601f1916602001820160405280156135815781602001600182028036833780820191505090505b509050600082602083010190505b6001156135e4578080600190039150507f3031323334353637383961626364656600000000000000000000000000000000600a86061a8153600a85816135d8576135d7614da8565b5b0494506000850361358f575b819350505050919050565b60007f80ac58cd000000000000000000000000000000000000000000000000000000007bffffffffffffffffffffffffffffffffffffffffffffffffffffffff1916827bffffffffffffffffffffffffffffffffffffffffffffffffffffffff191614806136ba57507f5b5e139f000000000000000000000000000000000000000000000000000000007bffffffffffffffffffffffffffffffffffffffffffffffffffffffff1916827bffffffffffffffffffffffffffffffffffffffffffffffffffffffff1916145b806136ca57506136c9826138e5565b5b9050919050565b60008073ffffffffffffffffffffffffffffffffffffffff168373ffffffffffffffffffffffffffffffffffffffff161415801561378957508273ffffffffffffffffffffffffffffffffffffffff168473ffffffffffffffffffffffffffffffffffffffff16148061374a575061374984846122df565b5b8061378857508273ffffffffffffffffffffffffffffffffffffffff1661377083612499565b73ffffffffffffffffffffffffffffffffffffffff16145b5b90509392505050565b600080600090507a184f03e93ff9f4daa797ed6e38ed64bf6a1f01000000000000000083106137f0577a184f03e93ff9f4daa797ed6e38ed64bf6a1f01000000000000000083816137e6576137e5614da8565b5b0492506040810190505b6d04ee2d6d415b85acef8100000000831061382d576d04ee2d6d415b85acef8100000000838161382357613822614da8565b5b0492506020810190505b662386f26fc10000831061385c57662386f26fc10000838161385257613851614da8565b5b0492506010810190505b6305f5e1008310613885576305f5e100838161387b5761387a614da8565b5b0492506008810190505b61271083106138aa5761271083816138a05761389f614da8565b5b0492506004810190505b606483106138cd57606483816138c3576138c2614da8565b5b0492506002810190505b600a83106138dc576001810190505b80915050919050565b60007f01ffc9a7000000000000000000000000000000000000000000000000000000007bffffffffffffffffffffffffffffffffffffffffffffffffffffffff1916827bffffffffffffffffffffffffffffffffffffffffffffffffffffffff1916149050919050565b6040518060800160405280606081526020016060815260200160608152602001600081525090565b5080546139839061464e565b6000825580601f1061399557506139b4565b601f0160209004906000526020600020908101906139b391906139b7565b5b50565b5b808211156139d05760008160009055506001016139b8565b5090565b6000604051905090565b600080fd5b600080fd5b60007fffffffff0000000000000000000000000000000000000000000000000000000082169050919050565b613a1d816139e8565b8114613a2857600080fd5b50565b600081359050613a3a81613a14565b92915050565b600060208284031215613a5657613a556139de565b5b6000613a6484828501613a2b565b91505092915050565b60008115159050919050565b613a8281613a6d565b82525050565b6000602082019050613a9d6000830184613a79565b92915050565b600081519050919050565b600082825260208201905092915050565b60005b83811015613add578082015181840152602081019050613ac2565b60008484015250505050565b6000601f19601f8301169050919050565b6000613b0582613aa3565b613b0f8185613aae565b9350613b1f818560208601613abf565b613b2881613ae9565b840191505092915050565b60006020820190508181036000830152613b4d8184613afa565b905092915050565b6000819050919050565b613b6881613b55565b8114613b7357600080fd5b50565b600081359050613b8581613b5f565b92915050565b600060208284031215613ba157613ba06139de565b5b6000613baf84828501613b76565b91505092915050565b600073ffffffffffffffffffffffffffffffffffffffff82169050919050565b6000613be382613bb8565b9050919050565b613bf381613bd8565b82525050565b6000602082019050613c0e6000830184613bea565b92915050565b613c1d81613bd8565b8114613c2857600080fd5b50565b600081359050613c3a81613c14565b92915050565b60008060408385031215613c5757613c566139de565b5b6000613c6585828601613c2b565b9250506020613c7685828601613b76565b9150509250929050565b613c8981613b55565b82525050565b6000602082019050613ca46000830184613c80565b92915050565b60006080820190508181036000830152613cc48187613afa565b90508181036020830152613cd88186613afa565b90508181036040830152613cec8185613afa565b9050613cfb6060830184613c80565b95945050505050565b600080fd5b600080fd5b7f4e487b7100000000000000000000000000000000000000000000000000000000600052604160045260246000fd5b613d4682613ae9565b810181811067ffffffffffffffff82111715613d6557613d64613d0e565b5b80604052505050565b6000613d786139d4565b9050613d848282613d3d565b919050565b600067ffffffffffffffff821115613da457613da3613d0e565b5b613dad82613ae9565b9050602081019050919050565b82818337600083830152505050565b6000613ddc613dd784613d89565b613d6e565b905082815260208101848484011115613df857613df7613d09565b5b613e03848285613dba565b509392505050565b600082601f830112613e2057613e1f613d04565b5b8135613e30848260208601613dc9565b91505092915050565b60008060408385031215613e5057613e4f6139de565b5b6000613e5e85828601613b76565b925050602083013567ffffffffffffffff811115613e7f57613e7e6139e3565b5b613e8b85828601613e0b565b9150509250929050565b600060208284031215613eab57613eaa6139de565b5b6000613eb984828501613c2b565b91505092915050565b600080600060608486031215613edb57613eda6139de565b5b6000613ee986828701613c2b565b9350506020613efa86828701613c2b565b9250506040613f0b86828701613b76565b9150509250925092565b6000819050919050565b613f2881613f15565b8114613f3357600080fd5b50565b600081359050613f4581613f1f565b92915050565b600060208284031215613f6157613f606139de565b5b6000613f6f84828501613f36565b91505092915050565b613f8181613f15565b82525050565b6000602082019050613f9c6000830184613f78565b92915050565b60008060408385031215613fb957613fb86139de565b5b6000613fc785828601613f36565b9250506020613fd885828601613c2b565b9150509250929050565b600080600080600060a08688031215613ffe57613ffd6139de565b5b600061400c88828901613b76565b955050602086013567ffffffffffffffff81111561402d5761402c6139e3565b5b61403988828901613e0b565b945050604086013567ffffffffffffffff81111561405a576140596139e3565b5b61406688828901613e0b565b935050606086013567ffffffffffffffff811115614087576140866139e3565b5b61409388828901613e0b565b92505060806140a488828901613b76565b9150509295509295909350565b600082825260208201905092915050565b60006140cd82613aa3565b6140d781856140b1565b93506140e7818560208601613abf565b6140f081613ae9565b840191505092915050565b61410481613b55565b82525050565b6000608083016000830151848203600086015261412782826140c2565b9150506020830151848203602086015261414182826140c2565b9150506040830151848203604086015261415b82826140c2565b915050606083015161417060608601826140fb565b508091505092915050565b60006020820190508181036000830152614195818461410a565b905092915050565b600060e08201905081810360008301526141b7818a613afa565b905081810360208301526141cb8189613afa565b905081810360408301526141df8188613afa565b905081810360608301526141f38187613afa565b905081810360808301526142078186613afa565b905061421660a0830185613c80565b81810360c08301526142288184613afa565b905098975050505050505050565b61423f81613a6d565b811461424a57600080fd5b50565b60008135905061425c81614236565b92915050565b60008060408385031215614279576142786139de565b5b600061428785828601613c2b565b92505060206142988582860161424d565b9150509250929050565b60008060008060008060008060006101208a8c0312156142c5576142c46139de565b5b60006142d38c828d01613c2b565b99505060208a013567ffffffffffffffff8111156142f4576142f36139e3565b5b6143008c828d01613e0b565b98505060408a013567ffffffffffffffff811115614321576143206139e3565b5b61432d8c828d01613e0b565b97505060608a013567ffffffffffffffff81111561434e5761434d6139e3565b5b61435a8c828d01613e0b565b96505060808a013567ffffffffffffffff81111561437b5761437a6139e3565b5b6143878c828d01613e0b565b95505060a08a013567ffffffffffffffff8111156143a8576143a76139e3565b5b6143b48c828d01613e0b565b94505060c06143c58c828d01613b76565b93505060e08a013567ffffffffffffffff8111156143e6576143e56139e3565b5b6143f28c828d01613e0b565b9250506101008a013567ffffffffffffffff811115614414576144136139e3565b5b6144208c828d01613e0b565b9150509295985092959850929598565b600080600060608486031215614449576144486139de565b5b600061445786828701613b76565b935050602084013567ffffffffffffffff811115614478576144776139e3565b5b61448486828701613e0b565b925050604084013567ffffffffffffffff8111156144a5576144a46139e3565b5b6144b186828701613e0b565b9150509250925092565b600080604083850312156144d2576144d16139de565b5b60006144e085828601613c2b565b92505060206144f185828601613c2b565b9150509250929050565b600067ffffffffffffffff82111561451657614515613d0e565b5b61451f82613ae9565b9050602081019050919050565b600061453f61453a846144fb565b613d6e565b90508281526020810184848401111561455b5761455a613d09565b5b614566848285613dba565b509392505050565b600082601f83011261458357614582613d04565b5b813561459384826020860161452c565b91505092915050565b600080600080608085870312156145b6576145b56139de565b5b60006145c487828801613c2b565b94505060206145d587828801613c2b565b93505060406145e687828801613b76565b925050606085013567ffffffffffffffff811115614607576146066139e3565b5b6146138782880161456e565b91505092959194509250565b7f4e487b7100000000000000000000000000000000000000000000000000000000600052602260045260246000fd5b6000600282049050600182168061466657607f821691505b6020821081036146795761467861461f565b5b50919050565b7f43726564656e7469616c20646f6573206e6f7420657869737400000000000000600082015250565b60006146b5601983613aae565b91506146c08261467f565b602082019050919050565b600060208201905081810360008301526146e4816146a8565b9050919050565b7f43726564656e7469616c20686173206578706972656400000000000000000000600082015250565b6000614721601683613aae565b915061472c826146eb565b602082019050919050565b6000602082019050818103600083015261475081614714565b9050919050565b600060608201905061476c6000830186613bea565b6147796020830185613c80565b6147866040830184613bea565b949350505050565b60008190508160005260206000209050919050565b60006020601f8301049050919050565b600082821b905092915050565b6000600883026147f07fffffffffffffffffffffffffffffffffffffffffffffffffffffffffffffffff826147b3565b6147fa86836147b3565b95508019841693508086168417925050509392505050565b6000819050919050565b600061483761483261482d84613b55565b614812565b613b55565b9050919050565b6000819050919050565b6148518361481c565b61486561485d8261483e565b8484546147c0565b825550505050565b600090565b61487a61486d565b614885818484614848565b505050565b5b818110156148a95761489e600082614872565b60018101905061488b565b5050565b601f8211156148ee576148bf8161478e565b6148c8846147a3565b810160208510156148d7578190505b6148eb6148e3856147a3565b83018261488a565b50505b505050565b600082821c905092915050565b6000614911600019846008026148f3565b1980831691505092915050565b600061492a8383614900565b9150826002028217905092915050565b61494382613aa3565b67ffffffffffffffff81111561495c5761495b613d0e565b5b614966825461464e565b6149718282856148ad565b600060209050601f8311600181146149a45760008415614992578287015190505b61499c858261491e565b865550614a04565b601f1984166149b28661478e565b60005b828110156149da578489015182556001820191506020850194506020810190506149b5565b868310156149f757848901516149f3601f891682614900565b8355505b6001600288020188555050505b505050505050565b7f526563697069656e74206e6f74207175616c696669656420666f72206469736360008201527f6f756e7400000000000000000000000000000000000000000000000000000000602082015250565b6000614a68602483613aae565b9150614a7382614a0c565b604082019050919050565b60006020820190508181036000830152614a9781614a5b565b9050919050565b7f5265666572656520616c7265616479206c696e6b656420746f2061207265666560008201527f7272657200000000000000000000000000000000000000000000000000000000602082015250565b6000614afa602483613aae565b9150614b0582614a9e565b604082019050919050565b60006020820190508181036000830152614b2981614aed565b9050919050565b7f43726564656e7469616c20616c72656164792072656465656d65640000000000600082015250565b6000614b66601b83613aae565b9150614b7182614b30565b602082019050919050565b60006020820190508181036000830152614b9581614b59565b9050919050565b600081905092915050565b6000614bb282613aa3565b614bbc8185614b9c565b9350614bcc818560208601613abf565b80840191505092915050565b6000614be48285614ba7565b9150614bf08284614ba7565b91508190509392505050565b7f4e487b7100000000000000000000000000000000000000000000000000000000600052601160045260246000fd5b6000614c3682613b55565b91507fffffffffffffffffffffffffffffffffffffffffffffffffffffffffffffffff8203614c6857614c67614bfc565b5b600182019050919050565b600081519050919050565b600082825260208201905092915050565b6000614c9a82614c73565b614ca48185614c7e565b9350614cb4818560208601613abf565b614cbd81613ae9565b840191505092915050565b6000608082019050614cdd6000830187613bea565b614cea6020830186613bea565b614cf76040830185613c80565b8181036060830152614d098184614c8f565b905095945050505050565b600081519050614d2381613a14565b92915050565b600060208284031215614d3f57614d3e6139de565b5b6000614d4d84828501614d14565b91505092915050565b6000604082019050614d6b6000830185613bea565b614d786020830184613f78565b9392505050565b6000604082019050614d946000830185613bea565b614da16020830184613c80565b9392505050565b7f4e487b7100000000000000000000000000000000000000000000000000000000600052601260045260246000fdfea2646970667358221220367674d59a715c31b23e7277904b9dc66f06aa1174a234e48fa6789ef557b02c64736f6c634300081c0033",
  "linkReferences": {},
  "deployedLinkReferences": {}
}