{
  "_format": "hh-sol-artifact-1",
  "contractName": "CertificationAuthority",
  "sourceName": "contracts/CertificationAuthority.sol",
  "abi": [
    {
      "inputs": [
        {
          "internalType": "address",
          "name": "_skillToken",
          "type": "address"
        },
        {
          "internalType": "address",
          "name": "_credentialToken",
          "type": "address"
        }
      ],
      "stateMutability": "nonpayable",
      "type": "constructor"
    },
    {
      "inputs": [],
      "name": "AccessControlBadConfirmation",
      "type": "error"
    },
    {
      "inputs": [
        {
          "internalType": "address",
          "name": "account",
          "type": "address"
        },
        {
          "internalType": "bytes32",
          "name": "neededRole",
          "type": "bytes32"
        }
      ],
      "name": "AccessControlUnauthorizedAccount",
      "type": "error"
    },
    {
      "inputs": [],
      "name": "EnforcedPause",
      "type": "error"
    },
    {
      "inputs": [],
      "name": "ExpectedPause",
      "type": "error"
    },
    {
      "inputs": [],
      "name": "ReentrancyGuardReentrantCall",
      "type": "error"
    },
    {
      "anonymous": false,
      "inputs": [
        {
          "indexed": true,
          "internalType": "uint256",
          "name": "courseId",
          "type": "uint256"
        },
        {
          "indexed": true,
          "internalType": "address",
          "name": "approvedBy",
          "type": "address"
        }
      ],
      "name": "CourseApproved",
      "type": "event"
    },
    {
      "anonymous": false,
      "inputs": [
        {
          "indexed": true,
          "internalType": "uint256",
          "name": "courseId",
          "type": "uint256"
        },
        {
          "indexed": false,
          "internalType": "string",
          "name": "reason",
          "type": "string"
        }
      ],
      "name": "CourseRejected",
      "type": "event"
    },
    {
      "anonymous": false,
      "inputs": [
        {
          "indexed": true,
          "internalType": "uint256",
          "name": "courseId",
          "type": "uint256"
        },
        {
          "indexed": true,
          "internalType": "address",
          "name": "instructor",
          "type": "address"
        },
        {
          "indexed": false,
          "internalType": "string",
          "name": "title",
          "type": "string"
        }
      ],
      "name": "CourseSubmitted",
      "type": "event"
    },
    {
      "anonymous": false,
      "inputs": [
        {
          "indexed": true,
          "internalType": "address",
          "name": "institution",
          "type": "address"
        },
        {
          "indexed": false,
          "internalType": "enum CertificationAuthority.InstitutionTier",
          "name": "tier",
          "type": "uint8"
        }
      ],
      "name": "InstitutionVerified",
      "type": "event"
    },
    {
      "anonymous": false,
      "inputs": [
        {
          "indexed": true,
          "internalType": "address",
          "name": "instructor",
          "type": "address"
        },
        {
          "indexed": true,
          "internalType": "address",
          "name": "certifiedBy",
          "type": "address"
        },
        {
          "indexed": false,
          "internalType": "uint256",
          "name": "expiryDate",
          "type": "uint256"
        }
      ],
      "name": "InstructorCertified",
      "type": "event"
    },
    {
      "anonymous": false,
      "inputs": [
        {
          "indexed": true,
          "internalType": "address",
          "name": "instructor",
          "type": "address"
        },
        {
          "indexed": false,
          "internalType": "string",
          "name": "reason",
          "type": "string"
        }
      ],
      "name": "InstructorSuspended",
      "type": "event"
    },
    {
      "anonymous": false,
      "inputs": [
        {
          "indexed": false,
          "internalType": "address",
          "name": "account",
          "type": "address"
        }
      ],
      "name": "Paused",
      "type": "event"
    },
    {
      "anonymous": false,
      "inputs": [
        {
          "indexed": true,
          "internalType": "address",
          "name": "instructor",
          "type": "address"
        },
        {
          "indexed": false,
          "internalType": "uint256",
          "name": "newScore",
          "type": "uint256"
        }
      ],
      "name": "ReputationUpdated",
      "type": "event"
    },
    {
      "anonymous": false,
      "inputs": [
        {
          "indexed": true,
          "internalType": "bytes32",
          "name": "role",
          "type": "bytes32"
        },
        {
          "indexed": true,
          "internalType": "bytes32",
          "name": "previousAdminRole",
          "type": "bytes32"
        },
        {
          "indexed": true,
          "internalType": "bytes32",
          "name": "newAdminRole",
          "type": "bytes32"
        }
      ],
      "name": "RoleAdminChanged",
      "type": "event"
    },
    {
      "anonymous": false,
      "inputs": [
        {
          "indexed": true,
          "internalType": "bytes32",
          "name": "role",
          "type": "bytes32"
        },
        {
          "indexed": true,
          "internalType": "address",
          "name": "account",
          "type": "address"
        },
        {
          "indexed": true,
          "internalType": "address",
          "name": "sender",
          "type": "address"
        }
      ],
      "name": "RoleGranted",
      "type": "event"
    },
    {
      "anonymous": false,
      "inputs": [
        {
          "indexed": true,
          "internalType": "bytes32",
          "name": "role",
          "type": "bytes32"
        },
        {
          "indexed": true,
          "internalType": "address",
          "name": "account",
          "type": "address"
        },
        {
          "indexed": true,
          "internalType": "address",
          "name": "sender",
          "type": "address"
        }
      ],
      "name": "RoleRevoked",
      "type": "event"
    },
    {
      "anonymous": false,
      "inputs": [
        {
          "indexed": false,
          "internalType": "string",
          "name": "standardName",
          "type": "string"
        },
        {
          "indexed": false,
          "internalType": "uint256",
          "name": "validityPeriod",
          "type": "uint256"
        }
      ],
      "name": "StandardCreated",
      "type": "event"
    },
    {
      "anonymous": false,
      "inputs": [
        {
          "indexed": false,
          "internalType": "address",
          "name": "account",
          "type": "address"
        }
      ],
      "name": "Unpaused",
      "type": "event"
    },
    {
      "inputs": [],
      "name": "AUDITOR_ROLE",
      "outputs": [
        {
          "internalType": "bytes32",
          "name": "",
          "type": "bytes32"
        }
      ],
      "stateMutability": "view",
      "type": "function"
    },
    {
      "inputs": [],
      "name": "AUTHORITY_ROLE",
      "outputs": [
        {
          "internalType": "bytes32",
          "name": "",
          "type": "bytes32"
        }
      ],
      "stateMutability": "view",
      "type": "function"
    },
    {
      "inputs": [],
      "name": "DEFAULT_ADMIN_ROLE",
      "outputs": [
        {
          "internalType": "bytes32",
          "name": "",
          "type": "bytes32"
        }
      ],
      "stateMutability": "view",
      "type": "function"
    },
    {
      "inputs": [],
      "name": "VALIDATOR_ROLE",
      "outputs": [
        {
          "internalType": "bytes32",
          "name": "",
          "type": "bytes32"
        }
      ],
      "stateMutability": "view",
      "type": "function"
    },
    {
      "inputs": [
        {
          "internalType": "string",
          "name": "name",
          "type": "string"
        },
        {
          "internalType": "string",
          "name": "expertise",
          "type": "string"
        },
        {
          "internalType": "string",
          "name": "ipfsProfile",
          "type": "string"
        }
      ],
      "name": "applyForCertification",
      "outputs": [],
      "stateMutability": "payable",
      "type": "function"
    },
    {
      "inputs": [],
      "name": "certificationFee",
      "outputs": [
        {
          "internalType": "uint256",
          "name": "",
          "type": "uint256"
        }
      ],
      "stateMutability": "view",
      "type": "function"
    },
    {
      "inputs": [
        {
          "internalType": "address",
          "name": "instructor",
          "type": "address"
        },
        {
          "internalType": "string",
          "name": "standardName",
          "type": "string"
        },
        {
          "internalType": "uint256",
          "name": "customValidityPeriod",
          "type": "uint256"
        }
      ],
      "name": "certifyInstructor",
      "outputs": [],
      "stateMutability": "nonpayable",
      "type": "function"
    },
    {
      "inputs": [],
      "name": "courseIdCounter",
      "outputs": [
        {
          "internalType": "uint256",
          "name": "",
          "type": "uint256"
        }
      ],
      "stateMutability": "view",
      "type": "function"
    },
    {
      "inputs": [
        {
          "internalType": "uint256",
          "name": "",
          "type": "uint256"
        }
      ],
      "name": "courses",
      "outputs": [
        {
          "internalType": "uint256",
          "name": "courseId",
          "type": "uint256"
        },
        {
          "internalType": "string",
          "name": "title",
          "type": "string"
        },
        {
          "internalType": "string",
          "name": "description",
          "type": "string"
        },
        {
          "internalType": "address",
          "name": "instructor",
          "type": "address"
        },
        {
          "internalType": "enum CertificationAuthority.CourseStatus",
          "name": "status",
          "type": "uint8"
        },
        {
          "internalType": "uint256",
          "name": "submissionDate",
          "type": "uint256"
        },
        {
          "internalType": "uint256",
          "name": "approvalDate",
          "type": "uint256"
        },
        {
          "internalType": "address",
          "name": "approvedBy",
          "type": "address"
        },
        {
          "internalType": "uint256",
          "name": "duration",
          "type": "uint256"
        },
        {
          "internalType": "uint256",
          "name": "difficultyLevel",
          "type": "uint256"
        },
        {
          "internalType": "string",
          "name": "contentHash",
          "type": "string"
        },
        {
          "internalType": "uint256",
          "name": "enrollmentCount",
          "type": "uint256"
        },
        {
          "internalType": "bool",
          "name": "isActive",
          "type": "bool"
        }
      ],
      "stateMutability": "view",
      "type": "function"
    },
    {
      "inputs": [
        {
          "internalType": "string",
          "name": "standardName",
          "type": "string"
        },
        {
          "internalType": "string",
          "name": "description",
          "type": "string"
        },
        {
          "internalType": "uint256",
          "name": "minRequirements",
          "type": "uint256"
        },
        {
          "internalType": "uint256",
          "name": "validityPeriod",
          "type": "uint256"
        }
      ],
      "name": "createCertificationStandard",
      "outputs": [],
      "stateMutability": "nonpayable",
      "type": "function"
    },
    {
      "inputs": [],
      "name": "credentialToken",
      "outputs": [
        {
          "internalType": "contract IAcademicCredentialToken",
          "name": "",
          "type": "address"
        }
      ],
      "stateMutability": "view",
      "type": "function"
    },
    {
      "inputs": [
        {
          "internalType": "uint256",
          "name": "courseId",
          "type": "uint256"
        }
      ],
      "name": "getCourseStatus",
      "outputs": [
        {
          "internalType": "enum CertificationAuthority.CourseStatus",
          "name": "",
          "type": "uint8"
        }
      ],
      "stateMutability": "view",
      "type": "function"
    },
    {
      "inputs": [
        {
          "internalType": "address",
          "name": "instructor",
          "type": "address"
        }
      ],
      "name": "getInstructorCourses",
      "outputs": [
        {
          "internalType": "uint256[]",
          "name": "",
          "type": "uint256[]"
        }
      ],
      "stateMutability": "view",
      "type": "function"
    },
    {
      "inputs": [
        {
          "internalType": "bytes32",
          "name": "role",
          "type": "bytes32"
        }
      ],
      "name": "getRoleAdmin",
      "outputs": [
        {
          "internalType": "bytes32",
          "name": "",
          "type": "bytes32"
        }
      ],
      "stateMutability": "view",
      "type": "function"
    },
    {
      "inputs": [
        {
          "internalType": "bytes32",
          "name": "role",
          "type": "bytes32"
        },
        {
          "internalType": "address",
          "name": "account",
          "type": "address"
        }
      ],
      "name": "grantRole",
      "outputs": [],
      "stateMutability": "nonpayable",
      "type": "function"
    },
    {
      "inputs": [
        {
          "internalType": "bytes32",
          "name": "role",
          "type": "bytes32"
        },
        {
          "internalType": "address",
          "name": "account",
          "type": "address"
        }
      ],
      "name": "hasRole",
      "outputs": [
        {
          "internalType": "bool",
          "name": "",
          "type": "bool"
        }
      ],
      "stateMutability": "view",
      "type": "function"
    },
    {
      "inputs": [
        {
          "internalType": "address",
          "name": "",
          "type": "address"
        }
      ],
      "name": "institutions",
      "outputs": [
        {
          "internalType": "string",
          "name": "name",
          "type": "string"
        },
        {
          "internalType": "string",
          "name": "country",
          "type": "string"
        },
        {
          "internalType": "enum CertificationAuthority.InstitutionTier",
          "name": "tier",
          "type": "uint8"
        },
        {
          "internalType": "bool",
          "name": "isVerified",
          "type": "bool"
        },
        {
          "internalType": "uint256",
          "name": "verificationDate",
          "type": "uint256"
        },
        {
          "internalType": "string",
          "name": "accreditationDetails",
          "type": "string"
        },
        {
          "internalType": "uint256",
          "name": "coursesOffered",
          "type": "uint256"
        }
      ],
      "stateMutability": "view",
      "type": "function"
    },
    {
      "inputs": [
        {
          "internalType": "address",
          "name": "",
          "type": "address"
        },
        {
          "internalType": "uint256",
          "name": "",
          "type": "uint256"
        }
      ],
      "name": "instructorCourses",
      "outputs": [
        {
          "internalType": "uint256",
          "name": "",
          "type": "uint256"
        }
      ],
      "stateMutability": "view",
      "type": "function"
    },
    {
      "inputs": [
        {
          "internalType": "address",
          "name": "",
          "type": "address"
        }
      ],
      "name": "instructors",
      "outputs": [
        {
          "internalType": "string",
          "name": "name",
          "type": "string"
        },
        {
          "internalType": "string",
          "name": "expertise",
          "type": "string"
        },
        {
          "internalType": "enum CertificationAuthority.InstructorStatus",
          "name": "status",
          "type": "uint8"
        },
        {
          "internalType": "uint256",
          "name": "certificationDate",
          "type": "uint256"
        },
        {
          "internalType": "uint256",
          "name": "expiryDate",
          "type": "uint256"
        },
        {
          "internalType": "uint256",
          "name": "coursesCreated",
          "type": "uint256"
        },
        {
          "internalType": "uint256",
          "name": "averageRating",
          "type": "uint256"
        },
        {
          "internalType": "uint256",
          "name": "totalStudents",
          "type": "uint256"
        },
        {
          "internalType": "address",
          "name": "certifiedBy",
          "type": "address"
        },
        {
          "internalType": "string",
          "name": "ipfsProfile",
          "type": "string"
        }
      ],
      "stateMutability": "view",
      "type": "function"
    },
    {
      "inputs": [
        {
          "internalType": "address",
          "name": "instructor",
          "type": "address"
        }
      ],
      "name": "isInstructorCertified",
      "outputs": [
        {
          "internalType": "bool",
          "name": "",
          "type": "bool"
        }
      ],
      "stateMutability": "view",
      "type": "function"
    },
    {
      "inputs": [],
      "name": "pause",
      "outputs": [],
      "stateMutability": "nonpayable",
      "type": "function"
    },
    {
      "inputs": [],
      "name": "paused",
      "outputs": [
        {
          "internalType": "bool",
          "name": "",
          "type": "bool"
        }
      ],
      "stateMutability": "view",
      "type": "function"
    },
    {
      "inputs": [],
      "name": "renewCertification",
      "outputs": [],
      "stateMutability": "payable",
      "type": "function"
    },
    {
      "inputs": [],
      "name": "renewalFee",
      "outputs": [
        {
          "internalType": "uint256",
          "name": "",
          "type": "uint256"
        }
      ],
      "stateMutability": "view",
      "type": "function"
    },
    {
      "inputs": [
        {
          "internalType": "bytes32",
          "name": "role",
          "type": "bytes32"
        },
        {
          "internalType": "address",
          "name": "callerConfirmation",
          "type": "address"
        }
      ],
      "name": "renounceRole",
      "outputs": [],
      "stateMutability": "nonpayable",
      "type": "function"
    },
    {
      "inputs": [
        {
          "internalType": "address",
          "name": "",
          "type": "address"
        }
      ],
      "name": "reputationScore",
      "outputs": [
        {
          "internalType": "uint256",
          "name": "",
          "type": "uint256"
        }
      ],
      "stateMutability": "view",
      "type": "function"
    },
    {
      "inputs": [
        {
          "internalType": "uint256",
          "name": "courseId",
          "type": "uint256"
        },
        {
          "internalType": "bool",
          "name": "approved",
          "type": "bool"
        },
        {
          "internalType": "string",
          "name": "feedback",
          "type": "string"
        }
      ],
      "name": "reviewCourse",
      "outputs": [],
      "stateMutability": "nonpayable",
      "type": "function"
    },
    {
      "inputs": [
        {
          "internalType": "bytes32",
          "name": "role",
          "type": "bytes32"
        },
        {
          "internalType": "address",
          "name": "account",
          "type": "address"
        }
      ],
      "name": "revokeRole",
      "outputs": [],
      "stateMutability": "nonpayable",
      "type": "function"
    },
    {
      "inputs": [
        {
          "internalType": "uint256",
          "name": "newFee",
          "type": "uint256"
        }
      ],
      "name": "setCertificationFee",
      "outputs": [],
      "stateMutability": "nonpayable",
      "type": "function"
    },
    {
      "inputs": [
        {
          "internalType": "uint256",
          "name": "newFee",
          "type": "uint256"
        }
      ],
      "name": "setRenewalFee",
      "outputs": [],
      "stateMutability": "nonpayable",
      "type": "function"
    },
    {
      "inputs": [],
      "name": "skillToken",
      "outputs": [
        {
          "internalType": "contract ISkillToken",
          "name": "",
          "type": "address"
        }
      ],
      "stateMutability": "view",
      "type": "function"
    },
    {
      "inputs": [
        {
          "internalType": "string",
          "name": "",
          "type": "string"
        }
      ],
      "name": "standards",
      "outputs": [
        {
          "internalType": "string",
          "name": "standardName",
          "type": "string"
        },
        {
          "internalType": "string",
          "name": "description",
          "type": "string"
        },
        {
          "internalType": "uint256",
          "name": "minRequirements",
          "type": "uint256"
        },
        {
          "internalType": "uint256",
          "name": "validityPeriod",
          "type": "uint256"
        },
        {
          "internalType": "bool",
          "name": "isActive",
          "type": "bool"
        }
      ],
      "stateMutability": "view",
      "type": "function"
    },
    {
      "inputs": [
        {
          "internalType": "string",
          "name": "title",
          "type": "string"
        },
        {
          "internalType": "string",
          "name": "description",
          "type": "string"
        },
        {
          "internalType": "uint256",
          "name": "duration",
          "type": "uint256"
        },
        {
          "internalType": "uint256",
          "name": "difficultyLevel",
          "type": "uint256"
        },
        {
          "internalType": "string",
          "name": "contentHash",
          "type": "string"
        }
      ],
      "name": "submitCourse",
      "outputs": [
        {
          "internalType": "uint256",
          "name": "",
          "type": "uint256"
        }
      ],
      "stateMutability": "nonpayable",
      "type": "function"
    },
    {
      "inputs": [
        {
          "internalType": "bytes4",
          "name": "interfaceId",
          "type": "bytes4"
        }
      ],
      "name": "supportsInterface",
      "outputs": [
        {
          "internalType": "bool",
          "name": "",
          "type": "bool"
        }
      ],
      "stateMutability": "view",
      "type": "function"
    },
    {
      "inputs": [
        {
          "internalType": "address",
          "name": "instructor",
          "type": "address"
        },
        {
          "internalType": "string",
          "name": "reason",
          "type": "string"
        }
      ],
      "name": "suspendInstructor",
      "outputs": [],
      "stateMutability": "nonpayable",
      "type": "function"
    },
    {
      "inputs": [],
      "name": "unpause",
      "outputs": [],
      "stateMutability": "nonpayable",
      "type": "function"
    },
    {
      "inputs": [
        {
          "internalType": "address",
          "name": "newCredentialToken",
          "type": "address"
        }
      ],
      "name": "updateCredentialToken",
      "outputs": [],
      "stateMutability": "nonpayable",
      "type": "function"
    },
    {
      "inputs": [
        {
          "internalType": "address",
          "name": "newSkillToken",
          "type": "address"
        }
      ],
      "name": "updateSkillToken",
      "outputs": [],
      "stateMutability": "nonpayable",
      "type": "function"
    },
    {
      "inputs": [
        {
          "internalType": "address",
          "name": "institution",
          "type": "address"
        },
        {
          "internalType": "string",
          "name": "name",
          "type": "string"
        },
        {
          "internalType": "string",
          "name": "country",
          "type": "string"
        },
        {
          "internalType": "enum CertificationAuthority.InstitutionTier",
          "name": "tier",
          "type": "uint8"
        },
        {
          "internalType": "string",
          "name": "accreditationDetails",
          "type": "string"
        }
      ],
      "name": "verifyInstitution",
      "outputs": [],
      "stateMutability": "nonpayable",
      "type": "function"
    },
    {
      "inputs": [],
      "name": "withdrawFees",
      "outputs": [],
      "stateMutability": "nonpayable",
      "type": "function"
    }
  ],
  "bytecode": "0x608060405234610b5c57613f586040813803918261001c81610b80565b938492833981010312610b5c5761003e602061003783610ba5565b9201610ba5565b90600160025567016345785d8a000060065566b1a2bc2ec5000060075561006433610bb9565b5061006e33610c35565b5061007833610ccd565b5061008233610d65565b50600380546001600160a01b039283166001600160a01b031991821617909155600480549390921692169190911790556100bc6040610b80565b6010815260208101906f2120a9a4a1afa4a729aa292aa1aa27a960811b82526100e56040610b80565b91601e83527f426173696320696e7374727563746f722063657274696669636174696f6e00006020840152610118610b61565b828152602081019384526040810160018152606082016301e133808152608083019160018352604051602081885161015181838b610dfd565b600b9082019081520301902093518051906001600160401b03821161076357855490600182811c92168015610b52575b60208310146107435781601f849311610aff575b50602090601f8311600114610a9a57600092610a8f575b50508160011b916000199060031b1c19161784555b9551805190969060018501906001600160401b038111610763578154600181811c91168015610a85575b602082101461074357601f8111610a3d575b506020601f82116001146109d1579361028a9896936004938360609a989461026e98600080516020613ed88339815191529e60009261066a575b50508160011b916000199060031b1c19161790555b51600285015551600384015551151591019060ff801983541691151516179055565b6040519384926040845251809281604086015285850190610dfd565b6301e133806020830152601f01601f19168101030190a16102ab6040610b80565b6013815260208101907f414456414e4345445f494e5354525543544f520000000000000000000000000082526102e16060610b80565b91602183527f416476616e63656420696e7374727563746f722063657274696669636174696f6020840152603760f91b604084015261031e610b61565b828152602081019384526040810160058152606082016303c267008152608083019160018352604051602081885161035781838b610dfd565b600b9082019081520301902093518051906001600160401b03821161076357855490600182811c921680156109c7575b60208310146107435781601f849311610974575b50602090601f831160011461090f57600092610904575b50508160011b916000199060031b1c19161784555b9551805190969060018501906001600160401b038111610763578154600181811c911680156108fa575b602082101461074357601f81116108b2575b506020601f821160011461084657936104729896936004938360609a989461026e98600080516020613ed88339815191529e60009261066a5750508160011b916000199060031b1c191617905551600285015551600384015551151591019060ff801983541691151516179055565b6303c267006020830152601f01601f19168101030190a16104936040610b80565b6011815260208101907022ac2822a92a2fa4a729aa292aa1aa27a960791b82526104bd6040610b80565b91601f83527f45787065727420696e7374727563746f722063657274696669636174696f6e0060208401526104f0610b61565b8281526020810193845260408101600a8152606082016305a39a808152608083019160018352604051602081885161052981838b610dfd565b600b9082019081520301902093518051906001600160401b03821161076357855490600182811c9216801561083c575b60208310146107435781601f8493116107e9575b50602090601f831160011461078457600092610779575b50508160011b916000199060031b1c19161784555b9551805190969060018501906001600160401b038111610763578154600181811c91168015610759575b602082101461074357601f81116106fb575b506020601f821160011461067557936106449896936004938360609a989461026e98600080516020613ed88339815191529e60009261066a5750508160011b916000199060031b1c191617905551600285015551600384015551151591019060ff801983541691151516179055565b6305a39a806020830152601f01601f19168101030190a16040516130779081610e218239f35b015190503880610237565b601f1982169983600052816000209a60005b8181106106e3575093600184600080516020613ed88339815191529d61026e99956106449e9c999560609e9c9860049a106106ca575b505050811b01905561024c565b015160001960f88460031b161c191690553880806106bd565b838301518d556001909c019b60209384019301610687565b826000526020600020601f830160051c81019160208410610739575b601f0160051c01905b81811061072d57506105d5565b60008155600101610720565b9091508190610717565b634e487b7160e01b600052602260045260246000fd5b90607f16906105c3565b634e487b7160e01b600052604160045260246000fd5b015190503880610584565b60008881528281209350601f198516905b8181106107d157509084600195949392106107b8575b505050811b018455610599565b015160001960f88460031b161c191690553880806107ab565b92936020600181928786015181550195019301610795565b909150866000526020600020601f840160051c81019160208510610832575b90601f859493920160051c01905b818110610823575061056d565b60008155849350600101610816565b9091508190610808565b91607f1691610559565b601f1982169983600052816000209a60005b81811061089a575093600184600080516020613ed88339815191529d61026e99956104729e9c999560609e9c9860049a106106ca57505050811b01905561024c565b838301518d556001909c019b60209384019301610858565b826000526020600020601f830160051c810191602084106108f0575b601f0160051c01905b8181106108e45750610403565b600081556001016108d7565b90915081906108ce565b90607f16906103f1565b0151905038806103b2565b60008881528281209350601f198516905b81811061095c5750908460019594939210610943575b505050811b0184556103c7565b015160001960f88460031b161c19169055388080610936565b92936020600181928786015181550195019301610920565b909150866000526020600020601f840160051c810191602085106109bd575b90601f859493920160051c01905b8181106109ae575061039b565b600081558493506001016109a1565b9091508190610993565b91607f1691610387565b601f1982169983600052816000209a60005b818110610a25575093600184600080516020613ed88339815191529d61026e999561028a9e9c999560609e9c9860049a106106ca57505050811b01905561024c565b838301518d556001909c019b602093840193016109e3565b826000526020600020601f830160051c81019160208410610a7b575b601f0160051c01905b818110610a6f57506101fd565b60008155600101610a62565b9091508190610a59565b90607f16906101eb565b0151905038806101ac565b60008881528281209350601f198516905b818110610ae75750908460019594939210610ace575b505050811b0184556101c1565b015160001960f88460031b161c19169055388080610ac1565b92936020600181928786015181550195019301610aab565b909150866000526020600020601f840160051c81019160208510610b48575b90601f859493920160051c01905b818110610b395750610195565b60008155849350600101610b2c565b9091508190610b1e565b91607f1691610181565b600080fd5b6040519060a082016001600160401b0381118382101761076357604052565b6040519190601f01601f191682016001600160401b0381118382101761076357604052565b51906001600160a01b0382168203610b5c57565b6001600160a01b0381166000908152600080516020613f18833981519152602052604090205460ff16610c2f576001600160a01b03166000818152600080516020613f1883398151915260205260408120805460ff19166001179055339190600080516020613eb88339815191528180a4600190565b50600090565b6001600160a01b0381166000908152600080516020613f38833981519152602052604090205460ff16610c2f576001600160a01b03166000818152600080516020613f3883398151915260205260408120805460ff191660011790553391907fd565e3fc066df348a5cbc05a8d6323e00552838041cea2d84cc59876ba37735d90600080516020613eb88339815191529080a4600190565b6001600160a01b0381166000908152600080516020613e98833981519152602052604090205460ff16610c2f576001600160a01b03166000818152600080516020613e9883398151915260205260408120805460ff191660011790553391907f59a1c48e5837ad7a7f3dcedcbe129bf3249ec4fbf651fd4f5e2600ead39fe2f590600080516020613eb88339815191529080a4600190565b6001600160a01b0381166000908152600080516020613ef8833981519152602052604090205460ff16610c2f576001600160a01b03166000818152600080516020613ef883398151915260205260408120805460ff191660011790553391907f21702c8af46127c7fa207f89d0b0a8441bb32959a0ac7df790e9ab1a25c9892690600080516020613eb88339815191529080a4600190565b60005b838110610e105750506000910152565b8181015183820152602001610e0056fe608080604052600436101561001357600080fd5b600090813560e01c90816301ffc9a714612a6f57508063080b301e14612a515780630a88259c1461272f578063248a9ca3146126f95780632a47d91c1461260b5780632f2ff15d146125ca57806336568abe146125855780633ca67f9d146123145780633f4ba83a146122ac57806344674e43146121f7578063476343ee146121bd5780634a3fba0e146121825780634c33ac0b146121425780634ddf439114611ba55780634ec6742914611a2c57806350d061cb146119f35780635c975abb146119d05780636ceff219146119795780636e1d616e1461193e5780637bb632aa146118fe57806380c6b0c2146118db5780638456cb59146118705780638f106ff41461184d57806391d14854146118025780639320c93f146117d957806396f979d2146116c15780639da36c0114611316578063a217fddf146112fa578063ae1d5991146112a2578063b139c2a414611284578063b2d9767f146111b8578063b8398eeb14611054578063c49baebe14611019578063d1ebdfd314610ff0578063d547741f14610fa6578063d95d8c3014610a8b578063f3edb9ec146109c0578063f98ebf4e1461026a578063fbc0627f146101f95763fca77886146101d957600080fd5b346101f657806003193601126101f6576020600654604051908152f35b80fd5b50346101f65760203660031901126101f6576020906001600160a01b0361021e612af6565b169081815260088352600160ff60026040842001541661023d81612c7f565b149182610251575b50506040519015158152f35b8152600883526040902060040154421090503880610245565b50346101f65760a03660031901126101f6576004356001600160401b0381116109bc5761029b903690600401612ac4565b906024356001600160401b0381116109b8576102bb903690600401612ac4565b60643593916084356001600160401b0381116109b4576102df903690600401612ac4565b3388526008602052610306600160ff600260408c2001541661030081612c7f565b14612d88565b3388526008602052610320600460408a2001544210612dd4565b841515806109ab575b156109665760018710158061095b575b1561091657610349600554612e18565b9687600555604051936101a085018581106001600160401b03821117610902576103cd94939291610394916040528a8752610385368a8c612cda565b97602088019889523691612cda565b60408601523360608601528960808601524260a08601528960c08601528960e08601526044356101008601526101208501523691612cda565b61014082015285610160820152856101808201528486526009602052604086209181518355518051906001600160401b03821161082a5781906104136001860154612b22565b601f81116108b2575b50602090601f831160011461084957899261083e575b50508160011b916000199060031b1c19161760018301555b60408101518051906001600160401b03821161082a57819061046f6002860154612b22565b601f81116107da575b50602090601f8311600114610771578992610766575b50508160011b916000199060031b1c19161760028301555b60608101516003830180546001600160a01b0319166001600160a01b03929092169190911781556080820151600581101561075257815460ff60a01b191660a091821b60ff60a01b1617909155810151600483015560c0810151600583015560e08101516006830180546001600160a01b0319166001600160a01b039290921691909117905561010081015160078301556101208101516008830155610140810151805160098401916001600160401b03821161073e576105678354612b22565b601f81116106f9575b50602090601f831160011461068b579282610180936105cc979693600b968d92610680575b50508160011b916000199060031b1c19161790555b610160810151600a8501550151151591019060ff801983541691151516179055565b338452600c602052604084208054906801000000000000000082101561066c57849260056040602098610629866106619660017f4f964b7a693dee71f783f8347200428cf1bed5ad6decf6c8a6a7794c64f5f45b99018155612c9f565b81549060031b9089821b91600019901b191617905533815260088a5220016106518154612e18565b9055604051918291339683612d60565b0390a3604051908152f35b634e487b7160e01b86526041600452602486fd5b015190503880610595565b838a52818a209190601f1984168b5b8181106106e15750936105cc979693600b96936001938361018098106106c8575b505050811b0190556105aa565b015160001960f88460031b161c191690553880806106bb565b9293602060018192878601518155019501930161069a565b838a5260208a20601f840160051c81019160208510610734575b601f0160051c01905b8181106107295750610570565b8a815560010161071c565b9091508190610713565b634e487b7160e01b89526041600452602489fd5b634e487b7160e01b88526021600452602488fd5b01519050388061048e565b600286018a52818a209250601f1984168a5b8181106107c257509084600195949392106107a9575b505050811b0160028301556104a6565b015160001960f88460031b161c19169055388080610799565b92936020600181928786015181550195019301610783565b90915060028501895260208920601f840160051c810160208510610823575b90849392915b601f830160051c82018110610815575050610478565b8b81558594506001016107ff565b50806107f9565b634e487b7160e01b88526041600452602488fd5b015190503880610432565b600186018a52818a209250601f1984168a5b81811061089a5750908460019594939210610881575b505050811b01600183015561044a565b015160001960f88460031b161c19169055388080610871565b9293602060018192878601518155019501930161085b565b90915060018501895260208920601f840160051c8101602085106108fb575b90849392915b601f830160051c820181106108ed57505061041c565b8b81558594506001016108d7565b50806108d1565b634e487b7160e01b8b52604160045260248bfd5b60405162461bcd60e51b815260206004820152601860248201527f496e76616c696420646966666963756c7479206c6576656c00000000000000006044820152606490fd5b506005871115610339565b60405162461bcd60e51b815260206004820152601e60248201527f5469746c6520616e64206465736372697074696f6e20726571756972656400006044820152606490fd5b50831515610329565b8680fd5b8380fd5b5080fd5b50346101f65760203660031901126101f657600435906001600160401b0382116101f657366023830112156101f657610a67610a1c6020610a0936600487013560248801612cda565b8160405193828580945193849201612c37565b8101600b815203019020610a2f81612b93565b90610a3c60018201612b93565b600282015491610a7560ff60046003840154930154169260405196879660a0885260a0880190612c5a565b908682036020880152612c5a565b9260408501526060840152151560808301520390f35b50346101f65760a03660031901126101f657610aa5612af6565b6024356001600160401b038111610fa257610ac4903690600401612ac4565b6044356001600160401b038111610f9e57610ae3903690600401612ac4565b9390926064359360048510156109b4576084356001600160401b038111610f9a57610b12903690600401612ac4565b969092610b1d612e3d565b6040519560e087018781106001600160401b0382111761090257604052610b54939291610b4b913691612cda565b86523691612cda565b946020840195865260408401610b6986612c7f565b858152610b8760608601936001855260808701934285523691612cda565b9260a0860193845260c086019489865260018060a01b031697888a52600a60205260408a2096518051906001600160401b038211610ec5578190610bcb8a54612b22565b601f8111610f47575b506020908d601f8411600114610ee45792610ed9575b50508160011b916000199060031b1c19161787555b51805160018801916001600160401b038211610ec5578190610c218454612b22565b601f8111610e72575b506020908d601f8411600114610e0f5792610e04575b50508160011b916000199060031b1c19161790555b60028601915190610c6582612c7f565b610c6e82612c7f565b60ff61ff0084549251151560081b1692169061ffff1916171790555160038401556004830190518051906001600160401b03821161082a57610cb08354612b22565b601f8111610dbf575b50602090601f8311600114610d335792826005937f59bb2d82af15362a1fd5bf79eaf63d7dc3a858fce13becf048f1a13a815a9453989693602098968c92610d28575b50508160011b916000199060031b1c19161790555b5191015560405190610d2281612c7f565b8152a280f35b015190503880610cfc565b8389528189209190601f1984168a5b818110610da75750937f59bb2d82af15362a1fd5bf79eaf63d7dc3a858fce13becf048f1a13a815a945398969360209896936001938360059810610d8e575b505050811b019055610d11565b015160001960f88460031b161c19169055388080610d81565b92936020600181928786015181550195019301610d42565b83895260208920601f840160051c81019160208510610dfa575b601f0160051c01905b818110610def5750610cb9565b898155600101610de2565b9091508190610dd9565b015190503880610c40565b8581528281209350601f198516905b818110610e5a5750908460019594939210610e41575b505050811b019055610c55565b015160001960f88460031b161c19169055388080610e34565b92936020600181928786015181550195019301610e1e565b909150838d5260208d20601f840160051c81019160208510610ebb575b849392918f91601f0160051c0191905b828210610ead575050610c2a565b81558493506001018e610e9f565b9091508190610e8f565b634e487b7160e01b8c52604160045260248cfd5b015190503880610bea565b8b81528281209350601f198516905b818110610f2f5750908460019594939210610f16575b505050811b018755610bff565b015160001960f88460031b161c19169055388080610f09565b92936020600181928786015181550195019301610ef3565b909150898d5260208d20601f840160051c81019160208510610f90575b849392918f91601f0160051c0191905b828210610f82575050610bd4565b81558493506001018e610f74565b9091508190610f64565b8780fd5b8480fd5b8280fd5b50346101f65760403660031901126101f657610fec600435610fc6612b0c565b90610fe7610fe282600052600060205260016040600020015490565b612f02565b612fc8565b5080f35b50346101f657806003193601126101f6576003546040516001600160a01b039091168152602090f35b50346101f657806003193601126101f65760206040517f21702c8af46127c7fa207f89d0b0a8441bb32959a0ac7df790e9ab1a25c989268152f35b50806003193601126101f65761106861304a565b3381526008602052611089600160ff60026040852001541661030081612c7f565b33815260086020526110a360046040832001544210612dd4565b600754341061117357338152600860205260046040822001546276a7008101809111611121574211611135576301e133804201804211611121573382526008602052600460408320015580803415611118575b8180809234903090f11561110c57600160025580f35b604051903d90823e3d90fd5b506108fc6110f6565b634e487b7160e01b82526011600452602482fd5b60405162461bcd60e51b815260206004820152601660248201527514995b995dd85b081c195c9a5bd908195e1c1a5c995960521b6044820152606490fd5b60405162461bcd60e51b815260206004820152601860248201527f496e73756666696369656e742072656e6577616c2066656500000000000000006044820152606490fd5b50346101f65760203660031901126101f657611240906040906001600160a01b036111e1612af6565b168152600a602052206111f381612b93565b9061127a61120360018301612b93565b9160028101549060ff82169160ff60038301549161124e600561122860048701612b93565b950154976040519a8b9a60e08c5260e08c0190612c5a565b908a820360208c0152612c5a565b9461125881612c7f565b604089015260081c1615156060870152608086015284820360a0860152612c5a565b9060c08301520390f35b50346101f657806003193601126101f6576020600554604051908152f35b50346101f65760203660031901126101f65760ff60036040602093600435801515806112ee575b6112d290612d20565b81526009855220015460a01c166112ec6040518092612ccd565bf35b506005548111156112c9565b50346101f657806003193601126101f657602090604051908152f35b50346101f65760803660031901126101f6576004356001600160401b0381116109bc57611347903690600401612ac4565b6024356001600160401b0381116109b8576113839261136d61138b923690600401612ac4565b9490916064359461137c612eaf565b3691612cda565b933691612cda565b6040519060a082018281106001600160401b0382111761066c57604052838252602082019081526040820160443581526060830190848252608084019260018452604051602081816113e38b83815193849201612c37565b8101600b81520301902094518051906001600160401b0382116115ef57819061140c8854612b22565b601f8111611671575b50602090601f831160011461160e578b92611603575b50508160011b916000199060031b1c19161785555b51805160018601916001600160401b0382116115ef576114608354612b22565b601f81116115aa575b506020908a601f84116001146115165793836114ff9a98946114eb98947fa277ab2ed69823e2080efc00ef58e8a235429e6800ec59e6f5ff193c184819889d9b98946004989261150b575b50508160011b916000199060031b1c19161790555b51600285015551600384015551151591019060ff801983541691151516179055565b604051928392604084526040840190612c5a565b9060208301520390a180f35b0151905038806114b4565b50838b52818b209190601f1984168c5b8181106115925750846114eb98947fa277ab2ed69823e2080efc00ef58e8a235429e6800ec59e6f5ff193c184819889d9b9894600498946114ff9e9c9860019510611579575b505050811b0190556114c9565b015160001960f88460031b161c1916905538808061156c565b92936020600181928786015181550195019301611526565b838b5260208b20601f840160051c810191602085106115e5575b601f0160051c01905b8181106115da5750611469565b8b81556001016115cd565b90915081906115c4565b634e487b7160e01b8a52604160045260248afd5b01519050388061142b565b888c52818c209250601f1984168c5b8181106116595750908460019594939210611640575b505050811b018555611440565b015160001960f88460031b161c19169055388080611633565b9293602060018192878601518155019501930161161d565b909150878b5260208b20601f840160051c810191602085106116b7575b90601f859493920160051c01905b8181106116a95750611415565b8c815584935060010161169c565b909150819061168e565b50346101f65760203660031901126101f657600435815260096020526040902080546116ef60018301612b93565b916116fc60028201612b93565b6003820154600483015460058401546006850154600786015460088701549394939290916001600160a01b03169061173660098901612b93565b95600a89015498600b015460ff16976040519b8c9b8c5260208c016101a090526101a08c0161176491612c5a565b8b810360408d015261177591612c5a565b6001600160a01b03871660608c0152956117999060808c019060a01c60ff16612ccd565b60a08a015260c089015260e08801526101008701526101208601528481036101408601526117c691612c5a565b9161016084015215156101808301520390f35b50346101f657806003193601126101f6576004546040516001600160a01b039091168152602090f35b50346101f65760403660031901126101f657604061181e612b0c565b91600435815280602052209060018060a01b0316600052602052602060ff604060002054166040519015158152f35b50346101f65760203660031901126101f657611867612eaf565b60043560065580f35b50346101f657806003193601126101f657611889612eaf565b60015460ff81166118cc5760019060ff1916176001557f62e78cea01bee320cd4e420270b5ea74000d11b0c9f74754ebdbfc544b05a2586020604051338152a180f35b63d93c066560e01b8252600482fd5b50346101f65760203660031901126101f6576118f5612eaf565b60043560075580f35b50346101f65760203660031901126101f657611918612af6565b611920612eaf565b60018060a01b03166001600160601b0360a01b600354161760035580f35b50346101f657806003193601126101f65760206040517f59a1c48e5837ad7a7f3dcedcbe129bf3249ec4fbf651fd4f5e2600ead39fe2f58152f35b50346101f65760403660031901126101f657611993612af6565b6001600160a01b03168152600c60205260408120805460243592908310156101f65760206119c18484612c9f565b90549060031b1c604051908152f35b50346101f657806003193601126101f657602060ff600154166040519015158152f35b50346101f65760203660031901126101f6576020906040906001600160a01b03611a1b612af6565b168152600d83522054604051908152f35b50346101f65760403660031901126101f657611a46612af6565b6024356001600160401b038111610fa257611a65903690600401612ac4565b7f59a1c48e5837ad7a7f3dcedcbe129bf3249ec4fbf651fd4f5e2600ead39fe2f5845260208481526040808620336000908152925290205490929060ff1615611b6e576001600160a01b03168084526008602052604084206002015490929060019060ff16611ad381612c7f565b03611b29577f17bb65b2279e923066405b19e5d2e83bee9f283f730be78aeebc49eaee11bfdb91838552600860205260026040862001600260ff19825416179055611b2360405192839283612d60565b0390a280f35b60405162461bcd60e51b815260206004820152601860248201527f496e7374727563746f72206e6f742063657274696669656400000000000000006044820152606490fd5b63e2517d3f60e01b8452336004527f59a1c48e5837ad7a7f3dcedcbe129bf3249ec4fbf651fd4f5e2600ead39fe2f5602452604484fd5b5060603660031901126101f6576004356001600160401b0381116109bc57611bd1903690600401612ac4565b91906024356001600160401b038111610fa257611bf2903690600401612ac4565b906044356001600160401b038111610f9e57611c12903690600401612ac4565b929093611c1d61304a565b60065434106120fd573386526008602052600160ff600260408920015416611c4481612c7f565b146120c4576040519661014088018881106001600160401b0382111761082a57604052611c81939291611c78913691612cda565b87523691612cda565b916020850192835260408501848152606086018581526080870191868352611cc660a089019488865260c08a01968988528960e08c0152896101008c01523691612cda565b6101208901523387526008602052604087209588518051906001600160401b0382116115ef578190611cf88a54612b22565b601f8111612074575b50602090601f8311600114612011578b92612006575b50508160011b916000199060031b1c19161787555b518051906001600160401b03821161073e57611d4b6001890154612b22565b601f8111611fbe575b50602090601f8311600114611f475791806009989694926101209a9896948c92611f3c575b50508160011b916000199060031b1c19161760018701555b600286019051611da081612c7f565b611da981612c7f565b60ff8019835416911617905551600385015551600484015551600583015551600682015560e0850151600782015560018060a01b0361010086015116600882019060018060a01b03166001600160601b0360a01b825416179055019201519182516001600160401b038111611f2857611e228254612b22565b601f8111611ee3575b506020601f8211600114611e8257839482939492611e77575b50508160011b916000199060031b1c19161790555b80803415611118578180809234903090f11561110c57600160025580f35b015190503880611e44565b82845280842090601f198316855b818110611ecb57509583600195969710611eb2575b505050811b019055611e59565b015160001960f88460031b161c19169055388080611ea5565b9192602060018192868b015181550194019201611e90565b82845260208420601f830160051c81019160208410611f1e575b601f0160051c01905b818110611f135750611e2b565b848155600101611f06565b9091508190611efd565b634e487b7160e01b83526041600452602483fd5b015190503880611d79565b90600189018a52808a20918a5b601f1985168110611fa65750926009989694926001926101209b99979583601f19811610611f8d575b505050811b016001870155611d91565b015160001960f88460031b161c19169055388080611f7d565b91926020600181928685015181550194019201611f54565b600189018a5260208a20601f840160051c81019160208510611ffc575b601f0160051c01905b818110611ff15750611d54565b8a8155600101611fe4565b9091508190611fdb565b015190503880611d17565b8a8c52818c209250601f1984168c5b81811061205c5750908460019594939210612043575b505050811b018755611d2c565b015160001960f88460031b161c19169055388080612036565b92936020600181928786015181550195019301612020565b909150898b5260208b20601f840160051c810191602085106120ba575b90601f859493920160051c01905b8181106120ac5750611d01565b8c815584935060010161209f565b9091508190612091565b60405162461bcd60e51b8152602060048201526011602482015270105b1c9958591e4818d95c9d1a599a5959607a1b6044820152606490fd5b60405162461bcd60e51b815260206004820152601e60248201527f496e73756666696369656e742063657274696669636174696f6e2066656500006044820152606490fd5b50346101f65760203660031901126101f65761215c612af6565b612164612eaf565b60018060a01b03166001600160601b0360a01b600454161760045580f35b50346101f657806003193601126101f65760206040517fd565e3fc066df348a5cbc05a8d6323e00552838041cea2d84cc59876ba37735d8152f35b50346101f657806003193601126101f6576121d6612eaf565b80808080478181156121ee575b3390f11561110c5780f35b506108fc6121e3565b50346101f65760203660031901126101f6576001600160a01b03612219612af6565b168152600c60205260408120604051908160208254918281520190819285526020852090855b8181106122965750505082612255910383612b5c565b604051928392602084019060208552518091526040840192915b81811061227d575050500390f35b825184528594506020938401939092019160010161226f565b825484526020909301926001928301920161223f565b50346101f657806003193601126101f6576122c5612eaf565b60015460ff8116156123055760ff19166001557f5db9ee0a495bf2e6ff9c91a7834c1ba4fdd244a5e8aa4e537bd38aeae4b073aa6020604051338152a180f35b638dfc202b60e01b8252600482fd5b50346101f65760603660031901126101f65761232e612af6565b906024356001600160401b0381116109bc5761234e903690600401612ac4565b6044939193359161235d612e3d565b6001600160a01b03168084526008602052604084206002015490949060ff1661238581612c7f565b612540576020908260405193849283378101600b81520301902060ff600482015416156125055781156124fa57505b828252600860205260026040832001600160ff1982541617905582825260086020524260036040842001554201918242116111215781928183526008602052600460408420015580825260086020526008604083200160018060a01b0333166001600160601b0360a01b825416179055808252600d6020526064604083205580825260086020526004604083200154604051908152817f62aaeb7abaf51503c1c036988c7b4f1c65c002332b325b5aea4d9f815196ad0060203393a36003546001600160a01b031690813b156124f657829160a483926040519485938492631637d78d60e21b8452600484015260606024840152601860648401527f696e7374727563746f725f63657274696669636174696f6e00000000000000006084840152600160448401525af16124e55750f35b816124ef91612b5c565b6101f65780f35b5050fd5b6003915001546123b4565b60405162461bcd60e51b81526020600482015260136024820152725374616e64617264206e6f742061637469766560681b6044820152606490fd5b60405162461bcd60e51b815260206004820152601960248201527f496e76616c696420696e7374727563746f7220737461747573000000000000006044820152606490fd5b50346101f65760403660031901126101f65761259f612b0c565b336001600160a01b038216036125bb57610fec90600435612fc8565b63334bd91960e11b8252600482fd5b50346101f65760403660031901126101f657610fec6004356125ea612b0c565b90612606610fe282600052600060205260016040600020015490565b612f3d565b50346101f65760203660031901126101f6576040906001600160a01b03612630612af6565b1681526008602052206101406126f561264883612b93565b9261265560018201612b93565b60ff600283015416916003810154600482015460058301546006840154916007850154936126b9612695600960018060a01b0360088a0154169801612b93565b976126ab6040519d8d8f9e8f9081520190612c5a565b8c810360208e015290612c5a565b976126c381612c7f565b60408b015260608a0152608089015260a088015260c087015260e0860152610100850152838203610120850152612c5a565b0390f35b50346101f65760203660031901126101f6576020612727600435600052600060205260016040600020015490565b604051908152f35b50346101f65760603660031901126101f6576024359060043582151583036109bc576044356001600160401b038111610fa257612770903690600401612ac4565b7f21702c8af46127c7fa207f89d0b0a8441bb32959a0ac7df790e9ab1a25c9892684526020848152604080862033875290915284205460ff1615612a1a5782151580612a0e575b6127c090612d20565b82845260096020526040842091600383019560ff875460a01c1660058110156129fa5780159081156129ef575b50156129b25715612968575050835460ff60a01b1916600160a11b1784554260058201556006810180546001600160a01b03191633908117909155600b91909101805460ff19166001179055604051917ff964ddb5fe24ef6ea37f14435621a452d6c00a40c56945decac468e0954252308480a360035483546001600160a01b039182169116813b156109b85760a4838580948294631637d78d60e21b8452600484015260606024840152600f60648401526e18dbdd5c9cd957d85c1c1c9bdd9959608a1b6084840152600160448401525af1612958575b5090546001600160a01b0316808252600d6020526040822054600a8101908110612944576103e881111561293f57506103e85b818352600d6020526040832055808252600d6020527ffc577563f1b9a0461e24abef1e1fcc0d33d3d881f20b5df6dda59de4aae2c82160206040842054604051908152a280f35b6128f8565b634e487b7160e01b83526011600452602483fd5b8161296291612b5c565b386128c5565b855460ff60a01b1916600360a01b17909555604051939492937f3a9e47b985ba7ba4d4efeda2b1aa3beb262ac19ca4fa9219394d5574cfd424be939092508291611b239183612d60565b60405162461bcd60e51b8152602060048201526015602482015274496e76616c696420636f757273652073746174757360581b6044820152606490fd5b6001915014386127ed565b634e487b7160e01b87526021600452602487fd5b506005548311156127b7565b63e2517d3f60e01b8452336004527f21702c8af46127c7fa207f89d0b0a8441bb32959a0ac7df790e9ab1a25c98926602452604484fd5b50346101f657806003193601126101f6576020600754604051908152f35b9050346109bc5760203660031901126109bc5760043563ffffffff60e01b8116809103610fa25760209250637965db0b60e01b8114908115612ab3575b5015158152f35b6301ffc9a760e01b14905038612aac565b9181601f84011215612af1578235916001600160401b038311612af15760208381860195010111612af157565b600080fd5b600435906001600160a01b0382168203612af157565b602435906001600160a01b0382168203612af157565b90600182811c92168015612b52575b6020831014612b3c57565b634e487b7160e01b600052602260045260246000fd5b91607f1691612b31565b90601f801991011681019081106001600160401b03821117612b7d57604052565b634e487b7160e01b600052604160045260246000fd5b9060405191826000825492612ba784612b22565b8084529360018116908115612c155750600114612bce575b50612bcc92500383612b5c565b565b90506000929192526020600020906000915b818310612bf9575050906020612bcc9282010138612bbf565b6020919350806001915483858901015201910190918492612be0565b905060209250612bcc94915060ff191682840152151560051b82010138612bbf565b60005b838110612c4a5750506000910152565b8181015183820152602001612c3a565b90602091612c7381518092818552858086019101612c37565b601f01601f1916010190565b60041115612c8957565b634e487b7160e01b600052602160045260246000fd5b8054821015612cb75760005260206000200190600090565b634e487b7160e01b600052603260045260246000fd5b906005821015612c895752565b9291926001600160401b038211612b7d5760405191612d03601f8201601f191660200184612b5c565b829481845281830111612af1578281602093846000960137010152565b15612d2757565b60405162461bcd60e51b8152602060048201526011602482015270125b9d985b1a590818dbdd5c9cd9481251607a1b6044820152606490fd5b90918060409360208452816020850152848401376000828201840152601f01601f1916010190565b15612d8f57565b60405162461bcd60e51b815260206004820152601a60248201527f4e6f7420612063657274696669656420696e7374727563746f720000000000006044820152606490fd5b15612ddb57565b60405162461bcd60e51b815260206004820152601560248201527410d95c9d1a599a58d85d1a5bdb88195e1c1a5c9959605a1b6044820152606490fd5b6000198114612e275760010190565b634e487b7160e01b600052601160045260246000fd5b3360009081527ffd954c8947fdc98546445b97ed0b40d4f2e212d6308d6baacd84bd7753623989602052604090205460ff1615612e7657565b63e2517d3f60e01b600052336004527fd565e3fc066df348a5cbc05a8d6323e00552838041cea2d84cc59876ba37735d60245260446000fd5b3360009081527fad3228b676f7d3cd4284a5443f17f1962b36e491b30a40b2405849e597ba5fb5602052604090205460ff1615612ee857565b63e2517d3f60e01b60005233600452600060245260446000fd5b60008181526020818152604080832033845290915290205460ff1615612f255750565b63e2517d3f60e01b6000523360045260245260446000fd5b6000818152602081815260408083206001600160a01b038616845290915290205460ff16612fc1576000818152602081815260408083206001600160a01b0395909516808452949091528120805460ff19166001179055339291907f2f8788117e7eff1d82e926ec794901d17c78024a50270940304540a733656f0d9080a4600190565b5050600090565b6000818152602081815260408083206001600160a01b038616845290915290205460ff1615612fc1576000818152602081815260408083206001600160a01b0395909516808452949091528120805460ff19169055339291907ff6391f5c32d9c69d2a47ea670b442974b53935d1edc7fd64eb21e047a839171b9080a4600190565b60028054146130595760028055565b633ee5aeb560e01b60005260046000fdfea164736f6c634300081c000a0d2d6a5d08cb5d871289c0a3ca855d9da72909a111c24cce2d5c2b34a20daa542f8788117e7eff1d82e926ec794901d17c78024a50270940304540a733656f0da277ab2ed69823e2080efc00ef58e8a235429e6800ec59e6f5ff193c184819885111aeae4aa79889928e72f88b5872109754de9d419ea9a4e3df5fba21d4d46fad3228b676f7d3cd4284a5443f17f1962b36e491b30a40b2405849e597ba5fb5fd954c8947fdc98546445b97ed0b40d4f2e212d6308d6baacd84bd7753623989",
  "linkReferences": {},
  "deployedLinkReferences": {}
}